:020000040800F2
:1000000000000220695F0008295E0008315E0008D8
:10001000395E0008415E0008495E000800000000EB
:10002000000000000000000000000000515E000819
:100030005F5E0008000000006D5E00087D5E000845
:10004000B95F0008B95F0008B95F0008B95F000830
:10005000B95F0008B95F0008B95F0008B95F000820
:10006000B95F0008B95F0008B95F0008B95F000810
:10007000B95F0008B95F0008B95F0008B95F000800
:10008000B95F0008B95F0008B95F0008B95F0008F0
:10009000B95F0008B95F0008B95F0008B95F0008E0
:1000A000B95F0008B95F0008B95F0008B95F0008D0
:1000B000B95F0008B95F0008B95F0008B95F0008C0
:1000C000B95F0008995E0008A55E0008B95F0008E6
:1000D000B95F0008B95F0008B15E0008BD5E0008A6
:1000E000B95F0008B95F0008B95F0008B95F000890
:1000F000B95F0008B95F0008B95F0008B95F000880
:10010000B95F0008B95F0008B95F0008B95F00086F
:10011000B95F0008B95F0008B95F0008B95F00085F
:10012000C95E0008B95F0008B95F0008B95F000840
:10013000B95F0008B95F0008B95F0008B95F00083F
:10014000B95F0008B95F0008B95F0008B95F00082F
:10015000B95F0008B95F0008B95F0008B95F00081F
:10016000B95F0008B95F0008B95F0008B95F00080F
:10017000B95F0008B95F0008B95F0008000000001F
:08018000B95F0008B95F000837
:1001900010B5054C237833B9044B13B10448AFF3C1
:1001A00000800123237010BDE42200200000000025
:1001B0009093000808B5034B1BB103490348AFF304
:1001C000008008BD00000000E82200209093000895
:1001D00010F8012B11F8013B012A28BF9A42F7D0F1
:1001E000D01A7047034613F8012B002AFBD1181AC6
:1001F000013870470000000000000000000000000F
:1002000001F0FF01102A2BDB10F0070F08D010F8C7
:10021000013B013A8B422DD010F0070F42B3F6D1CB
:10022000F0B441EA012141EA014122F007047FF0E4
:1002300000070023F0E80256083C85EA010586EA3B
:10024000010685FA47F5A3FA87F586FA47F6A5FA77
:1002500087F68EB9EED1F0BC01F0FF0102F0070283
:1002600032B110F8013B013A83EA010313B1F8D12E
:100270000020704701387047002D06BF354603380F
:10028000073815F0010F07D1013015F4807F02BF48
:10029000013015F4C03F0130F0BC0138704700BF99
:1002A0007BB972B90029BEBF00204FF0004106E0C3
:1002B00008BF00281CBF6FF000414FF0FF3000F076
:1002C000B5B9ADF1080C6DE904CE002909DB002BAE
:1002D0001ADB00F04DF8DDF804E0DDE9022304B09C
:1002E0007047404261EB4101002B1BDB00F040F8FE
:1002F000DDF804E0DDE9022304B0404261EB410196
:10030000524263EB43037047524263EB430300F0F6
:100310002FF8DDF804E0DDE9022304B0404261EB90
:1003200041017047524263EB430300F021F8DDF8CE
:1003300004E0DDE9022304B0524263EB430370475B
:1003400053B94AB9002908BF00281CBF4FF0FF313C
:100350004FF0FF3000F06AB9ADF1080C6DE904CE42
:1003600000F006F8DDF804E0DDE9022304B0704790
:100370002DE9F047089D0C46002B4ED194468C4544
:100380008646B2FA82F262D94AB1C2F120039140A4
:1003900020FA03F30CFA02FC194300FA02FE4FEABA
:1003A0001C471FFA8CF6B1FBF7F44FEA1E4307FB1C
:1003B000141143EA014304FB06F199420AD91CEBEC
:1003C000030304F1FF3080F01281994240F20F8163
:1003D000023C6344591A1FFA8EF3B1FBF7F007FB96
:1003E000101143EA014300FB06F69E420AD91CEBBA
:1003F000030300F1FF3180F0FC809E4240F2F9805F
:10040000634402389B1B40EA044000211DB1D340E5
:100410000022C5E90032BDE8F0878B4205D90DB155
:10042000C5E9000100210846F5E7B3FA83F1002988
:1004300046D1A34202D39042C0F0F080861A64EB0A
:1004400003030120002DE6D0C5E90063E3E7002A9D
:1004500040F09080A1EB0C044FEA1C481FFA8CF787
:100460000121B4FBF8F64FEA1E4308FB164443EAA9
:10047000044307FB06F0984208D91CEB030306F17E
:10048000FF3402D2984200F2CD8026461C1A1FFA91
:100490008EF3B4FBF8F008FB104443EA044300FB7E
:1004A00007F79F4208D91CEB030300F1FF3402D287
:1004B0009F4200F2B0802046DB1B40EA0640A5E7E1
:1004C000C1F120068B4022FA06F71F4320FA06FCF2
:1004D00004FA01F343EA0C03F44000FA01F8380C83
:1004E0004FEA1349B4FBF0FE1FFA87FC00FB1E44E1
:1004F00049EA04440EFB0CF9A14502FA01F20AD9BB
:100500003C190EF1FF3A80F08480A14540F28180D1
:10051000AEF1020E3C44A4EB09041FFA83F9B4FBCC
:10052000F0F300FB134449EA044403FB0CFCA4452C
:1005300007D93C1903F1FF3067D2A44565D9023BC6
:100540003C4443EA0E40A0FB0293A4EB0C049C4203
:10055000CE469C4651D34ED055B1B8EB0E0364EB5A
:100560000C0404FA06F6CB401E43CC40C5E90064F7
:10057000002150E7C2F1200320FA03F10CFA02FC3B
:1005800024FA03F394400C434FEA1C4800FA02FE9D
:100590001FFA8CF7B3FBF8F008FB1031230C43EA89
:1005A000014300FB07F1994208D91CEB030300F15A
:1005B000FF362CD299422AD9023863445B1AA4B27E
:1005C000B3FBF8F108FB113344EA034401FB07F3E2
:1005D000A34208D91CEB040401F1FF3613D2A34255
:1005E00011D902396444E41A41EA004139E704466A
:1005F000F0E6084606E7C845AED2B9EB020E63EB5B
:10060000070C0138A8E73146EDE7034699E7304685
:10061000D4E7D6467FE7634402384DE706462346D3
:1006200008460FE7023E634430E700BF704700BF53
:1006300080B400AF074B1B6803F48033B3F5803FF1
:100640000CBF01230023DBB21846BD465DF8047BD6
:10065000704700BF10E000E080B584B000AF0346F3
:10066000FB71FB790C4A12680C49A1FB0212920C37
:1006700002FB03F3FB6007E0FFF7DAFF0346002B02
:1006800002D0FB68013BFB60FB68002BF4D100BF8C
:1006900000BF1037BD4680BD1822002083DE1B43FB
:1006A00080B483B000AF78607B681B6843F00102C0
:1006B0007B681A6000BF0C37BD465DF8047B70474D
:1006C00080B483B000AF78607B681B6823F00102C0
:1006D0007B681A6000BF0C37BD465DF8047B70472D
:1006E00080B483B000AF78607B681B6823F0800221
:1006F0007B681A6000BF0C37BD465DF8047B70470D
:1007000080B483B000AF78607B681B6823F0400240
:100710007B681A6000BF0C37BD465DF8047B7047EC
:1007200080B483B000AF78607B68DB6823F001029F
:100730007B68DA6000BF0C37BD465DF8047B70470C
:1007400080B483B000AF78607B685B6843F400726C
:100750007B685A6000BF0C37BD465DF8047B70476C
:1007600080B483B000AF78607B685B6843F48062DC
:100770007B685A6000BF0C37BD465DF8047B70474C
:1007800080B483B000AF78607B685B6823F48062DC
:100790007B685A6000BF0C37BD465DF8047B70472C
:1007A00080B483B000AF78607B685B6843F480728C
:1007B0007B685A6000BF0C37BD465DF8047B70470C
:1007C00080B483B000AF78607B685B6903F080031E
:1007D000802B0CBF01230023DBB218460C37BD462B
:1007E0005DF8047B704780B483B000AF78607B68AD
:1007F0005B6903F04003402B0CBF01230023DBB2F5
:1008000018460C37BD465DF8047B704780B483B052
:1008100000AF78607B685B6903F00203022B0CBFBA
:1008200001230023DBB218460C37BD465DF8047B7C
:10083000704780B483B000AF78607B685B6903F475
:100840008063B3F5806F0CBF01230023DBB2184631
:100850000C37BD465DF8047B704780B483B000AFB1
:1008600078607B685B6903F01003102B0CBF0123D9
:100870000023DBB218460C37BD465DF8047B704799
:1008800080B483B000AF78607B685B6903F48073E9
:10089000B3F5807F0CBF01230023DBB218460C3771
:1008A000BD465DF8047B704780B483B000AF7860CC
:1008B0007B685B6903F40073B3F5007F0CBF012311
:1008C0000023DBB218460C37BD465DF8047B704749
:1008D00080B483B000AF78607B685B6903F4006329
:1008E000B3F5006F0CBF01230023DBB218460C37B1
:1008F000BD465DF8047B704780B485B000AF78607A
:100900007B685B69FB60FB687B689B69FB60FB68DD
:1009100000BF1437BD465DF8047B704780B483B0D8
:1009200000AF78607B685B6923F480627B685A6102
:1009300000BF0C37BD465DF8047B704780B485B0BE
:1009400000AF78607B685B69FB60FB687B681B6855
:1009500043F001027B681A6000BF1437BD465DF8A2
:10096000047B704780B483B000AF78607B685B69BC
:1009700023F480727B685A6100BF0C37BD465DF876
:10098000047B704780B483B000AF78607B685B699C
:1009900023F400727B685A6100BF0C37BD465DF8D6
:1009A000047B704780B483B000AF78607B685B697C
:1009B00023F400627B685A6100BF0C37BD465DF8C6
:1009C000047B704780B483B000AF78607B689B691C
:1009D00003F0040318460C37BD465DF8047B7047EE
:1009E00080B483B000AF78607B681B69DBB21846C7
:1009F0000C37BD465DF8047B704780B483B000AF10
:100A000078600B46FB707B681B6923F0FF02FB7864
:100A10001A437B681A6100BF0C37BD465DF8047B42
:100A20007047000080B586B000AF244B9B68184625
:100A3000FFF746FE214B9B68184606F0A5FA1F4BB0
:100A40009B681846FFF74CFE1C4B9B681846FFF747
:100A500057FE1A4B9B681846FFF762FE3B46002282
:100A60001A605A609A60DA601A615A6100233B602A
:100A7000134B7B600023BB602423FB604FF4806337
:100A80003B614FF480437B610C4B9B683A461146B7
:100A9000184606F0B3FA094B9B681846FFF750FE5C
:100AA000064B9B681846FFF77BFE044B9B68184675
:100AB000FFF7F6FD00BF1837BD4680BD00240020BB
:100AC000A086010080B400AF0A4B00225A71094B86
:100AD0004FF0FF321A60074B00221A71054B0022BB
:100AE0009A71044B0022DA7100BFBD465DF8047BA9
:100AF000704700BF0024002080B582B000AF78604E
:100B0000094A7B689360094B00221A70FFF7DAFFED
:100B10004FF480720021064807F0BAFF0023184600
:100B20000837BD4680BD00BF002400200C240020F3
:100B30000023002080B588B000AF824B01221A70DC
:100B4000814B9B681846FFF761FE0346002B1AD0C5
:100B50007D4B9B681846FFF7CFFE7B4B9B68184682
:100B6000FFF730FF0346042B08D1774B00221A71A0
:100B7000754B9B681846FFF7F3FD04E0724B9B68CA
:100B80001846FFF7EDFD704B9B681846FFF718FEFF
:100B90000346002B5AD00023FB776B4B1B6838466B
:100BA0006A4A1E2107F040FF3B461946684800F09C
:100BB0001CFB654B1B68002B21DB634B1B68384615
:100BC000644A1E2107F030FF3B461946604800F09A
:100BD0000CFB5D4B1A68604913465B0013440B44E1
:100BE00002331B78FB77FB7F38465C4A1E2107F0F7
:100BF0001BFF3B461946564800F0F7FA0FE0524BF0
:100C00001B6813F1020F0AD14F4B5B79DBB2113B2A
:100C1000534AD35CFB7753494D4800F0E6FAFB7F1B
:100C20003846514A1E2107F0FFFE3B461946484808
:100C300000F0DBFA444B9B68FA7F11461846FFF739
:100C4000DCFE414B9B681846FFF79AFD3E4B9B68C4
:100C50001846FFF7C8FD0346002B56D03A4B9B6859
:100C60001846FFF7BDFE0346BB77374B1B79DBB257
:100C7000002B1CD1344ABB7F5371BB7F1A463B49C2
:100C8000334800F041FB304B01221A712E4B5B7947
:100C9000DBB2184600F0F4F803462B4A13602A4BE7
:100CA0001B681A4632492A4800F02EFB2DE0264BDD
:100CB0001B68002B15DB244B1A68274913465B0081
:100CC00013440B4401331B78032B16D11E4B1A68B7
:100CD000214913465B0013440B440233BA7F1A7058
:100CE0000BE0194B1B6813F1020F06D1164B5B7911
:100CF000DBB2113B1A49BA7FCA54134B00221A7156
:100D0000114B9B681846FFF73BFD0F4B9B6818463D
:100D1000FFF7A3FD0346002B0FD00B4B9B68184633
:100D2000FFF70CFE084B00221A71074B9B68184610
:100D3000FFF726FD034B00221A7000BF2037BD4687
:100D400080BD00BF0C24002000240020A8930008D0
:100D500068240020C493000810240020D8930008C1
:100D600000230020F4930008FC930008149400086A
:100D70002494000880B500AF2149224800F035FADC
:100D8000214B00221A70214B9B681846FFF778FD13
:100D90000346002B04D01D4B9B681846FFF7E2FD6D
:100DA0001A4B9B681846FFF77FFD0346002B04D0C3
:100DB000164B9B681846FFF7E5FD144B9B681846D9
:100DC000FFF737FD0346002B04D0104B9B681846F5
:100DD000FFF7A4FD0D4B9B681846FFF779FD03460E
:100DE000002B04D0094B9B681846FFF7DBFDFFF78B
:100DF00019FE064B9B681846FFF77EFE00BF80BDBC
:100E000034940008682400200C24002000240020D2
:100E100080B483B000AF194B00221A70174B022226
:100E20005A70164B12229A700123FB711CE0FA795A
:100E3000124913465B0013440B44FA791A70FA798D
:100E40000E4913465B0013440B44013303221A700E
:100E5000FA790A4913465B0013440B440233FA79CA
:100E60001A70FB790133FB71FB79102BDFD900BFBE
:100E700000BF0C37BD465DF8047B7047102400208E
:100E800080B483B000AF0346FB71FB79002B01D126
:100E900000230FE0FB79002B04D0FB79102B01D845
:100EA000FB7907E0FB79102B02D96FF0010301E019
:100EB0004FF0FF3318460C37BD465DF8047B704792
:100EC00080B483B000AF03463960FB7197F90730F7
:100ED000002B0ADB3B68DAB20C4997F907301201A4
:100EE000D2B20B4483F800230AE03B68DAB2084927
:100EF000FB7903F00F03043B1201D2B20B441A76C4
:100F000000BF0C37BD465DF8047B704700E100E090
:100F100000ED00E080B582B000AF78607B68013BF7
:100F2000B3F1807F01D301230FE00A4A7B68013BC4
:100F300053600F214FF0FF30FFF7C2FF054B002237
:100F40009A60044B07221A60002318460837BD46F2
:100F500080BD00BF10E000E080B400AF054B1B680F
:100F6000044A43F00103136000BFBD465DF8047BF3
:100F7000704700BF10E000E080B500AF054B1B6874
:100F8000054AA2FB03239B091846FFF7C3FF00BFD6
:100F900080BD00BF18220020D34D621080B483B002
:100FA00000AF0346FB7197F90730002B0BDBFB7991
:100FB00003F01F02074997F907305B09012000FA87
:100FC00002F241F8232000BF0C37BD465DF8047BD8
:100FD000704700BF00E100E080B483B000AF03467B
:100FE000FB7197F90730002B12DBFB7903F01F022E
:100FF0000A4997F907305B09012000FA02F2203311
:1010000041F82320BFF34F8F00BFBFF36F8F00BFA6
:1010100000BF0C37BD465DF8047B704700E100E07F
:1010200080B489B000AF78607B680C33FB60FB68EC
:1010300053E8003FBB60BB6843F02003FB617B6863
:101040000C33FA69BA617B617969BA6941E80023B6
:101050003B613B69002BE7D100BF00BF2437BD4691
:101060005DF8047B704780B489B000AF78607B681E
:101070000C33FB60FB6853E8003FBB60BB6843F088
:101080008003FB617B680C33FA69BA617B61796923
:10109000BA6941E800233B613B69002BE7D100BFFF
:1010A00000BF2437BD465DF8047B704780B489B02B
:1010B00000AF78607B680C33FB60FB6853E8003F4F
:1010C000BB60BB6823F08003FB617B680C33FA696B
:1010D000BA617B617969BA6941E800233B613B6988
:1010E000002BE7D100BF00BF2437BD465DF8047B6D
:1010F000704780B483B000AF78607B68DB6803F032
:101100008003802B0CBF01230023DBB218460C3771
:10111000BD465DF8047B704780B483B000AF786053
:101120000B46FB70FA787B685A6000BF0C37BD46EF
:101130005DF8047B704780B584B000AFF860B9609B
:101140003B601346FB71FB68BA681A60FB68FA796A
:101150001A71FB68BA8BDA80FB683A8C1A81FB68DB
:101160003A68DA60FB68BA695A61FB6800221A8241
:10117000FB6800225A82FB6800221A83FB68002267
:101180005A83FB68DB88002B06D0FB68DB680422EF
:101190000021184607F07CFCFB681B89002B06D059
:1011A000FB685B6904220021184607F071FCFB68AC
:1011B0001B681846FFF77AFFFB681B681846FFF7A5
:1011C0002FFF00BF1037BD4680BD80B582B000AF95
:1011D00078600B46FB70FB1C01221946786800F012
:1011E00017F800BF0837BD4680BD80B582B000AF9C
:1011F000786039603868FEF7F5FF03469BB21A46FF
:101200003968786800F004F800BF0837BD4680BD33
:1012100080B586B000AFF860B9601346FB8000234C
:10122000FB7553E0FB7DBA6813441B780A2B1ED173
:10123000FB6803F11200FB6803F11001FB68DB8817
:101240001A4600F08BFA0346002B45D1FB68DB6899
:10125000FA68128A92B213440D221A70FB6803F1E5
:101260001002FB68DB881946104600F0B0FAFB68F4
:1012700003F11200FB6803F11001FB68DB881A46DA
:1012800000F06CFA0346002B14D1FB7DBA681A44B7
:10129000FB68DB68F968098A89B20B4412781A7016
:1012A000FB6803F11002FB68DB881946104600F06A
:1012B0008EFA08E0FB68DB68FA68128A92B213447F
:1012C0000D221A7009E0FB7D0133FB75FB7D9BB29B
:1012D000FA889A42A6D800E000BFFB681B6818464F
:1012E000FFF707FF0346002B07D1F86800F08BFAE1
:1012F000FB681B681846FFF7B6FEFB7D9BB21846DD
:101300001837BD4680BD00000EB480B58DB000AF6B
:10131000786007F14003BB60E5E10023FB8502E054
:10132000FB8D0133FB85FB8DFA6B13441B78252B5A
:1013300005D0FB8DFA6B13441B78002BF0D1FB8D8D
:101340001A46F96B7868FFF763FFFB8DFA6B13445D
:10135000FB63FB6B1B78252B40F0C581FB6B0133D6
:10136000FB6300237B85202387F82530FB6B5A1C09
:10137000FA631B78253B532B00F2AE8101A252F891
:1013800023F000BFC9160008D9160008D9160008B6
:10139000D9160008D9160008D9160008D916000871
:1013A000D9160008D9160008D9160008D916000861
:1013B000D5140008D5140008D5140008D514000869
:1013C000D5140008D5140008D5140008D514000859
:1013D000D5140008D5140008D9160008D91600083D
:1013E000D9160008D9160008D9160008D916000821
:1013F000D9160008D9160008D9160008D916000811
:10140000D9160008D9160008D9160008D916000800
:10141000D9160008D9160008D9160008D9160008F0
:10142000D9160008D9160008D9160008D9160008E0
:10143000D9160008D9160008D9160008D9160008D0
:10144000D9160008D9160008D9160008D9160008C0
:10145000C9150008D9160008D9160008D9160008C1
:10146000D9160008D9160008D9160008D9160008A0
:10147000D9160008D9160008D91600080B1500085F
:1014800027150008D9160008D9160008D916000833
:10149000D916000827150008D9160008D916000823
:1014A000D9160008D9160008D9160008D916000860
:1014B000C9150008D9160008D916000857150008E4
:1014C000D9160008AF150008D9160008D91600086B
:1014D000C9150008FB6B013B1B78302B05D17B8DB8
:1014E000002B02D1302387F825307B8D1A469200DD
:1014F00013445B007B85FB6B013B1B781A467B8D9D
:1015000013449BB2303B7B8530E7BB681A1DBA6041
:101510001B689BB2FB8307F11E0301221946786802
:10152000FFF776FEDFE0BB681A1DBA601B689BB24E
:10153000FB830023BB85FB8B1BB2002B06DAFB8BE6
:101540005B429BB2FB830123FB8401E00023FB840D
:101550000A233B8544E0BB681A1DBA601B683B62E6
:101560000023FB8502E0FB8D0133FB85FB8D3A6A8E
:1015700013441B78002BF6D1FB8D1A46396A786824
:10158000FFF746FE7A8DFB8D9A4240F2AB807A8D52
:10159000FB8DD31A7B8504E0012259497868FFF757
:1015A00037FE7B8D5A1E7A85002BF5D19AE0BB68F9
:1015B0001A1DBA601B689BB2FB830023BB850A23FC
:1015C0003B850023FB840BE0BB681A1DBA601B68D7
:1015D0009BB2FB830023BB8510233B850023FB8448
:1015E0000123FB8507E0FA8D3B8D12FB03F3FB859E
:1015F0007B8D013B7B85FB8D3A8D02FB03F3FA8BE0
:101600009342F0DDFB8C002B02D07B8D013B7B8570
:10161000FB8C002B0DD097F82530302B09D1BB8DDA
:101620005A1CBA8530333B442D2203F8242C002366
:10163000FB847B8D012B15D97B8D0F2B12D87B8DD5
:10164000013B7B850BE0BB8D5A1CBA8530333B4494
:1016500097F8252003F8242C7B8D013B7B857B8D1F
:10166000002BF0D1FB8C002B23D0BB8D5A1CBA85EC
:1016700030333B442D2203F8242C1AE02148FA8B06
:10168000FB8DB2FBF3F39BB21A463B8D92FBF3F159
:1016900001FB03F3D31AC218BB8D591CB98512780C
:1016A00030333B4403F8242CFA8D3B8DB2FBF3F32B
:1016B000FB85FB8D002BE1D1BA8D07F10C03194698
:1016C0007868FFF7A5FD0EE0FB6B013B0122194690
:1016D0007868FFF79DFD06E005220B497868FFF763
:1016E00097FD00E000BFFB6B1B78002B7FF415AE6D
:1016F00000BF00BF3437BD46BDE8804003B070472F
:1017000058940008449400085C94000880B584B0A4
:1017100000AF78607B6803F11A027B6818331946C2
:10172000104600F03CF80346002B01D0002311E0E6
:101730007B685B697A68528B92B213441B78FB73A7
:101740007B6803F11A027B681B891946104600F07A
:101750003EF8FB7B18461037BD4680BD80B487B08D
:1017600000AFF860B9601346FB80BB681B88FB8242
:10177000FB681B88BB82FB8A0133FA8893FBF2F17A
:1017800001FB02F29A1ABB8A9A420CBF0123002382
:10179000DBB218461C37BD465DF8047B704780B449
:1017A00085B000AF786039603B681B88FB817B683F
:1017B0001B88BB81BA89FB899A420CBF0123002395
:1017C000DBB218461437BD465DF8047B704780B421
:1017D00083B000AF78600B467B807B681B889BB230
:1017E00001337A8893FBF2F101FB02F29B1A9AB261
:1017F0007B681A807B681B889BB218460C37BD46F5
:101800005DF8047B704780B582B000AF78607B687C
:1018100003F112027B68103319461046FFF7BFFF31
:101820000346002B20D17B6893F904301846FFF75C
:10183000D3FB7B6818687B68DB687A68528A92B24F
:1018400013441B781946FFF767FC7B6803F112020B
:101850007B68DB8819461046FFF7B9FF7B6893F970
:1018600004301846FFF79AFB00BF0837BD4680BD1D
:1018700080B586B000AF786039600123FB73002328
:101880003B617B687B611FE07B691B78202B05D166
:101890007B6900221A700123FB7312E0FB7B002B93
:1018A0000FD03B69072B0AD820493B697A6941F878
:1018B00023203B6901333B610023FB7301E00223DA
:1018C00030E07B6901337B617B691B78002BDBD1C6
:1018D0003B69002B25D015493B693A6841F8232024
:1018E0003B6901333B61124BBB6016E00F4B1A683A
:1018F000BB681B6819461046FEF76AFC0346002BBE
:1019000008D1BB685B683A690849104698470346A6
:10191000DBB207E0BB680C33BB60BB681B68002B05
:10192000E4D1012318461837BD4680BD4424002069
:101930001800002080B483B000AF78607B681B681B
:1019400003F02003202B0CBF01230023DBB2184639
:101950000C37BD465DF8047B704780B483B000AFA0
:1019600078607B681B6803F08003802B0CBF012329
:101970000023DBB218460C37BD465DF8047B704788
:1019800080B489B000AF78607B680C33FB60FB6883
:1019900053E8003FBB60BB6823F08003FB617B68BA
:1019A0000C33FA69BA617B617969BA6941E800234D
:1019B0003B613B69002BE7D100BF00BF2437BD4628
:1019C0005DF8047B704780B483B000AF78607B68BB
:1019D0005B68DBB218460C37BD465DF8047B704788
:1019E00080B483B000AF786039607B683A689A61F0
:1019F00000BF0C37BD465DF8047B704780B483B0F0
:101A000000AF786039603B681A047B689A6100BF58
:101A10000C37BD465DF8047B7047000080B584B08C
:101A200004AF4023029340230193134B0093134BC5
:101A3000272213491348FFF77EFB134B134A5A60C2
:101A4000114B40221A80104B00221A810E4B1B882A
:101A5000002B06D00C4B5B6804220021184607F0CF
:101A600017F80B490748FFF7C0FB0A490548FFF77D
:101A7000BCFB00BFBD4680BDC824002088240020D8
:101A8000004800406824002008250020142500207C
:101A9000249900083C99000880B582B000AF322339
:101AA000FB718DE04F48FFF731FE03461A464E4B5F
:101AB0009A724D4B9B7ADBB2082B04D04A4B9B7A2F
:101AC000DBB27F2B14D1484B1B899BB2002B00F05B
:101AD0008380454B1B899BB2013B9AB2424B1A81D2
:101AE000414B9B7ADBB219463E48FFF76EFB74E030
:101AF0003D4B9B7ADBB219463A48FFF766FB3A4BFF
:101B00009B7ADBB20D2B04D0374B9B7ADBB20A2BCE
:101B100034D1354B1B899BB2002B2AD0324B5B68EA
:101B2000314A128992B2134400221A702E4B1B893B
:101B30009BB201339AB22C4B1A812B4B5B682B4919
:101B40001846FFF795FE0346BB71274B00221A810A
:101B500027492448FFF749FBBB79264A52F823302E
:101B600019462048FFF7D0FB21491E48FFF73DFBEF
:101B700023E01F491B48FFF738FB1EE01A4B5B6848
:101B8000194A128992B21344174A927AD2B21A7041
:101B9000154B1B899BB201339AB2134B1A81124B1E
:101BA0001B899AB2104B1B889A4206D912490D48DC
:101BB000FFF71BFB0C4B00221A81FB79013BFB71E9
:101BC0000E490F48FFF7EBFD0346002B05D1FB79CB
:101BD000002B7FF467AF00E000BF00BF0837BD46B1
:101BE00080BD00BF68240020082500200048004078
:101BF0003C99000800000020409900088024002043
:101C00008224002080B584B000AF786039600F4B2B
:101C1000FB6012E0FB681B6819460D48FFF7E5FA08
:101C2000FB689B6819460A48FFF7DFFA094908482C
:101C3000FFF7DBFAFB680C33FB60FB681B68002BCB
:101C4000E8D1002318461037BD4680BD180000209B
:101C5000682400205499000880B582B000AF7860F5
:101C600039607B68012B01DC032319E07B68022BC0
:101C700001DD022314E03B6804331B68184606F0BC
:101C80004BFE0346002B05D04FF400510648FFF7EA
:101C9000A7FE04E04FF400510348FFF7AFFE002316
:101CA00018460837BD4680BD0008024080B582B0A6
:101CB00000AF786039607B68012B01DC032319E0F9
:101CC0007B68022B01DD022314E03B6804331B68B0
:101CD000184606F021FE0346002B05D04FF40041C4
:101CE0000648FFF77DFE04E04FF400410348FFF78C
:101CF00085FE002318460837BD4680BD000402401B
:101D000080B582B000AF786039607B68012B01DC60
:101D1000032319E07B68022B01DD022314E03B68FA
:101D200004331B68184606F0F7FD0346002B05D068
:101D30004FF480710648FFF753FE04E04FF48071C2
:101D40000348FFF75BFE002318460837BD4680BDF9
:101D50000010024080B584B000AF786039607B68C5
:101D6000042B01DC032359E07B68052B01DD0223F2
:101D700054E03B6804331B68184606F0CDFD03466B
:101D8000FB813B6808331B68184606F0C5FD034617
:101D9000BB813B680C331B68184606F0BDFD03464B
:101DA0007B813B6810331B68184606F0B5FD03467F
:101DB0003B81B7F90E301946002004F0C1FAB7F99B
:101DC0000C301946012004F0BBFAB7F90A30194665
:101DD000022004F0B5FAB7F908301946032004F0E0
:101DE000AFFAB7F90E3000220E490F48FFF78CFA10
:101DF000B7F90C3001220B490B48FFF785FAB7F908
:101E00000A30022207490848FFF77EFAB7F908307E
:101E1000032204490448FFF777FA002318461037D5
:101E2000BD4680BD589900086824002080B584B064
:101E300000AF786039607B68012B01DD022338E058
:101E400001F0C6FB0346BB81B7F90C3047F6FF72C1
:101E5000934204D119491A48FFF7C7F906E0B7F9C8
:101E60000C301A4617491648FFF74EFA0023FB7349
:101E70001BE0FB7B144A32F81330BB81B7F90C30FE
:101E800047F6FF72934206D1FB7B1A460F490C4876
:101E9000FFF73AFA06E0FA7BB7F90C300C4908482C
:101EA000FFF732FAFB7B0133FB73FB7B032BE0D99B
:101EB000002318461037BD4680BD00BF6C9900084E
:101EC00068240020809900082827002094990008A1
:101ED000A899000880B584B000AF786039607B684D
:101EE000012B01DD022318E00023BB810023FB73DB
:101EF0000FE0FB7B184604F039FA0346BB81FA7BFE
:101F0000B7F90C3007490848FFF7FEF9FB7B0133AE
:101F1000FB73FB7B032BECD9002318461037BD461F
:101F200080BD00BFB89900086824002080B586B045
:101F300000AF786039600023FB7525E0FB7D01333D
:101F40009B003A6813441B68184606F0E5FC0246FD
:101F5000FB7D92B25B0018333B4423F80C2CFB7DD5
:101F60005B0018333B4433F80C3C40F6B8329342E4
:101F700007D9FB7D5B0018333B4440F6B83223F8A9
:101F80000C2CFB7D0133FB75FB7D032BD6D9BB8964
:101F90001946002004F00EFAFB891946012004F0CE
:101FA00009FA3B8A1946022004F004FA7B8A194692
:101FB000032004F0FFF9BB8900220D490D48FFF70B
:101FC000A3F9FB8901220A490A48FFF79DF93B8AD8
:101FD000022207490748FFF797F97B8A0322044941
:101FE0000448FFF791F9002318461837BD4680BD15
:101FF000CC9900086824002080B584B000AF7860D8
:1020000039607B68012B01DD02232CE0002004F005
:10201000F1F90346FB81012004F0ECF90346BB8192
:10202000022004F0E7F903467B81032004F0E2F983
:1020300003463B81FB8900220D490E48FFF764F9F6
:10204000BB8901220A490B48FFF75EF97B8902220E
:1020500007490848FFF758F93B8903220449054816
:10206000FFF752F9002318461037BD4680BD00BF68
:10207000CC9900086824002080B584B000AF786057
:1020800039607B68042B01DC032357E07B68052B58
:1020900001DD022352E00023FB731FE0FB7B0133D1
:1020A0009B003A6813441B68184606F035FC02464C
:1020B000FB7BD2B210333B4403F8082CFB7B10337C
:1020C0003B4413F8083C642B05D9FB7B10333B449D
:1020D000642203F8082CFB7B0133FB73FB7B032B8F
:1020E000DCD93B7A1946002004F0A0F97B7A194626
:1020F000012004F09BF9BB7A1946022004F096F9FE
:10210000FB7A1946032004F091F93B7A00220D492D
:102110000D48FFF7F9F87B7A01220A490A48FFF7D0
:10212000F3F8BB7A022207490748FFF7EDF8FB7A7C
:10213000032204490448FFF7E7F800231846103744
:10214000BD4680BDE49900086824002080B584B0B5
:1021500000AF786039607B68012B01DD02232CE041
:10216000002004F087F90346FB81012004F082F986
:102170000346BB81022004F07DF903467B810320E6
:1021800004F078F903463B81FB8900220D490E4893
:10219000FFF7BAF8BB8901220A490B48FFF7B4F8E8
:1021A0007B89022207490848FFF7AEF83B890322E2
:1021B00004490548FFF7A8F8002318461037BD4624
:1021C00080BD00BFE49900086824002080B584B079
:1021D00000AF786039600023FB730023BB730023DA
:1021E0007B7300233B733B6804331B683B491846F1
:1021F000FDF7EEFF0346002B02D10123FB730EE037
:102200003B6804331B6836491846FDF7E1FF034677
:10221000002B02D10223FB7301E00023FB733B6818
:1022200008331B682D491846FDF7D2FF0346002BE3
:1022300002D10123BB730EE03B6808331B682849B9
:102240001846FDF7C5FF0346002B02D10223BB73DE
:1022500001E00023BB733B680C331B681F49184621
:10226000FDF7B6FF0346002B02D10123BB730EE03E
:102270003B680C331B681A491846FDF7A9FF034653
:10228000002B02D102237B7301E000237B733B68A8
:1022900010331B6811491846FDF79AFF0346002BBF
:1022A00002D101233B730EE03B6810331B680C49DD
:1022B0001846FDF78DFF0346002B02D102233B7326
:1022C00001E000233B733B7B7A7BB97BF87B04F016
:1022D00023F9002318461037BD4680BDFC9900083D
:1022E000009A000880B584B000AF786039607B68E0
:1022F000042B01DC03233FE07B68052B01DD022377
:102300003AE03B6804331B68184606F005FB0346B9
:10231000002B14BF01230023DBB2FB733B6808339F
:102320001B68184606F0F8FA0346002B14BF012379
:102330000023DBB2BB733B680C331B68184606F006
:10234000EBFA0346002B14BF01230023DBB27B739F
:102350003B6810331B68184606F0DEFA0346002B74
:1023600014BF01230023DBB23B733B7B7A7BB97B39
:10237000F87B04F09FF8002318461037BD4680BD57
:1023800080B584B000AF786039607B68042B01DCD5
:10239000032387E07B68052B01DD022382E0002315
:1023A000FB731FE0FB7B01339B003A6813441B68FF
:1023B000184606F0B1FA0246FB7BD2B210333B441A
:1023C00003F8082CFB7B10333B4413F8083C642BC8
:1023D00005D9FB7B10333B44642203F8082CFB7BBC
:1023E0000133FB73FB7B032BDCD93B7A1A4642F2A9
:1023F0000F7302FB03F32D4A82FB03125211DB170A
:10240000D31A9BB21946002001F0AEF97B7A1A4626
:1024100042F20F7302FB03F3244A82FB03125211B0
:10242000DB17D31A9BB21946012001F09DF9BB7A44
:102430001A4642F20F7302FB03F31C4A82FB03129B
:102440005211DB17D31A9BB21946022001F08CF906
:10245000FB7A1A4642F20F7302FB03F3134A82FB24
:1024600003125211DB17D31A9BB21946032001F055
:102470007BF93B7A00220E490E48FEF745FF7B7A36
:1024800001220B490B48FEF73FFFBB7A02220849A5
:102490000848FEF739FFFB7A032205490548FEF795
:1024A00033FF002318461037BD4680BD1F85EB5112
:1024B000049A00086824002080B584B000AF7860DA
:1024C00039607B68012B01DD022350E0002001F020
:1024D00097F90346FB81012001F092F90346BB8185
:1024E000022001F08DF903467B81032001F088F979
:1024F00003463B81FB89642202FB03F31E4A82FBF5
:1025000003121212DB17D31A00221C491C48FEF7D3
:10251000FBFEBB89642202FB03F3174A82FB031212
:102520001212DB17D31A012214491548FEF7ECFEEC
:102530007B89642202FB03F30F4A82FB031212120F
:10254000DB17D31A02220D490D48FEF7DDFE3B8949
:10255000642202FB03F3084A82FB03121212DB1708
:10256000D31A032205490648FEF7CEFE002318467B
:102570001037BD4680BD00BFAFE38D06E49900086B
:102580006824002080B483B000AF786039600023F5
:1025900018460C37BD465DF8047B704780B483B0A5
:1025A00000AF78603960002318460C37BD465DF8EF
:1025B000047B704780B582B000AF78603960044911
:1025C0000448FEF712FE002318460837BD4680BDBA
:1025D0001C9A00086824002080B582B000AF7860A3
:1025E000396001F059FB002318460837BD4680BD0D
:1025F00080B582B000AF7860396020210548FFF7D0
:10260000EFF9012001F028FB002318460837BD46EA
:1026100080BD00BF0010024080B582B000AF78607E
:102620003960002001F018FB002318460837BD462A
:1026300080BD80B582B000AF786039600021012094
:1026400001F0BCFA002318460837BD4680BD0000E3
:1026500080B584B000AF7860396007F10C0319468B
:10266000002001F075FAFB681A0CFB68304931480C
:10267000FEF74AFE07F10C031946012001F068FA43
:10268000FB681A0CFB682C492A48FEF73DFE07F14F
:102690000C031946022001F05BFAFB681A0CFB6878
:1026A00026492448FEF730FE07F10C0319460320A3
:1026B00001F04EFAFB681A0CFB6821491D48FEF731
:1026C00023FE07F10C031946042001F041FAFB68D0
:1026D0001A0CFB681B491748FEF716FE07F10C039E
:1026E0001946052001F034FAFB681A4616491148CC
:1026F000FEF70AFE07F10C031946062001F028FA3E
:10270000FB681A4611490B48FEF7FEFD07F10C0362
:102710001946072001F01CFAFB681A460C490548C7
:10272000FEF7F2FD002318461037BD4680BD00BFFE
:10273000289A000868240020409A0008589A000847
:10274000749A0008909A0008A49A0008BC9A00089D
:10275000D49A000880B582B000AF7860396001F08B
:102760002DFB002318460837BD4680BD2DE9B04F2C
:1027700088B000AF786139613B6904331B68184643
:1027800006F0CAF80346DA179A469346C7E906AB3D
:10279000D7E9062325492648FEF7B6FDD7E9060105
:1027A00002460B464FF0000A4FF0000B4FEA431B66
:1027B0004BEAD26B4FEA421A52465B46141A63EB5D
:1027C00001054FF000024FF000036B0243EAD453BF
:1027D000620214461D4614EB000845EB01094FF058
:1027E00000024FF000034FEA891343EA98634FEA6F
:1027F0008812B2EB0804BC6063EB0903FB60D7E905
:10280000024523461B183B602B4641EB03037B60CC
:10281000D7E90034C7E90634D7E9060101F07EFBA9
:10282000002318462037BD46BDE8B08FE89A00085F
:102830006824002080B584B000AF7860396007F16B
:102840000E03184601F04AFAFB891A460449054866
:10285000FEF75AFD002318461037BD4680BD00BF65
:10286000FC9A00086824002080B584B000AF78602E
:1028700039603B6804331B68184606F04DF8034680
:10288000FB73FB7B1A4606490648FEF73DFDFB7BC2
:10289000184601F061FA002318461037BD4680BD86
:1028A0000C9B00086824002080B584B000AF7860DD
:1028B00039603B6804331B68184606F02DF8034660
:1028C000FB73FB7B1A4606490648FEF71DFDFB7BA2
:1028D000184601F05AFA002318461037BD4680BD4D
:1028E0001C9B00086824002080B500AF0249034803
:1028F00005F036FC00BF80BD780100207401002087
:1029000080B500AF2E4B1B681846FFF726F803462C
:10291000012B0FD12B492C48FEF741FF0346002B1A
:1029200005D0274B1B681846FFF72AF802E0244819
:10293000FEF769FF224B1B681846FEF7FBFF0346B4
:10294000012B3BD11E4B1B681846FFF73CF8034692
:102950001A461B4B1A771A4B1B891A461B491C48EF
:10296000FEF7FCFE0346002B28D1154B1B7FDBB284
:102970000A2B23D0124B1B7FDBB20D2B0ED1104B39
:102980005B690F4A128B92B213440A221A700C4BE5
:102990001B8919460D48FEF71AFF0FE0084B5B69CB
:1029A000074A128B92B21344054A127FD2B21A70B0
:1029B000034B1B8919460548FEF709FF00BF80BD80
:1029C00068240020782400207A240020802400201D
:1029D0008224002080B483B000AF78607B681B68DD
:1029E00003F02003202B0CBF01230023DBB2184689
:1029F0000C37BD465DF8047B704780B483B000AFF0
:102A000078607B681B6803F08003802B0CBF012378
:102A10000023DBB218460C37BD465DF8047B7047D7
:102A200080B489B000AF78607B680C33FB60FB68D2
:102A300053E8003FBB60BB6823F08003FB617B6809
:102A40000C33FA69BA617B617969BA6941E800239C
:102A50003B613B69002BE7D100BF00BF2437BD4677
:102A60005DF8047B704780B483B000AF78607B680A
:102A70005B68DBB218460C37BD465DF8047B7047D7
:102A800080B483B000AF786039607B683A689A613F
:102A900000BF0C37BD465DF8047B704780B483B03F
:102AA00000AF786039603B681A047B689A6100BFA8
:102AB0000C37BD465DF8047B7047000080B584B0DC
:102AC00004AF4023029340230193074B0093074B2D
:102AD000262207490748FEF72EFB022005F0B0FC2E
:102AE00000BFBD4680BD00BFB42500207425002076
:102AF000004400405425002080B500AF024903483F
:102B000005F02EFB00BF80BD8C0100208801002055
:102B100080B582B000AF92E04F48FEF7F7FD034664
:102B2000FB714E4B1B78DBB2002B0AD1FB79CA2B11
:102B300040F08580494B01221A70494B00221A70DF
:102B40007DE0FB79EF2B47D1444B00221A70444BB8
:102B50001B78DBB2434A1946434805F047FE03465B
:102B6000042B63D801A252F823F000BF812B000888
:102B70008B2B00089B2B0008A52B0008BF2B0008FF
:102B80003A493B48FEF731FB51E03A493848FEF7F5
:102B90002CFB344800F07CF849E037493448FEF714
:102BA00024FB44E035493248FEF71FFB2C4B1B78D1
:102BB000DBB21A462C492E48FEF72AFB37E0304993
:102BC0002B48FEF712FB264B1B78DBB21A46264930
:102BD0002748FEF71DFB2AE0FB79BD2B03D1294BCB
:102BE00001221A7034E0274B1B78DBB2002B11D086
:102BF000244B00221A70FB79DC2B01D1CA23FB7114
:102C0000FB79DB2B01D1BD23FB71FB79DE2B01D1DD
:102C1000EF23FB71124B1B78DBB25A1CD1B2104A66
:102C200011701946104AFB79535400E000BF0C4B59
:102C30001B78DBB2422B02D9084B00221A701249D2
:102C40001248FEF7ACFD0346002B3FF465AF00BF12
:102C500000BF0837BD4680BD54250020B0260020A7
:102C6000B1260020F425002090260020089C0008B2
:102C700068240020209C0008349C0008489C000820
:102C8000609C00088C2600206C2500206E2500200A
:102C900080B582B000AF7860324B1A68324B1B6847
:102CA00012781A702F4B1B681B780E2B24DC002B1C
:102CB00052DD013B0D2B4FD801A252F823F000BF8B
:102CC000FF2C0008052D00080B2D0008112D000811
:102CD000172D00081D2D0008232D0008292D0008A0
:102CE0002F2D0008352D00083B2D0008412D000830
:102CF000472D00084D2D0008FF2B2AD02CE000F0B6
:102D000065F82AE000F086F827E000F0A7F824E054
:102D100000F0C8F821E000F015F91EE000F090F98D
:102D20001BE000F00BFA18E000F058FA15E000F094
:102D3000D3FA12E000F014FB0FE000F06DFB0CE0A2
:102D400000F0ACFB09E000F0DFFB06E000F0E3FB85
:102D500003E000F0E7FB00E000BF00BF0837BD461E
:102D600080BD00BF842600208826002080B586B064
:102D700002AF3B460F220021184605F089FE104B9A
:102D80001B681B783B7039460E4B01930023009360
:102D900001230122002005F069FB07F10F023B46E9
:102DA0001946084805F0ECFBFB7B1A463B461946E2
:102DB0000548FEF72DFA00BF1037BD4680BD00BFA5
:102DC000842600203C2600205425002080B582B0B7
:102DD00000AF0E4B1B685B78002B14BF0123002350
:102DE000DBB2FB71FB79002B05D04FF40051084892
:102DF000FFF746FE04E04FF400510548FFF74EFE92
:102E0000FFF7B4FF00BF0837BD4680BD8426002011
:102E10000008024080B582B000AF0E4B1B685B78A3
:102E2000002B14BF01230023DBB2FB71FB79002BC5
:102E300005D04FF400410848FFF722FE04E04FF4AC
:102E400000410548FFF72AFEFFF790FF00BF083753
:102E5000BD4680BD842600200004024080B582B0BB
:102E600000AF0E4B1B685B78002B14BF01230023BF
:102E7000DBB2FB71FB79002B05D04FF48071084861
:102E8000FFF7FEFD04E04FF480710548FFF706FEF2
:102E9000FFF76CFF00BF0837BD4680BD84260020C9
:102EA0000010024080B582B000AF254B1B685B78F4
:102EB0001B021AB2224B1B689B781BB21343FB8088
:102EC0001F4B1B68DB781B021AB21D4B1B681B795A
:102ED0001BB21343BB801A4B1B685B791B021AB2EF
:102EE000174B1B689B791BB213437B80144B1B68E9
:102EF000DB791B021AB2124B1B681B7A1BB21343FD
:102F00003B80FB88DBB20021184603F019FABB882E
:102F1000DBB20121184603F013FA7B88DBB20221F1
:102F2000184603F00DFA3B88DBB20321184603F084
:102F300007FAFFF71BFF00BF0837BD4680BD00BF83
:102F40008426002080B596B002AF002003F00EFA70
:102F50000346A7F84E30012003F008FA0346A7F80D
:102F60004C30022003F002FA0346A7F84A3003204F
:102F700003F0FCF90346A7F848302D4B1A682D4B97
:102F80001B6812781A70B7F94E301B121AB2294B0F
:102F90001B68D2B25A70274B1B68B7F84E20D2B2CA
:102FA0009A70B7F94C301B121AB2224B1B68D2B27E
:102FB000DA70204B1B68B7F84C20D2B21A71B7F9FF
:102FC0004A301B121AB21B4B1B68D2B25A71194BF2
:102FD0001B68B7F84A20D2B29A71B7F948301B1271
:102FE0001AB2144B1B68D2B2DA71124B1B68B7F8D5
:102FF0004820D2B21A720F4B1B6819460E4B019330
:103000000723009301230922002005F059FAFA1C36
:103010003B1D1946084805F0B3FAFB781A463B1DDC
:1030200019460648FEF7F4F800BF5037BD4680BD8C
:1030300084260020882600203C26002054250020DD
:1030400080B596B002AF002003F0A2F90346A7F8BE
:103050004E30012003F09CF90346A7F84C300220C3
:1030600003F096F90346A7F84A30032003F090F9DD
:103070000346A7F848302D4B1A682D4B1B68127871
:103080001A70B7F94E301B121AB2294B1B68D2B214
:103090005A70274B1B68B7F84E20D2B29A70B7F916
:1030A0004C301B121AB2224B1B68D2B2DA70204B82
:1030B0001B68B7F84C20D2B21A71B7F94A301B120C
:1030C0001AB21B4B1B68D2B25A71194B1B68B7F866
:1030D0004A20D2B29A71B7F948301B121AB2144B77
:1030E0001B68D2B2DA71124B1B68B7F84820D2B213
:1030F0001A720F4B1B6819460E4B0193072300935E
:1031000001230922002005F0DBF9FA1C3B1D1946BA
:10311000084805F035FAFB781A463B1D1946064863
:10312000FEF776F800BF5037BD4680BD84260020EC
:10313000882600203C2600205425002080B582B03F
:1031400000AF254B1B685B781B021AB2224B1B6831
:103150009B781BB213431BB2FB801F4B1B68DB78B1
:103160001B021AB21C4B1B681B791BB213431BB208
:10317000BB80194B1B685B791B021AB2164B1B688C
:103180009B791BB213431BB27B80134B1B68DB790B
:103190001B021AB2104B1B681B7A1BB213431BB2E3
:1031A0003B80FB881946002003F004F9BB881946D0
:1031B000012003F0FFF87B881946022003F0FAF89B
:1031C0003B881946032003F0F5F8FFF7CFFD00BF59
:1031D0000837BD4680BD00BF8426002080B596B06C
:1031E00002AF002003F006F90346A7F84E30012095
:1031F00003F000F90346A7F84C30022003F0FAF878
:103200000346A7F84A30032003F0F4F80346A7F872
:1032100048302D4B1A682D4B1B6812781A70B7F87E
:103220004E301B0A9AB2294B1B68D2B25A70274BF8
:103230001B68B7F84E20D2B29A70B7F84C301B0A10
:103240009AB2224B1B68D2B2DA70204B1B68B7F8D7
:103250004C20D2B21A71B7F84A301B0A9AB21B4BF3
:103260001B68D2B25A71194B1B68B7F84A20D2B208
:103270009A71B7F848301B0A9AB2144B1B68D2B245
:10328000DA71124B1B68B7F84820D2B21A720F4B92
:103290001B6819460E4B0193072300930123092253
:1032A000002005F00DF9FA1C3B1D1946084805F0F1
:1032B00067F9FB781A463B1D19460648FDF7A8FF3B
:1032C00000BF5037BD4680BD8426002088260020E0
:1032D0003C2600205425002080B582B000AF1F4B53
:1032E0001B685B78FB71FB79642B01D96423FB714C
:1032F0001A4B1B689B78BB71BB79642B01D9642383
:10330000BB71164B1B68DB787B717B79642B01D911
:1033100064237B71114B1B681B793B713B79642BD8
:1033200001D964233B71FB791946002003F07EF834
:10333000BB791946012003F079F87B791946022000
:1033400003F074F83B791946032003F06FF8FFF798
:103350000DFD00BF0837BD4680BD00BF842600209C
:1033600080B596B002AF002003F084F8034687F8DA
:103370004F30012003F07EF8034687F84E300220DC
:1033800003F078F8034687F84D30032003F072F815
:10339000034687F84C301C4B1A681C4B1B6812788C
:1033A0001A701A4B1B6897F84F205A70174B1B68FE
:1033B00097F84E209A70154B1B6897F84D20DA70DD
:1033C000124B1B6897F84C201A71104B1B6819465A
:1033D0000F4B01930723009301230522002005F0E2
:1033E0006FF8FA1D07F108031946094805F0C8F8F7
:1033F000FB791A4607F1080319460648FDF708FF4E
:1034000000BF5037BD4680BD84260020882600209E
:103410003C2600205425002080B582B000AF1E4B12
:103420001B685B78FB71FB79012B04D0FB79022BC5
:1034300001D00023FB71184B1B689B78BB71BB79D3
:10344000012B04D0BB79022B01D00023BB71124B9E
:103450001B68DB787B717B79012B04D07B79022B95
:1034600001D000237B710C4B1B681B793B713B79AE
:10347000012B04D03B79022B01D000233B713B7917
:103480007A79B979F87903F047F8FFF76FFC00BF54
:103490000837BD4680BD00BF8426002080B582B0BD
:1034A00000AF184B1B685B78002B14BF012300236F
:1034B000DBB2FB71134B1B689B78002B14BF0123FD
:1034C0000023DBB2BB710F4B1B68DB78002B14BFF2
:1034D00001230023DBB27B710A4B1B681B79002B95
:1034E00014BF01230023DBB23B713B797A79B979B0
:1034F000F87902F0DFFFFFF739FC00BF0837BD465F
:1035000080BD00BF8426002080B400AF00BFBD4650
:103510005DF8047B704780B400AF00BFBD465DF826
:10352000047B704780B400AF00BFBD465DF8047BEC
:103530007047000080B500AF1F4B1B681846FFF7AF
:103540005CFA0346012B0FD11C491D48FEF727F9F1
:103550000346002B05D01B4B1B681846FFF760FA8B
:1035600002E01548FEF74FF9134B1B681846FFF7AA
:1035700031FA0346012B1DD10F4B1B681846FFF78C
:1035800072FA03461A460C4B1A770B4B1B891A46E4
:103590000D490E48FEF7E2F80346002B0AD1064B10
:1035A0005B69054A128B92B21344034A127FD2B26E
:1035B0001A7000BF00BF80BD542500206425002084
:1035C00066250020682400206C2500206E25002040
:1035D00080B400AF0C4B93F86030002B02D047F65C
:1035E000FF730BE0084BD3ED017AB2EE047A67EE7D
:1035F000877AFDEEE77A17EE903A1BB21846BD4681
:103600005DF8047B704700BFB426002080B483B00F
:1036100000AF786039607B683A685A6300BF0C3746
:10362000BD465DF8047B704780B483B000AF78601E
:1036300039607B683A689A6300BF0C37BD465DF815
:10364000047B704780B483B000AF786039607B68DA
:103650003A68DA6300BF0C37BD465DF8047B7047FB
:1036600080B483B000AF786039607B683A681A64D0
:1036700000BF0C37BD465DF8047B704780B582B053
:1036800000AF03460A46FB711346BB80BB8842F27B
:103690000F72934202D942F20F73BB80FB79032B66
:1036A00022D801A252F823F0B9360008C536000826
:1036B000D1360008DD360008BB8819460D48FFF7F3
:1036C000A5FF12E0BB8819460A48FFF7ADFF0CE0E2
:1036D000BB8819460748FFF7B5FF06E0BB881946C7
:1036E0000448FFF7BDFF00E000BF00BF0837BD463C
:1036F00080BD00BF0000014080B483B000AF78609F
:1037000039607B683A685A6300BF0C37BD465DF884
:10371000047B704780B483B000AF786039607B6809
:103720003A689A6300BF0C37BD465DF8047B70476A
:1037300080B483B000AF786039607B683A68DA6340
:1037400000BF0C37BD465DF8047B704780B483B082
:1037500000AF786039607B683A681A6400BF0C3744
:10376000BD465DF8047B704780B582B000AF03466C
:103770000A46FB711346BB80BB8842F20F7293422C
:1037800002D942F20F73BB80FB79032B2ED801A222
:1037900052F823F0A5370008B7370008C9370008EA
:1037A000DB370008144ABB881380BB8819461348CE
:1037B000FFF7A2FF1BE0104ABB885380BB88194665
:1037C0000E48FFF7A7FF12E00B4ABB889380BB8827
:1037D00019460A48FFF7ACFF09E0074ABB88D380C7
:1037E000BB8819460548FFF7B1FF00E000BF00BFE6
:1037F0000837BD4680BD00BF1827002000040040E8
:1038000080B483B000AF0346FB71FB79044A32F801
:10381000133018460C37BD465DF8047B704700BF77
:103820001827002080B483B000AF78607B689B6865
:1038300003F00103012B01D1012300E0002318460E
:103840000C37BD465DF8047B704780B483B000AF91
:1038500078607B680C331B78DBB218460C37BD46AA
:103860005DF8047B704780B485B000AF78600B468C
:10387000FB707B680C33FB60FB68FA781A7000BF42
:103880001437BD465DF8047B704780B483B000AF49
:10389000786039607B683A689A6100BF0C37BD4632
:1038A0005DF8047B704780B483B000AF7860396006
:1038B0003B681A047B689A6100BF0C37BD465DF80F
:1038C000047B704780B500AF4FF480710248FFF76A
:1038D000EAFF00BF80BD00BF0004024080B500AF1A
:1038E0004FF480710248FFF7D0FF00BF80BD00BFDA
:1038F0000004024080B582B000AF0346FB71FB7943
:1039000019460948FFF7AFFF00BF0748FFF78AFFD6
:103910000346002BF9D00448FFF797FF03461846EB
:103920000837BD4680BD00BF0030014080B584B07F
:1039300000AF78600B46FB700023FB73FFF7C2FFFC
:103940000023BB7310E0BB7B7A6813441B781846D6
:10395000FFF7D0FF0346FB73BB7B7A681344FA7B07
:103960001A70BB7B0133BB73BA7BFB789A42EAD3F4
:10397000FFF7B4FFFB7B18461037BD4680BD000043
:10398000B0B582B000AFC7E90001D7E900010E4D24
:1039900000242A1A64EB01034FF000004FF00001ED
:1039A000590641EAD211500605A3D3E90023FCF7DA
:1039B00077FC02460B46134618460837BD46B0BD95
:1039C00000F9029500000000807C814A2DE9B00FCB
:1039D00085B000AFF860F968C8170C4605461B496A
:1039E00001FB05F0002104FB01F101441748A4FB91
:1039F000002319440B4610461946002908DA6FF0D7
:103A00007E43C3183B6041F100037B60D7E90001AE
:103A10004FF000024FF00003420E42EAC1124B1673
:103A20000021D2F1000A61EB030B52465B460849C4
:103A300012EB010843F1000942464B461046194675
:103A40001437BD46BDE8B00F704700BF00F90295BE
:103A5000807C814A80B586B000AF78600023FB602F
:103A600000233B617B681B783B737B681B795B00A1
:103A7000DBB27B737B681B78F22B11D17B681A69F0
:103A800007F10C0302331946104600F0D8FA07F18B
:103A90000C030621184600F097FA0346BB7407E0B2
:103AA00007F10C030221184600F08EFA0346BB739F
:103AB0007B685A7807F10C0311461846FFF736FF6A
:103AC00007F10C03184600F0F8FA03469AB24FF0DB
:103AD000FF337B617B695B057B617B695B0D7B6190
:103AE0007B699BB213409AB27B68DA827B681B7851
:103AF000F22B06D1BA7B7B681A75FA7C7B685A7503
:103B000019E07B681B78F42B0FD107F10C0302330B
:103B1000184600F0B5FA02467B681A61BA7C7B68E9
:103B20001A75FA7C7B685A7505E0BA7B7B681A7552
:103B3000FA7B7B685A757B685B7DA52B02D04FF0C2
:103B4000FF3300E0002318461837BD4680BD000053
:103B500080B58AB000AF03463960FB71002387F857
:103B60002730144B1B883B813B89BB81FA79124972
:103B700013465B0013449B00CA1807F1100307CAE1
:103B800083E8070007F10C031846FFF763FF0346BD
:103B900087F8273097F92730002B02D097F9273084
:103BA00003E0FA693B681A60002318462837BD46CF
:103BB00080BD00BF749C0008A001002080B58AB0C1
:103BC00000AF03463960FB710E4B1B88BB81BB897C
:103BD0003B82FA790C4913465B0013449B00CA18D8
:103BE00007F1140307CA83E807003B683B6207F14B
:103BF00010031846FFF72EFF034618462837BD4628
:103C000080BD00BF789C0008A001002080B586B070
:103C100000AF0346B9607A60FB7307F11402FB7BC7
:103C200011461846FFF794FFBB68DA437B691340DF
:103C30007B617968B86800F070FA02467B691343CB
:103C40007B617A69FB7B11461846FFF7B7FF034695
:103C500018461837BD4680BD80B582B000AF034618
:103C6000FB71FB791A4601210020FFF7CFFF0346C5
:103C700018460837BD4680BD80B582B000AF034608
:103C8000FB71FB791A4602210020FFF7BFFF0346B4
:103C900018460837BD4680BD80B500AF01224FF4FD
:103CA00080410020FFF7B2FF0346184680BD80B573
:103CB00082B000AF4FF0FF337B607B689B067B6078
:103CC0007B685B0D7B607B68002219460120FFF753
:103CD0009DFF034618460837BD4680BD80B58AB0B3
:103CE00000AF7860114B1B883B813B89BB81104A38
:103CF00007F110030C3207CA83E8070007F10C0331
:103D00001846FFF7A7FE034687F8273097F92730B4
:103D1000002B02D097F9273003E07A8C7B681A8059
:103D2000002318462837BD4680BD00BF7C9C000894
:103D3000A001002080B584B000AF78604FF0FF3361
:103D4000FB60FB687A6819460420FFF75FFF0346B3
:103D500018461037BD4680BD80B584B000AF03461D
:103D6000FB714FF0FF33FB60FB681B07FB60FB68D8
:103D70001B0FFB60FB68FA7919460520FFF746FF29
:103D8000034618461037BD4680BD80B584B000AFED
:103D90000346FB714FF0FF33FB60FB681B07FB60C2
:103DA000FB681B0FFB60FB68FA7919460620FFF7DA
:103DB0002DFF034618461037BD4680BD2DE9F04F54
:103DC0008FB000AF002387F8363008215248FFF744
:103DD0006AFD20215048FFF766FDFFF75DFFFFF702
:103DE00066FF034687F8363008214B48FFF74DFD44
:103DF0000120FFF731FF034687F8363043F60121F3
:103E00000020FFF7DBFE034687F836304FF07F4097
:103E1000FFF790FF034687F8363000210120FFF7B7
:103E2000CDFE034687F83630012004F00DF943F645
:103E300001210020FFF7C2FE034687F836304FF01D
:103E40007F40FFF7C3FDC7E90A010020FFF7BEFD71
:103E5000C7E90801002387F8373045E0D7E90801B2
:103E6000D7E90A23841A61EB030597F8373000225B
:103E70009846914608FB05F204FB09F31344A4FBA2
:103E800008AB5B449B4652465B46002B06DAD11CCE
:103E9000B96043F10003FB60D7E902234FF0000053
:103EA0004FF00001900840EA83709910D7E90A2387
:103EB00016183E604B417B60D7E90023C7E9062313
:103EC000D7E90601FFF75CFD78617B691846FFF7CB
:103ED00031FF034687F83630012004F0B5F897F833
:103EE0003730013387F8373097F83730042BB5D99E
:103EF00020210948FFF7C9FC0120FFF7BDFE03465A
:103F000087F83630B420FCF7A7FB97F9363018460F
:103F10003C37BD46BDE8F08F000C02402DE9B043B0
:103F200088B000AFC7E900010021F9774FF0000029
:103F30004FF00001C7E904010021F960D7E9000151
:103F4000002905DA10F10F0241F10003104619466D
:103F50004FF000024FF00003020942EA01720B1118
:103F60000021D2F1000861EB030942464B460C499F
:103F7000541843F10005C7E90445D7E90401FFF7E8
:103F8000FFFCF860FB681846FFF7D4FE0346FB779A
:103F900097F91F3018462037BD46BDE8B08300BFF3
:103FA000807C814A80B487B000AF0146C7E9002316
:103FB0000B46FB730023FB7597F9173018461C3727
:103FC000BD465DF8047B704780B485B000AF786073
:103FD0000B46FB700023FB7307233B730023BB736B
:103FE00022E0BB7B7A6813441A78FB7B5340FB7357
:103FF00000237B7312E097F90F30002B08DAFB7B6C
:104000005B005AB297F90C3053405BB2FB7302E08D
:10401000FB7B5B00FB737B7B01337B737B7B072B21
:10402000E9D9BB7B0133BB73BA7BFB789A42D8D307
:10403000FB7B18461437BD465DF8047B704780B49F
:1040400083B000AF786039603B6803337A68D2B2DE
:104050001A707B681A0A3B680233D2B21A707B6806
:104060001A0C3B680133D2B21A707B681B0EDAB2AD
:104070003B681A7000BF0C37BD465DF8047B704783
:1040800080B483B000AF78607B6803331B781A4636
:104090007B6802331B781B0213431A467B6801338B
:1040A0001B781B041A437B681B781B0613431846B6
:1040B0000C37BD465DF8047B704780B483B000AF19
:1040C00078607B6801331B781A467B681B781B027B
:1040D000134318460C37BD465DF8047B704780B427
:1040E00085B000AF78600023FB600CE07B6803F0D4
:1040F0000103002B01D0FB6809E07B685B087B6053
:10410000FB680133FB607B68002BEFD1202318464E
:104110001437BD465DF8047B704780B582B000AFB0
:10412000786039607868FFF7DAFF02463B6803FA87
:1041300002F27B68134018460837BD4680BD80B444
:1041400083B000AF78607B689B6843F001027B68B6
:104150009A6000BF0C37BD465DF8047B704780B4A1
:1041600083B000AF78607B689B6803F00103012B8C
:104170000CBF01230023DBB218460C37BD465DF8A7
:10418000047B704780B483B000AF78607B689B6825
:1041900043F080427B689A6000BF0C37BD465DF8F3
:1041A000047B704780B483B000AF786039600C4AFC
:1041B0003B6813441B781A467B6813441B68084904
:1041C0003A680A44127811467A680A4443F00103B7
:1041D000136000BF0C37BD465DF8047B704700BF1D
:1041E000809C000880B485B000AFF860B9607A6048
:1041F0000D4ABB6813441B781A46FB6813441B68BE
:1042000023F0C0020849BB680B441B781946FB68C1
:104210000B4419467B6813430B6000BF1437BD463F
:104220005DF8047B704700BF809C000880B485B0B7
:1042300000AFF860B9607A600D4ABB6813441B7820
:104240001A46FB6813441B6823F490720849BB6844
:104250000B441B781946FB680B4419467B681343D3
:104260000B6000BF1437BD465DF8047B704700BF8C
:10427000809C000880B485B000AFF860B9607A60B7
:104280000D4ABB6813441B781A46FB6813441B682D
:1042900023F400720849BB680B441B781946FB687D
:1042A0000B4419467B6813430B6000BF1437BD46AF
:1042B0005DF8047B704700BF809C000880B485B027
:1042C00000AFF860B9607A600D4ABB6813441B7890
:1042D0001A46FB6813441B6823F480620849BB68D4
:1042E0000B441B781946FB680B4419467B68134343
:1042F0000B6000BF1437BD465DF8047B704700BFFC
:10430000809C000880B485B000AFF860B9607A6026
:104310000D4ABB6813441B781A46FB6813441B689C
:1043200023F4C0520849BB680B441B781946FB684C
:104330000B4419467B6813430B6000BF1437BD461E
:104340005DF8047B704700BF809C000880B485B096
:1043500000AFF860B9607A600D4ABB6813441B78FF
:104360001A46FB6813441B6823F4C0420849BB6823
:104370000B441B781946FB680B4419467B681343B2
:104380000B6000BF1437BD465DF8047B704700BF6B
:10439000809C000880B485B000AFF860B9607A6096
:1043A0000D4ABB6813441B781A46FB6813445B68CC
:1043B0001B0C1B040849BA680A4412781146FA68B3
:1043C0000A4411467A6813434B6000BF1437BD4658
:1043D0005DF8047B704700BF809C000880B485B006
:1043E00000AFF860B9607A600D4ABB6813441B786F
:1043F0001A46FB6813441B6823F060620849BB68D7
:104400000B441B781946FB680B4419467B68134321
:104410000B6000BF1437BD465DF8047B704700BFDA
:10442000809C000880B485B000AFF860B9607A6005
:10443000074ABB6813441B781A46FB6813441A46A4
:104440007B68D36000BF1437BD465DF8047B7047BE
:10445000809C000880B485B000AFF860B9607A60D5
:10446000074ABB6813441B781A46FB6813441A4674
:104470007B68936000BF1437BD465DF8047B7047CE
:10448000809C000880B500AF002200212348FFF780
:10449000A5FF002200212148FFF7A4FE00220021F1
:1044A0001E48FFF7E7FE4FF4806200211B48FFF72C
:1044B00005FF4FF4006200211848FFF723FF4FF477
:1044C000005200211548FFF741FF04220021134844
:1044D000FFF760FF124A00211048FFF7BBFF114BA6
:1044E0001A4600210D48FFF79DFF4FF4807200210E
:1044F0000A48FFF79BFE00210848FFF753FE0A48D1
:10450000FFF71DFE00BF0848FFF729FE0346002BFA
:10451000F9D00548FFF736FE00BF80BD00640240B9
:104520004C200140202700200020014080B485B0AD
:1045300000AF78600023FB7328E0FB7B184A32F859
:1045400013301946FB7B5B007A681344154A32F935
:1045500011201A80FB7B5B007A681344B3F90030AA
:1045600013F5FA7F08DBFB7B5B007A681344B3F931
:104570000030B3F5FA6F06DDFB7B5B007A6813440D
:1045800047F6FF721A80FB7B0133FB73FB7B032B27
:10459000D3D900BF00BF1437BD465DF8047B704718
:1045A000202700200002002080B483B000AF786094
:1045B00039607B683A689A6100BF0C37BD465DF888
:1045C000047B704780B483B000AF786039603B688B
:1045D0001A047B689A6100BF0C37BD465DF8047B06
:1045E0007047000080B500AF0A4A13786FF30003EC
:1045F0001370084A13786FF341031370054A137858
:104600006FF38703137000F0E1F800F0F7F800BFD4
:1046100080BD00BF3027002080B500AF0C4B1B7859
:10462000C3F38503DBB2022B0CD0022B0DDC002B75
:1046300002D0012B03D008E000F00CF806E000F0F7
:1046400051F803E000F070F800E000BF00BF80BD4B
:104650003027002080B500AF214B1B7803F0010309
:10466000DBB2002B20D01E4B1B7803F00203DBB221
:10467000002B19D0002003F05DFD0346002B2DD048
:10468000174A13786FF300031370154A13786FF30A
:104690004103137000F09AF800F0B0F84FF4FA718B
:1046A000002003F031FD19E0002003F043FD034634
:1046B000002B13D00A4A137843F001031370084A01
:1046C000137843F00203137000F074F800F08AF8D6
:1046D0004FF4FA71002003F017FDFFE700BF80BD23
:1046E0003027002080B500AF4FF480410D48FFF720
:1046F00069FF4FF400410B48FFF756FF4FF4FA7083
:1047000003F0A2FC4FF400410648FFF75BFF4FF4B3
:1047100080410448FFF748FF4FF4FA7003F094FC1F
:1047200000BF80BD000C024080B500AF204B1B785D
:1047300003F00103DBB2002B1FD01D4B1B7803F0ED
:104740000203DBB2002B18D0002003F0F3FC034679
:10475000002B2BD0164A13786FF300031370144A02
:1047600013786FF34103137000F030F800F046F84F
:104770003221002003F0C8FC18E0002003F0DAFC2E
:104780000346002B12D00A4A137843F0010313703A
:10479000074A137843F00203137000F00BF800F09F
:1047A00021F83221002003F0AFFCFFE700BF80BDFD
:1047B0003027002080B500AF4FF400410248FFF7DA
:1047C000F3FE00BF80BD00BF000C024080B500AF0B
:1047D0004FF400410248FFF7F5FE00BF80BD00BF67
:1047E000000C024080B500AF4FF480410248FFF753
:1047F000DBFE00BF80BD00BF000C024080B500AFF3
:104800004FF480410248FFF7DDFE00BF80BD00BFCE
:10481000000C024080B500AF0249034803F0A0FC41
:1048200000BF80BD042200200022002080B485B09B
:1048300000AF78607B6803F00703FB600C4BDB681C
:10484000BB60BA684FF6FF031340BB60FB681A02F7
:10485000BB68134343F0BF6343F40033BB60044AB7
:10486000BB68D36000BF1437BD465DF8047B70475A
:1048700000ED00E080B400AF044BDB681B0A03F0DE
:1048800007031846BD465DF8047B704700ED00E065
:1048900080B483B000AF0346FB7197F90730002B5B
:1048A0000BDBFB7903F01F02074997F907305B091F
:1048B000012000FA02F241F8232000BF0C37BD4668
:1048C0005DF8047B704700BF00E100E080B483B076
:1048D00000AF03463960FB7197F90730002B0ADB04
:1048E0003B68DAB20C4997F907301201D2B20B4497
:1048F00083F800230AE03B68DAB20849FB7903F049
:104900000F03043B1201D2B20B441A7600BF0C37DE
:10491000BD465DF8047B704700E100E000ED00E07B
:1049200080B489B000AFF860B9607A60FB6803F0CA
:104930000703FB61FB69C3F10703042B28BF0423B2
:10494000BB61FB690433062B02D9FB69033B00E022
:1049500000237B614FF0FF32BB6902FA03F3DA43B5
:10496000BB681A407B699A404FF0FF317B6901FABE
:1049700003F3D9437B680B40134318462437BD46E5
:104980005DF8047B704780B489B000AFF860B9600F
:104990007A60FB682C331946BB6803F440734FF40C
:1049A00040727A617A6992FAA2F23A613A69BA611E
:1049B000BA69002A01D1202203E0BA69B2FA82F270
:1049C000D2B2D3409B000B44FB61FB691A68BB6801
:1049D00003F01F031F2101FA03F3DB431A407B6836
:1049E00003F01F01BB6803F01F0301FA03F31A432E
:1049F000FB691A6000BF2437BD465DF8047B704731
:104A000080B483B000AF786039607B689B6823F422
:104A100080623B681A437B689A6000BF0C37BD46D2
:104A20005DF8047B704780B48FB000AFF860B96068
:104A30007A60FB680C331946BB6803F000734FF0D3
:104A400000727A617A6992FAA2F23A613A69BA61BD
:104A5000BA69002A01D1202203E0BA69B2FA82F2CF
:104A6000D2B2D3409B000B447B637B6B1A68BB685C
:104A700003F0F8734FF0F8713962396A91FAA1F1D5
:104A8000F961F9697962796A002901D1202103E08D
:104A9000796AB1FA81F1C9B2CB40072101FA03F377
:104AA000DB431A40BB6803F0F8734FF0F871F9620A
:104AB000F96A91FAA1F1B962B96A3963396B0029CF
:104AC00001D1202103E0396BB1FA81F1C9B2CB40A9
:104AD000796801FA03F31A437B6B1A6000BF3C3715
:104AE000BD465DF8047B704780B485B000AFF860C8
:104AF000B9607A600D4ABB6813441B781A46FB689C
:104B000013441B6823F0C0020849BB680B441B78A0
:104B10001946FB680B4419467B6813430B6000BFC2
:104B20001437BD465DF8047B704700BF889C0008C1
:104B300080B485B000AFF860B9607A600D4ABB6898
:104B400013441B781A46FB6813441B6823F49072C5
:104B50000849BB680B441B781946FB680B4419468F
:104B60007B6813430B6000BF1437BD465DF8047BC0
:104B7000704700BF889C000880B485B000AFF86023
:104B8000B9607A600D4ABB6813441B781A46FB680B
:104B900013441B6823F400720849BB680B441B785C
:104BA0001946FB680B4419467B6813430B6000BF32
:104BB0001437BD465DF8047B704700BF889C000831
:104BC00080B485B000AFF860B9607A600D4ABB6808
:104BD00013441B781A46FB6813441B6823F4806255
:104BE0000849BB680B441B781946FB680B441946FF
:104BF0007B6813430B6000BF1437BD465DF8047B30
:104C0000704700BF889C000880B485B000AFF86092
:104C1000B9607A600D4ABB6813441B781A46FB687A
:104C200013441B6823F4C0520849BB680B441B782B
:104C30001946FB680B4419467B6813430B6000BFA1
:104C40001437BD465DF8047B704700BF889C0008A0
:104C500080B485B000AFF860B9607A600D4ABB6877
:104C600013441B781A46FB6813441B6823F4C042A4
:104C70000849BB680B441B781946FB680B4419466E
:104C80007B6813430B6000BF1437BD465DF8047B9F
:104C9000704700BF889C000880B485B000AFF86002
:104CA000B9607A600D4ABB6813441B781A46FB68EA
:104CB00013441B6823F440320849BB680B441B783B
:104CC0001946FB680B4419467B6813430B6000BF11
:104CD0001437BD465DF8047B704700BF889C000810
:104CE00080B485B000AFF860B9607A600D4ABB68E7
:104CF00013441B781A46FB6813441B6823F0606258
:104D00000849BB680B441B781946FB680B441946DD
:104D10007B6813430B6000BF1437BD465DF8047B0E
:104D2000704700BF889C000880B483B000AF7860F3
:104D300039600C4A3B6813441B781A467B6813445D
:104D40005B6908493A680A44127811467A680A444D
:104D500023F00403536100BF0C37BD465DF8047BAC
:104D6000704700BF889C000880B483B000AF7860B3
:104D70007B681B6843F001027B681A6000BF0C3738
:104D8000BD465DF8047B704780B483B000AF7860A7
:104D90007B681B6823F080027B681A6000BF0C37B9
:104DA000BD465DF8047B704780B483B000AF786087
:104DB0007B681B6823F040027B681A6000BF0C37D9
:104DC000BD465DF8047B704780B483B000AF786067
:104DD00039607B68DB6823F0FE023B681A437B681E
:104DE000DA6000BF0C37BD465DF8047B704780B4C5
:104DF00083B000AF78607B68DB6823F001027B68DA
:104E0000DA6000BF0C37BD465DF8047B704780B4A4
:104E100083B000AF78607B685B6843F400727B68A6
:104E20005A6000BF0C37BD465DF8047B7047000038
:104E300080B400AF054B1B68044A43F48033136011
:104E400000BFBD465DF8047B704700BF00380240DC
:104E500080B400AF074B1B6803F40033B3F5003F89
:104E60000CBF01230023DBB21846BD465DF8047B6E
:104E7000704700BF0038024080B483B000AF786054
:104E8000064B9B6823F0030204497B6813438B6045
:104E900000BF0C37BD465DF8047B70470038024008
:104EA00080B400AF044B9B6803F00C031846BD466A
:104EB0005DF8047B704700BF0038024080B483B0C7
:104EC00000AF7860064B9B6823F0F00204497B68D2
:104ED00013438B6000BF0C37BD465DF8047B704701
:104EE0000038024080B483B000AF7860064B9B6806
:104EF00023F4E05204497B6813438B6000BF0C37F6
:104F0000BD465DF8047B70470038024080B483B032
:104F100000AF7860064B9B6823F4604204497B68CD
:104F200013438B6000BF0C37BD465DF8047B7047B0
:104F30000038024080B485B000AF7860084B1A6B2F
:104F400007497B6813430B63054B1A6B7B6813405F
:104F5000FB60FB6800BF1437BD465DF8047B7047FB
:104F60000038024080B485B000AF7860084B1A6CFE
:104F700007497B6813430B64054B1A6C7B6813402D
:104F8000FB60FB6800BF1437BD465DF8047B7047CB
:104F90000038024080B485B000AF7860084B5A6C8E
:104FA00007497B6813434B64054B5A6C7B6813407D
:104FB000FB60FB6800BF1437BD465DF8047B70479B
:104FC0000038024080B483B000AF7860064B1B68A5
:104FD00023F0070204497B6813430B6000BF0C37C2
:104FE000BD465DF8047B7047003C024080B400AFD2
:104FF000044B1B6803F007031846BD465DF8047BAD
:10500000704700BF003C024080B483B000AF7860BE
:10501000064B1B6823F4804204497B6813430B60F2
:1050200000BF0C37BD465DF8047B70470070004040
:1050300080B483B000AF78607B681B6843F04002A7
:105040007B681A6000BF0C37BD465DF8047B704773
:1050500080B483B000AF786039607B685B6823F010
:1050600010023B681A437B685A6000BF0C37BD468C
:105070005DF8047B704780B483B000AF78607B68D4
:105080001B6823F080027B681A6000BF0C37BD46A6
:105090005DF8047B7047000080B485B000AF786095
:1050A00039603B68012B1CD03B68042B17D03B6850
:1050B000102B12D03B68402B0DD03B68B3F5807F9E
:1050C00007D03B68B3F5806F01D105230AE00623C2
:1050D00008E0042306E0032304E0022302E00123A6
:1050E00000E00023FB737B6818331946FB7B0B4AF7
:1050F000D35C0B44BB60BB681A68FB7B0849CB5C84
:10510000194604238B40DB431A40BB681A6000BF7A
:105110001437BD465DF8047B704700BF909C0008C3
:10512000989C000880B485B000AF786039603B6817
:10513000012B1CD03B68042B17D03B68102B12D0DE
:105140003B68402B0DD03B68B3F5807F07D03B68B0
:10515000B3F5806F01D105230AE0062308E004239C
:1051600006E0032304E0022302E0012300E0002321
:10517000FB737B6818331946FB7B0A4AD35C0B44EC
:10518000BB60BB681A68FB7B0749CB5C19460823E8
:105190008B401A43BB681A6000BF1437BD465DF8E8
:1051A000047B7047909C0008989C000880B483B0F2
:1051B00000AF786039607B689B6823F4804323F0FC
:1051C00007033A681A437B689A6000BF0C37BD46F4
:1051D0005DF8047B704780B483B000AF78603960BD
:1051E0007B685B6823F070023B681A437B685A60F7
:1051F00000BF0C37BD465DF8047B704780B483B0B8
:1052000000AF78607B689B6823F080027B689A60BF
:1052100000BF0C37BD465DF8047B704780B483B097
:1052200000AF78607B68DB6843F400527B68DA602B
:1052300000BF0C37BD465DF8047B704780B483B077
:1052400000AF78607B681B6923F490427B681A6129
:105250007B685B6923F02A027B685A6100BF0C37C8
:10526000BD465DF8047B704780B483B000AF7860C2
:1052700039607B683A689A6100BF0C37BD465DF8BB
:10528000047B704780B483B000AF786039603B68BE
:105290001A047B689A6100BF0C37BD465DF8047B39
:1052A0007047000080B500AF4FF48040FFF772FEFA
:1052B0004FF08050FFF756FE0320FFF7B7FAFFF7D5
:1052C000D9FA034600220F211846FFF729FB0346AF
:1052D00019464FF0FF30FFF7F9FA00F045F800F0FB
:1052E000CFFC00F0B5FC00F051FC00F029FA00F012
:1052F0006FF800F07BFA00F0E9FB00F049F900F0EC
:1053000041FB00F09FF901F033FAFFF76BF9FCF76E
:1053100085FBFFF7B7F801F001F8FDF7CFFB02F0CE
:10532000C9FE01F031FAFFF775FAFDF7DDFA00F07A
:10533000FBFFFDF7E1FB02F0E7FFFBF769FD074824
:10534000FBF7DAFB04210648FFF78EFF4FF480518C
:105350000448FFF789FF02F0DDFFFCE7005800403A
:10536000000402400010024080B500AF0020FFF7AB
:1053700029FE00BFFFF73AFE0346002BFAD14FF497
:105380008040FFF741FEFFF753FD00BFFFF760FDD0
:105390000346012BFAD10020FFF790FD0020FFF714
:1053A000A1FD0020FFF7B2FD0120FFF765FD00BF62
:1053B000FFF776FD0346042BFAD1044802F036FECF
:1053C000024802F067FE00BF80BD00BF00127A00F5
:1053D00080B592B000AF07F13C0300221A605A601A
:1053E0009A6007F1280300221A605A609A60DA6016
:1053F0001A6107F1180300221A605A609A60DA6095
:105400003B4600221A605A609A60DA601A615A615B
:105410004FF48070FFF7BEFD0420FFF78BFD0220E4
:10542000FFF788FD30233B6003237B6000233B6153
:105430003B4619464D4801F00AFC03233B60032319
:105440007B6000233B613B461946494801F0FFFB66
:10545000002200214748FFF743FC00220021454875
:10546000FFF742FB4FF4803200214248FFF714FC63
:105470004FF4807200213F48FFF75AFB00220021C1
:105480003C48FFF779FB4FF4806200213948FFF771
:1054900097FB4FF4006200213648FFF7B5FB4FF44D
:1054A000005200213348FFF7D3FB00213148FFF7BA
:1054B0003BFC0023FB6300233B644FF480737B645D
:1054C00007F13C0319462C4801F008FA0023BB629F
:1054D0004FF44013FB6200233B6302237B634FF4D2
:1054E0004073BB6307F128031946234801F022FAF1
:1054F00000212148FFF784FA0023BB610023FB61F0
:1055000007F1180319461D4801F0A0F91C4A4FF491
:1055100000711948FFF737FA012219491648FFF7B9
:1055200082FA184A40F205211348FFF72CFA0122AB
:1055300014491148FFF777FA134A40F20A210E483E
:10554000FFF721FA012210490B48FFF76CFA0F4AC6
:1055500040F20F210848FFF716FA01220B490648CE
:10556000FFF761FA00BF4837BD4680BD0008024022
:10557000000402400064024000200140002301407A
:105580000E00C0000F00F000080080030900B00307
:1055900080B58CB000AF07F1180300221A605A6082
:1055A0009A60DA601A615A613B4600221A605A60BA
:1055B0009A60DA601A615A610220FFF7BBFCC023CF
:1055C0003B6002237B600323BB600123FB6000235D
:1055D0003B6104237B613B461946174801F037FBCA
:1055E0004FF40010FFF7BEFC1448FFF700FC13480F
:1055F000FFF7DAFB1148FFF7C7FB0023BB61104B35
:10560000FB6100233B6200237B624FF48063BB623B
:105610004FF48043FB6207F118031946074801F075
:10562000EDFC00210548FFF7CFFB0448FFF79CFB8A
:1056300000BF3037BD4680BD00040240005400402A
:10564000A086010080B58CB000AF07F118030022DE
:105650001A605A609A60DA601A615A613B46002209
:105660001A605A609A60DA601A615A610220FFF784
:1056700061FC4FF440633B6002237B600323BB600B
:105680000123FB6000233B6104237B613B461946F9
:10569000284801F0DCFA4FF48000FFF763FCFFF7C5
:1056A000E9F80346002200211846FFF739F90346BE
:1056B00019462120FFF70AF92120FFF7E9F8FFF743
:1056C000D9F80346002200211846FFF729F90346BE
:1056D00019462220FFF7FAF82220FFF7D9F81648DA
:1056E000FFF785FB1448FFF75FFB1348FFF74CFB00
:1056F0000023BB61114BFB6100233B6200237B62F3
:105700004FF48063BB624FF48043FB6207F11803E0
:105710001946094801F072FC00210748FFF754FBC5
:105720000548FFF774FB0448FFF71EFB00BF303746
:10573000BD4680BD0004024000580040A086010024
:1057400080B590B000AF07F1180328220021184659
:1057500003F09EF93B4600221A605A609A60DA60B4
:105760001A615A614FF48050FFF714FC0220FFF7D2
:10577000E1FB38233B6002237B600323BB600023F3
:10578000FB6000233B6105237B613B4619461548BE
:1057900001F05DFA0023BB614FF48273FB610023CB
:1057A0003B6200237B620023BB624FF40073FB6209
:1057B00018233B6300237B630023BB630A23FB6343
:1057C00007F118031946084801F0A7FD0021064813
:1057D000FFF73EFC0448FFF72BFC00BF4037BD46F7
:1057E00080BD00BF000402400030014080B59AB087
:1057F00000AF07F1540300221A605A609A60DA6021
:105800001A6107F1340320220021184603F040F901
:1058100007F11C0300221A605A609A60DA601A616C
:105820005A613B1D00221A605A609A60DA601A6160
:105830005A610120FFF7AEFB5323A7F85430002331
:10584000BB6542F20F73FB6500233B6600237B665A
:1058500007F154031946494801F024FE4748FFF771
:105860000AFC00214548FFF7A1FC01214348FFF74E
:1058700059FC60237B630023BB630023FB6300238D
:105880003B6400237B640023BB640023FB64002390
:105890003B6507F134031A460121384801F09CFEAC
:1058A00001213648FFF7F8FB10213448FFF73AFC96
:1058B00007F134031A461021304801F08DFE102103
:1058C0002E48FFF7E9FB4FF480712C48FFF72AFCC4
:1058D00007F134031A464FF48071284801F07CFE2A
:1058E0004FF480712548FFF7D7FB4FF480512348D0
:1058F000FFF718FC07F134031A464FF480511F4894
:1059000001F06AFE4FF480511C48FFF7C5FB0021EF
:105910001A48FFF760FC1948FFF770FC0023FB6191
:1059200000233B6200237B62002387F8283000239A
:105930007B854FF40053FB6200233B6307F11C039C
:1059400019460E4801F089FE1020FFF7F3FA4FF4D4
:10595000D4437B600223BB600023FB6000233B61D8
:1059600000237B610123BB613B1D1946044801F004
:105970006EF900BF6837BD4680BD00BF0000014022
:105980000010024080B594B000AF07F13C03002244
:105990001A605A609A60DA601A6107F11C032022CB
:1059A0000021184603F074F83B1D00221A605A606B
:1059B0009A60DA601A615A610220FFF7D3FA532322
:1059C000BB8700233B6442F20F737B640023BB64FC
:1059D00007F13C0319463B4801F064FD3948FFF7E5
:1059E0004AFB00213748FFF7E1FB01213548FFF76B
:1059F00099FB6023FB6100233B6200237B62002351
:105A0000BB620023FB6207F11C031A4601212D48EB
:105A100001F0E2FD01212B48FFF73EFB1021294850
:105A2000FFF780FB07F11C031A461021254801F0FF
:105A3000D3FD10212348FFF72FFB4FF4807121483D
:105A4000FFF770FB07F11C031A464FF480711D48E5
:105A500001F0C2FD4FF480711A48FFF71DFB4FF4AF
:105A600080511848FFF75EFB07F11C031A464FF4FC
:105A70008051144801F0B0FD4FF480511148FFF7F8
:105A80000BFB00210F48FFF7A6FB0E48FFF7B6FB04
:105A90000420FFF74FFA4FF470737B600223BB6062
:105AA0000023FB6000233B6100237B610223BB6179
:105AB0003B1D1946044801F0CAF800BF5037BD46E7
:105AC00080BD00BF000400400008024080B58EB0D9
:105AD00000AF07F11C0300221A605A609A60DA6076
