:020000040800F2
:1000000000000220FD3800084D380008553800086F
:100010005D380008653800086D38000800000000F1
:10002000000000000000000000000000753800081B
:10003000833800080000000091380008A13800084B
:100040004D3900084D3900084D3900084D39000878
:100050004D3900084D3900084D3900084D39000868
:100060004D3900084D3900084D3900084D39000858
:100070004D3900084D3900084D3900084D39000848
:100080004D3900084D3900084D3900084D39000838
:100090004D3900084D3900084D3900084D39000828
:1000A0004D3900084D3900084D3900084D39000818
:1000B0004D3900084D3900084D3900084D39000808
:1000C0004D3900084D3900084D3900084D390008F8
:1000D0004D3900084D3900084D390008BD38000879
:1000E0004D3900084D3900084D3900084D390008D8
:1000F0004D3900084D3900084D3900084D390008C8
:100100004D3900084D3900084D3900084D390008B7
:100110004D3900084D3900084D3900084D390008A7
:10012000C93800084D3900084D3900084D3900081C
:100130004D3900084D3900084D3900084D39000887
:100140004D3900084D3900084D3900084D39000877
:100150004D3900084D3900084D3900084D39000867
:100160004D3900084D3900084D3900084D39000857
:100170004D3900084D3900084D39000800000000D5
:080180004D3900084D3900085B
:1001880010B5054C237833B9044B13B10448AFF3C9
:1001980000800123237010BDB4210020000000005E
:1001A8002C50000808B5034B1BB103490348AFF3B3
:1001B800008008BD00000000B82100202C50000875
:1001C80010F8012B11F8013B012A28BF9A42F7D0F9
:1001D800D01A7047034613F8012B002AFBD1181ACE
:1001E800013870477BB972B90029BEBF00204FF0B3
:1001F800004106E008BF00281CBF6FF000414FF027
:10020800FF3000F0B5B9ADF1080C6DE904CE002956
:1002180009DB002B1ADB00F04DF8DDF804E0DDE91E
:10022800022304B07047404261EB4101002B1BDB05
:1002380000F040F8DDF804E0DDE9022304B04042B4
:1002480061EB4101524263EB43037047524263EB57
:10025800430300F02FF8DDF804E0DDE9022304B0E1
:10026800404261EB41017047524263EB430300F0A7
:1002780021F8DDF804E0DDE9022304B0524263EB23
:100288004303704753B94AB9002908BF00281CBF67
:100298004FF0FF314FF0FF3000F06AB9ADF1080CB4
:1002A8006DE904CE00F006F8DDF804E0DDE902238C
:1002B80004B070472DE9F047089D0C46002B4ED13D
:1002C80094468C458646B2FA82F262D94AB1C2F1A6
:1002D8002003914020FA03F30CFA02FC194300FAB8
:1002E80002FE4FEA1C471FFA8CF6B1FBF7F44FEAFF
:1002F8001E4307FB141143EA014304FB06F199422C
:100308000AD91CEB030304F1FF3080F012819942F3
:1003180040F20F81023C6344591A1FFA8EF3B1FB75
:10032800F7F007FB101143EA014300FB06F69E4273
:100338000AD91CEB030300F1FF3180F0FC809E42D8
:1003480040F2F980634402389B1B40EA04400021D4
:100358001DB1D3400022C5E90032BDE8F0878B42C9
:1003680005D90DB1C5E9000100210846F5E7B3FA42
:1003780083F1002946D1A34202D39042C0F0F08015
:10038800861A64EB03030120002DE6D0C5E900635B
:10039800E3E7002A40F09080A1EB0C044FEA1C48E8
:1003A8001FFA8CF70121B4FBF8F64FEA1E4308FB4D
:1003B800164443EA044307FB06F0984208D91CEBAD
:1003C800030306F1FF3402D2984200F2CD8026469C
:1003D8001C1A1FFA8EF3B4FBF8F008FB104443EA2A
:1003E800044300FB07F79F4208D91CEB030300F105
:1003F800FF3402D29F4200F2B0802046DB1B40EA65
:100408000640A5E7C1F120068B4022FA06F71F43F4
:1004180020FA06FC04FA01F343EA0C03F44000FA5C
:1004280001F8380C4FEA1349B4FBF0FE1FFA87FCB9
:1004380000FB1E4449EA04440EFB0CF9A14502FAEC
:1004480001F20AD93C190EF1FF3A80F08480A145E7
:1004580040F28180AEF1020E3C44A4EB09041FFA7D
:1004680083F9B4FBF0F300FB134449EA044403FBAB
:100478000CFCA44507D93C1903F1FF3067D2A44509
:1004880065D9023B3C4443EA0E40A0FB0293A4EB2F
:100498000C049C42CE469C4651D34ED055B1B8EB85
:1004A8000E0364EB0C0404FA06F6CB401E43CC4062
:1004B800C5E90064002150E7C2F1200320FA03F1E6
:1004C8000CFA02FC24FA03F394400C434FEA1C484C
:1004D80000FA02FE1FFA8CF7B3FBF8F008FB1031A4
:1004E800230C43EA014300FB07F1994208D91CEBAE
:1004F800030300F1FF362CD299422AD9023863440B
:100508005B1AA4B2B3FBF8F108FB113344EA0344C5
:1005180001FB07F3A34208D91CEB040401F1FF36E1
:1005280013D2A34211D902396444E41A41EA0041C2
:1005380039E70446F0E6084606E7C845AED2B9EB07
:10054800020E63EB070C0138A8E73146EDE70346D6
:1005580099E73046D4E7D6467FE7634402384DE74B
:100568000646234608460FE7023E634430E700BFCD
:10057800704700BF80B400AF074B1B6803F480339B
:10058800B3F5803F0CBF01230023DBB21846BD46FC
:100598005DF8047B704700BF10E000E080B584B0D0
:1005A80000AF0346FB71FB790C4A12680C49A1FBAA
:1005B8000212920C02FB03F3FB6007E0FFF7DAFF7D
:1005C8000346002B02D0FB68013BFB60FB68002B55
:1005D800F4D100BF00BF1037BD4680BD4C210020BC
:1005E80083DE1B4380B483B000AF03463960FB71E0
:1005F80097F90730002B0ADB3B68DAB20C4997F908
:1006080007301201D2B20B4483F800230AE03B689A
:10061800DAB20849FB7903F00F03043B1201D2B2A6
:100628000B441A7600BF0C37BD465DF8047B704753
:1006380000E100E000ED00E080B582B000AF786036
:100648007B68013BB3F1807F01D301230FE00A4AA5
:100658007B68013B53600F214FF0FF30FFF7C2FF6B
:10066800054B00229A60044B07221A6000231846A3
:100678000837BD4680BD00BF10E000E080B400AF81
:10068800054B1B68044A43F00103136000BFBD46D5
:100698005DF8047B704700BF10E000E080B500AF54
:1006A800054B1B68054AA2FB03239B091846FFF765
:1006B800C3FF00BF80BD00BF4C210020D34D621096
:1006C80080B483B000AF0346FB7197F90730002B65
:1006D8000BDBFB7903F01F02074997F907305B0929
:1006E800012000FA02F241F8232000BF0C37BD4672
:1006F8005DF8047B704700BF00E100E080B483B080
:1007080000AF0346FB7197F90730002B12DBFB792A
:1007180003F01F020A4997F907305B09012000FA24
:1007280002F2203341F82320BFF34F8F00BFBFF3FD
:100738006F8F00BF00BF0C37BD465DF8047B704764
:1007480000E100E080B489B000AF78607B680C33CA
:10075800FB60FB6853E8003FBB60BB6843F02003C5
:10076800FB617B680C33FA69BA617B617969BA69A4
:1007780041E800233B613B69002BE7D100BF00BF84
:100788002437BD465DF8047B704780B489B000AF5C
:1007980078607B680C33FB60FB6853E8003FBB6004
:1007A800BB6843F08003FB617B680C33FA69BA616C
:1007B8007B617969BA6941E800233B613B69002B99
:1007C800E7D100BF00BF2437BD465DF8047B704702
:1007D80080B489B000AF78607B680C33FB60FB683D
:1007E80053E8003FBB60BB6823F08003FB617B6874
:1007F8000C33FA69BA617B617969BA6941E8002307
:100808003B613B69002BE7D100BF00BF2437BD46E1
:100818005DF8047B704780B483B000AF78607B6874
:10082800DB6803F08003802B0CBF01230023DBB2BD
:1008380018460C37BD465DF8047B704780B483B01A
:1008480000AF78600B46FB70FA787B685A6000BF8F
:100858000C37BD465DF8047B704780B584B000AFA7
:10086800F860B9603B601346FB71FB68BA681A60B0
:10087800FB68FA791A71FB68BA8BDA80FB683A8CE4
:100888001A81FB683A68DA60FB68BA695A61FB68E2
:1008980000221A82FB6800225A82FB6800221A830F
:1008A800FB6800225A83FB68DB88002B06D0FB68B4
:1008B800DB6804220021184604F082FBFB681B89D0
:1008C800002B06D0FB685B6904220021184604F05F
:1008D80077FBFB681B681846FFF77AFFFB681B6805
:1008E8001846FFF72FFF00BF1037BD4680BD80B503
:1008F80082B000AF78600B46FB70FB1C01221946E2
:10090800786800F017F800BF0837BD4680BD80B58D
:1009180082B000AF786039603868FFF75BFC034647
:100928009BB21A463968786800F004F800BF0837A7
:10093800BD4680BD80B586B000AFF860B96013468B
:10094800FB800023FB7553E0FB7DBA6813441B78DA
:100958000A2B1ED1FB6803F11200FB6803F110019A
:10096800FB68DB881A4600F08BFA0346002B45D15A
:10097800FB68DB68FA68128A92B213440D221A7077
:10098800FB6803F11002FB68DB881946104600F08B
:10099800B0FAFB6803F11200FB6803F11001FB6871
:1009A800DB881A4600F06CFA0346002B14D1FB7D55
:1009B800BA681A44FB68DB68F968098A89B20B448B
:1009C80012781A70FB6803F11002FB68DB8819467D
:1009D800104600F08EFA08E0FB68DB68FA68128AB5
:1009E80092B213440D221A7009E0FB7D0133FB75A6
:1009F800FB7D9BB2FA889A42A6D800E000BFFB684C
:100A08001B681846FFF707FF0346002B07D1F86855
:100A180000F08BFAFB681B681846FFF7B6FEFB7DF3
:100A28009BB218461837BD4680BD00000EB480B58D
:100A38008DB000AF786007F14003BB60E5E10023AB
:100A4800FB8502E0FB8D0133FB85FB8DFA6B1344BC
:100A58001B78252B05D0FB8DFA6B13441B78002BD4
:100A6800F0D1FB8D1A46F96B7868FFF763FFFB8DB1
:100A7800FA6B1344FB63FB6B1B78252B40F0C58195
:100A8800FB6B0133FB6300237B85202387F825302C
:100A9800FB6B5A1CFA631B78253B532B00F2AE8183
:100AA80001A252F823F000BFF50D0008050E00085A
:100AB800050E0008050E0008050E0008050E0008C2
:100AC800050E0008050E0008050E0008050E0008B2
:100AD800050E0008010C0008010C0008010C0008B4
:100AE800010C0008010C0008010C0008010C0008AA
:100AF800010C0008010C0008010C0008050E000894
:100B0800050E0008050E0008050E0008050E000871
:100B1800050E0008050E0008050E0008050E000861
:100B2800050E0008050E0008050E0008050E000851
:100B3800050E0008050E0008050E0008050E000841
:100B4800050E0008050E0008050E0008050E000831
:100B5800050E0008050E0008050E0008050E000821
:100B6800050E0008050E0008050E0008050E000811
:100B7800050E0008F50C0008050E0008050E000813
:100B8800050E0008050E0008050E0008050E0008F1
:100B9800050E0008050E0008050E0008050E0008E1
:100BA800370C0008530C0008050E0008050E000855
:100BB800050E0008050E0008530C0008050E000875
:100BC800050E0008050E0008050E0008050E0008B1
:100BD800050E0008F50C0008050E0008050E0008B3
:100BE800830C0008050E0008DB0C0008050E000841
:100BF800050E0008F50C0008FB6B013B1B78302B39
:100C080005D17B8D002B02D1302387F825307B8DD1
:100C18001A46920013445B007B85FB6B013B1B78F3
:100C28001A467B8D13449BB2303B7B8530E7BB680B
:100C38001A1DBA601B689BB2FB8307F11E030122D1
:100C480019467868FFF776FEDFE0BB681A1DBA60C0
:100C58001B689BB2FB830023BB85FB8B1BB2002B5D
:100C680006DAFB8B5B429BB2FB830123FB8401E02A
:100C78000023FB840A233B8544E0BB681A1DBA6045
:100C88001B683B620023FB8502E0FB8D0133FB857B
:100C9800FB8D3A6A13441B78002BF6D1FB8D1A465C
:100CA800396A7868FFF746FE7A8DFB8D9A4240F2E2
:100CB800AB807A8DFB8DD31A7B8504E001225949DC
:100CC8007868FFF737FE7B8D5A1E7A85002BF5D1A1
:100CD8009AE0BB681A1DBA601B689BB2FB830023AD
:100CE800BB850A233B850023FB840BE0BB681A1DE8
:100CF800BA601B689BB2FB830023BB8510233B852E
:100D08000023FB840123FB8507E0FA8D3B8D12FB52
:100D180003F3FB857B8D013B7B85FB8D3A8D02FBC5
:100D280003F3FA8B9342F0DDFB8C002B02D07B8D12
:100D3800013B7B85FB8C002B0DD097F82530302BA1
:100D480009D1BB8D5A1CBA8530333B442D2203F898
:100D5800242C0023FB847B8D012B15D97B8D0F2B35
:100D680012D87B8D013B7B850BE0BB8D5A1CBA8565
:100D780030333B4497F8252003F8242C7B8D013B26
:100D88007B857B8D002BF0D1FB8C002B23D0BB8D7A
:100D98005A1CBA8530333B442D2203F8242C1AE020
:100DA8002148FA8BFB8DB2FBF3F39BB21A463B8DBD
:100DB80092FBF3F101FB03F3D31AC218BB8D591C44
:100DC800B985127830333B4403F8242CFA8D3B8DD7
:100DD800B2FBF3F3FB85FB8D002BE1D1BA8D07F154
:100DE8000C0319467868FFF7A5FD0EE0FB6B013B85
:100DF800012219467868FFF79DFD06E005220B4998
:100E08007868FFF797FD00E000BFFB6B1B78002BAD
:100E18007FF415AE00BF00BF3437BD46BDE8804043
:100E280003B0704758500008445000085C50000850
:100E380080B584B000AF78607B6803F11A027B68E4
:100E480018331946104600F03CF80346002B01D031
:100E5800002311E07B685B697A68528B92B2134475
:100E68001B78FB737B6803F11A027B681B891946A0
:100E7800104600F03EF8FB7B18461037BD4680BD93
:100E880080B487B000AFF860B9601346FB80BB68D8
:100E98001B88FB82FB681B88BB82FB8A0133FA88AC
:100EA80093FBF2F101FB02F29A1ABB8A9A420CBF39
:100EB80001230023DBB218461C37BD465DF8047BCE
:100EC800704780B485B000AF786039603B681B8894
:100ED800FB817B681B88BB81BA89FB899A420CBF5E
:100EE80001230023DBB218461437BD465DF8047BA6
:100EF800704780B483B000AF78600B467B807B6816
:100F08001B889BB201337A8893FBF2F101FB02F252
:100F18009B1A9AB27B681A807B681B889BB218461A
:100F28000C37BD465DF8047B704780B582B000AFD2
:100F380078607B6803F112027B681033194610460B
:100F4800FFF7BFFF0346002B20D17B6893F90430DD
:100F58001846FFF7D3FB7B6818687B68DB687A68FC
:100F6800528A92B213441B781946FFF767FC7B68D4
:100F780003F112027B68DB8819461046FFF7B9FFB8
:100F88007B6893F904301846FFF79AFB00BF0837CF
:100F9800BD4680BD80B586B000AF7860396001235A
:100FA800FB7300233B617B687B611FE07B691B78D7
:100FB800202B05D17B6900221A700123FB7312E0F4
:100FC800FB7B002B0FD03B69072B0AD820493B69D4
:100FD8007A6941F823203B6901333B610023FB73A5
:100FE80001E0022330E07B6901337B617B691B7878
:100FF800002BDBD13B69002B25D015493B693A68AA
:1010080041F823203B6901333B61124BBB6016E07A
:101018000F4B1A68BB681B6819461046FFF7D0F8D3
:101028000346002B08D1BB685B683A69084910463B
:1010380098470346DBB207E0BB680C33BB60BB686C
:101048001B68002BE4D1012318461837BD4680BD24
:10105800D02100201800002080B483B000AF786051
:101068007B681B6803F02003202B0CBF012300239F
:10107800DBB218460C37BD465DF8047B704780B478
:1010880083B000AF78607B681B6803F08003802B17
:101098000CBF01230023DBB218460C37BD465DF8B0
:1010A800047B704780B489B000AF78607B680C33EC
:1010B800FB60FB6853E8003FBB60BB6823F080031C
:1010C800FB617B680C33FA69BA617B617969BA693B
:1010D80041E800233B613B69002BE7D100BF00BF1B
:1010E8002437BD465DF8047B704780B483B000AFF9
:1010F80078607B685B68DBB218460C37BD465DF8E4
:10110800047B704780B483B000AF786039607B6837
:101118003A689A6100BF0C37BD465DF8047B70479A
:1011280080B584B004AF4023029340230193134B4E
:101138000093134B272213491348FFF78EFB134BD9
:10114800134A5A60114B40221A80104B00221A8110
:101158000E4B1B88002B06D00C4B5B680422002129
:10116800184603F02DFF0B490748FFF7D0FB0A4943
:101178000548FFF7CCFB00BFBD4680BD54220020C8
:101188001422002000480040F4210020942200206E
:10119800A0220020FC5100081452000880B582B03B
:1011A80000AF3223FB718DE04F48FFF741FE034645
:1011B8001A464E4B9A724D4B9B7ADBB2082B04D0E1
:1011C8004A4B9B7ADBB27F2B14D1484B1B899BB2CD
:1011D800002B00F08380454B1B899BB2013B9AB2E0
:1011E800424B1A81414B9B7ADBB219463E48FFF7C6
:1011F8007EFB74E03D4B9B7ADBB219463A48FFF719
:1012080076FB3A4B9B7ADBB20D2B04D0374B9B7A9B
:10121800DBB20A2B34D1354B1B899BB2002B2AD069
:10122800324B5B68314A128992B2134400221A7019
:101238002E4B1B899BB201339AB22C4B1A812B4B34
:101248005B682B491846FFF7A5FE0346BB71274B81
:1012580000221A8127492448FFF759FBBB79264AFF
:1012680052F8233019462048FFF7E0FB21491E4871
:10127800FFF74DFB23E01F491B48FFF748FB1EE023
:101288001A4B5B68194A128992B21344174A927A28
:10129800D2B21A70154B1B899BB201339AB2134B09
:1012A8001A81124B1B899AB2104B1B889A4206D995
:1012B80012490D48FFF72BFB0C4B00221A81FB79D2
:1012C800013BFB710E490F48FFF7FBFD0346002B5E
:1012D80005D1FB79002B7FF467AF00E000BF00BFAA
:1012E8000837BD4680BD00BFF421002094220020AD
:1012F800004800401452000800000020185200085E
:101308000C2200200E22002080B584B000AF786047
:1013180039600F4BFB6012E0FB681B6819460D48EB
:10132800FFF7F5FAFB689B6819460A48FFF7EFFADA
:1013380009490848FFF7EBFAFB680C33FB60FB68C8
:101348001B68002BE8D1002318461037BD4680BD26
:1013580018000020F42100202C52000880B582B02B
:1013680000AF786039604FF400510448FFF7CAFEB7
:10137800002318460837BD4680BD00BF000802405C
:1013880080B582B000AF7860396000F045FC00237A
:1013980018460837BD4680BD80B582B000AF78607A
:1013A800396020210648FFF7ADFE4FF48041002048
:1013B80000F0C4FB002318460837BD4680BD00BFB7
:1013C8000010024080B582B000AF7860396000201C
:1013D80000F002FC002318460837BD4680BD80B5E2
:1013E80082B000AF786039600021012000F0A6FBD0
:1013F800002318460837BD4680BD000080B584B07C
:1014080000AF7860396007F10C031946002000F03E
:101418005FFBFB681A0CFB6830493148FFF706FB95
:1014280007F10C031946012000F052FBFB681A0C67
:10143800FB682C492A48FFF7F9FA07F10C0319460B
:10144800022000F045FBFB681A0CFB68264924487B
:10145800FFF7ECFA07F10C031946032000F038FBFC
:10146800FB681A0CFB6821491D48FFF7DFFA07F1F2
:101478000C031946042000F02BFBFB681A0CFB68D0
:101488001B491748FFF7D2FA07F10C031946052044
:1014980000F01EFBFB681A4616491148FFF7C6FA0A
:1014A80007F10C031946062000F012FBFB681A46E8
:1014B80011490B48FFF7BAFA07F10C031946072040
:1014C80000F006FBFB681A460C490548FFF7AEFA20
:1014D800002318461037BD4680BD00BF30520008B3
:1014E800F421002048520008605200087C5200088D
:1014F80098520008AC520008C4520008DC52000898
:1015080080B582B000AF7860396000F017FC002326
:1015180018460837BD4680BD2DE9B04F88B000AFEA
:10152800786139613B6904331B68184603F0C0FCD5
:101538000346DA179A469346C7E906ABD7E9062366
:1015480025492648FFF772FAD7E9060102460B46F5
:101558004FF0000A4FF0000B4FEA431B4BEAD26BE7
:101568004FEA421A52465B46141A63EB01054FF0E4
:1015780000024FF000036B0243EAD45362021446A0
:101588001D4614EB000845EB01094FF000024FF02F
:1015980000034FEA891343EA98634FEA8812B2EBD3
:1015A8000804BC6063EB0903FB60D7E902452346E6
:1015B8001B183B602B4641EB03037B60D7E90034E3
:1015C800C7E90634D7E9060100F068FC002318468D
:1015D8002037BD46BDE8B08FF0520008F421002046
:1015E80080B584B000AF7860396007F10E03184603
:1015F80000F034FBFB891A4604490548FFF716FA40
:10160800002318461037BD4680BD00BF04530008AC
:10161800F421002080B584B000AF786039603B6861
:1016280004331B68184603F043FC0346FB73FB7B3B
:101638001A4606490648FFF7F9F9FB7B184600F0F9
:101648004BFB002318461037BD4680BD14530008D5
:10165800F421002080B584B000AF786039603B6821
:1016680004331B68184603F023FC0346FB73FB7B1B
:101678001A4606490648FFF7D9F9FB7B184600F0D9
:1016880044FB002318461037BD4680BD245300088C
:10169800F421002080B584B000AF7860396032232F
:1016A800FB7304490448FFF732F900231846103742
:1016B800BD4680BD34530008F421002080B500AF3A
:1016C8000249034803F0C0FA00BF80BDC4000020EF
:1016D800C000002080B500AF2E4B1B681846FFF7EE
:1016E800CEFC0346012B0FD12B492C48FFF7E9FB11
:1016F8000346002B05D0274B1B681846FFF7D2FC82
:1017080002E02448FFF711FC224B1B681846FFF73C
:10171800A3FC0346012B3BD11E4B1B681846FFF761
:10172800E4FC03461A461B4B1A771A4B1B891A46C8
:101738001B491C48FFF7A4FB0346002B28D1154B77
:101748001B7FDBB20A2B23D0124B1B7FDBB20D2B86
:101758000ED1104B5B690F4A128B92B213440A22C6
:101768001A700C4B1B8919460D48FFF7C2FB0FE096
:10177800084B5B69074A128B92B21344054A127FE1
:10178800D2B21A70034B1B8919460548FFF7B1FB03
:1017980000BF80BDF4210020042200200622002082
:1017A8000C2200200E22002080B483B000AF7860A5
:1017B8007B689B6803F00103012B01D1012300E042
:1017C800002318460C37BD465DF8047B704780B48B
:1017D80083B000AF78607B680C331B78DBB21846A7
:1017E8000C37BD465DF8047B704780B485B000AF08
:1017F80078600B46FB707B680C33FB60FB68FA78FB
:101808001A7000BF1437BD465DF8047B704780B47A
:1018180083B000AF786039607B683A689A6100BF2E
:101828000C37BD465DF8047B704780B483B000AFC9
:10183800786039603B681A047B689A6100BF0C378E
:10184800BD465DF8047B704780B500AF02210248B1
:10185800FFF7EBFF00BF80BD0010024080B500AF6E
:1018680002210248FFF7D3FF00BF80BD00100240ED
:1018780080B582B000AF0346FB71FB791946094871
:10188800FFF7B3FF00BF0748FFF78EFF0346002BA3
:10189800F9D00448FFF79BFF034618460837BD46B2
:1018A80080BD00BF0030014080B584B000AF7860D3
:1018B8000B46FB700023FB73FFF7C6FF0023BB73C7
:1018C80010E0BB7B7A6813441B781846FFF7D0FFFB
:1018D8000346FB73BB7B7A681344FA7B1A70BB7BA5
:1018E8000133BB73BA7BFB789A42EAD3FFF7B6FFA2
:1018F800FB7B18461037BD4680BD00000000000085
:10190800B0B582B000AFC7E90001D7E900010E4DBC
:1019180000242A1A64EB01034FF000004FF0000185
:10192800590641EAD211500605A3D3E90023FEF770
:1019380059FC02460B46134618460837BD46B0BD4B
:1019480000F9029500000000807C814A2DE9B00F63
:1019580085B000AFF860F968C8170C4605461B4902
:1019680001FB05F0002104FB01F101441748A4FB29
:10197800002319440B4610461946002908DA6FF06F
:101988007E43C3183B6041F100037B60D7E9000147
:101998004FF000024FF00003420E42EAC1124B160C
:1019A8000021D2F1000A61EB030B52465B4608495D
:1019B80012EB010843F1000942464B46104619460E
:1019C8001437BD46BDE8B00F704700BF00F9029557
:1019D800807C814A80B586B000AF78600023FB60C8
:1019E80000233B617B681B783B737B681B795B003A
:1019F800DBB27B737B681B78F22B11D17B681A6989
:101A080007F10C0302331946104600F0C6FA07F135
:101A18000C030621184600F085FA0346BB7407E05C
:101A280007F10C030221184600F07CFA0346BB7349
:101A38007B685A7807F10C0311461846FFF734FF04
:101A480007F10C03184600F0E6FA03469AB24FF085
:101A5800FF337B617B695B057B617B695B0D7B6128
:101A68007B699BB213409AB27B68DA827B681B78E9
:101A7800F22B06D1BA7B7B681A75FA7C7B685A759B
:101A880019E07B681B78F42B0FD107F10C030233A4
:101A9800184600F0A3FA02467B681A61BA7C7B6894
:101AA8001A75FA7C7B685A7505E0BA7B7B681A75EB
:101AB800FA7B7B685A757B685B7DA52B02D04FF05B
:101AC800FF3300E0002318461837BD4680BD0000EC
:101AD80080B58AB000AF03463960FB71002387F8F0
:101AE8002730144B1B883B813B89BB81FA7912490B
:101AF80013465B0013449B00CA1807F1100307CA7A
:101B080083E8070007F10C031846FFF763FF034655
:101B180087F8273097F92730002B02D097F927301C
:101B280003E0FA693B681A60002318462837BD4667
:101B380080BD00BF1C540008D400002080B58AB0C6
:101B480000AF03463960FB710E4B1B88BB81BB8914
:101B58003B82FA790C4913465B0013449B00CA1870
:101B680007F1140307CA83E807003B683B6207F1E3
:101B780010031846FFF72EFF034618462837BD46C0
:101B880080BD00BF20540008D400002080B586B076
:101B980000AF0346B9607A60FB7307F11402FB7B60
:101BA80011461846FFF794FFBB68DA437B69134078
:101BB8007B617968B86800F05EFA02467B69134376
:101BC8007B617A69FB7B11461846FFF7B7FF03462E
:101BD80018461837BD4680BD80B582B000AF0346B1
:101BE800FB71FB791A4601210020FFF7CFFF03465E
:101BF80018460837BD4680BD80B582B000AF0346A1
:101C0800FB71FB791A4602210020FFF7BFFF03464C
:101C180018460837BD4680BD80B500AF01224FF495
:101C280080410020FFF7B2FF0346184680BD80B50B
:101C380082B000AF4FF0FF337B607B689B067B6010
:101C48007B685B0D7B607B68002219460120FFF7EB
:101C58009DFF034618460837BD4680BD80B58AB04B
:101C680000AF7860114B1B883B813B89BB81104AD0
:101C780007F110030C3207CA83E8070007F10C03C9
:101C88001846FFF7A7FE034687F8273097F927304D
:101C9800002B02D097F9273003E07A8C7B681A80F2
:101CA800002318462837BD4680BD00BF24540008CD
:101CB800D400002080B584B000AF78604FF0FF33C7
:101CC800FB60FB687A6819460420FFF75FFF03464C
:101CD80018461037BD4680BD80B584B000AF0346B6
:101CE800FB714FF0FF33FB60FB681B07FB60FB6871
:101CF8001B0FFB60FB68FA7919460520FFF746FFC2
:101D0800034618461037BD4680BD80B584B000AF85
:101D18000346FB714FF0FF33FB60FB681B07FB605A
:101D2800FB681B0FFB60FB68FA7919460620FFF772
:101D38002DFF034618461037BD4680BD2DE9F04FEC
:101D48008FB000AF002387F8363020215248FFF7C4
:101D58006CFD04215048FFF768FDFFF75DFFFFF7B2
:101D680066FF034687F8363020214B48FFF74FFDC2
:101D78000120FFF731FF034687F8363043F601218B
:101D88000020FFF7DBFE034687F836304FF07F4030
:101D9800FFF790FF034687F8363000210120FFF750
:101DA800CDFE034687F83630012002F0C1FE43F627
:101DB80001210020FFF7C2FE034687F836304FF0B6
:101DC8007F40FFF7C3FDC7E90A010020FFF7BEFD0A
:101DD800C7E90801002387F8373045E0D7E908014B
:101DE800D7E90A23841A61EB030597F837300022F4
:101DF8009846914608FB05F204FB09F31344A4FB3B
:101E080008AB5B449B4652465B46002B06DAD11C66
:101E1800B96043F10003FB60D7E902234FF00000EB
:101E28004FF00001900840EA83709910D7E90A231F
:101E380016183E604B417B60D7E90023C7E90623AB
:101E4800D7E90601FFF75CFD78617B691846FFF763
:101E580031FF034687F83630012002F069FE97F813
:101E68003730013387F8373097F83730042BB5D936
:101E780004210948FFF7CBFC0120FFF7BDFE03460C
:101E880087F83630B420FEF789FB97F936301846C4
:101E98003C37BD46BDE8F08F001002402DE9B04345
:101EA80088B000AFC7E900010021F9774FF00000C2
:101EB8004FF00001C7E904010021F960D7E90001EA
:101EC800002905DA10F10F0241F100031046194606
:101ED8004FF000024FF00003020942EA01720B11B1
:101EE8000021D2F1000861EB030942464B460C4938
:101EF800541843F10005C7E90445D7E90401FFF781
:101F0800FFFCF860FB681846FFF7D4FE0346FB7732
:101F180097F91F3018462037BD46BDE8B08300BF8B
:101F2800807C814A80B485B000AF78600B46FB7036
:101F38000023FB7307233B730023BB7322E0BB7BA7
:101F48007A6813441A78FB7B5340FB7300237B7336
:101F580012E097F90F30002B08DAFB7B5B005AB2CE
:101F680097F90C3053405BB2FB7302E0FB7B5B00DC
:101F7800FB737B7B01337B737B7B072BE9D9BB7BB3
:101F88000133BB73BA7BFB789A42D8D3FB7B1846E4
:101F98001437BD465DF8047B704780B483B000AF4A
:101FA800786039603B6803337A68D2B21A707B680C
:101FB8001A0A3B680233D2B21A707B681A0C3B6863
:101FC8000133D2B21A707B681B0EDAB23B681A7002
:101FD80000BF0C37BD465DF8047B704780B483B002
:101FE80000AF78607B6803331B781A467B6802333E
:101FF8001B781B0213431A467B6801331B781B04AA
:102008001A437B681B781B06134318460C37BD46DA
:102018005DF8047B704780B483B000AF78607B685C
:1020280001331B781A467B681B781B02134318463A
:102038000C37BD465DF8047B704780B485B000AFAF
:1020480078600023FB600CE07B6803F00103002B41
:1020580001D0FB6809E07B685B087B60FB680133A3
:10206800FB607B68002BEFD1202318461437BD4650
:102078005DF8047B704780B582B000AF7860396046
:102088007868FFF7DAFF02463B6803FA02F27B68DA
:10209800134018460837BD4680BD80B489B000AFEC
:1020A800F860B9607A60FB682C331946BB6803F4A2
:1020B80040734FF440727A617A6992FAA2F23A61F7
:1020C8003A69BA61BA69002A01D1202203E0BA69E3
:1020D800B2FA82F2D2B2D3409B000B44FB61FB6997
:1020E8001A68BB6803F01F031F2101FA03F3DB43DF
:1020F8001A407B6803F01F01BB6803F01F0301FA55
:1021080003F31A43FB691A6000BF2437BD465DF824
:10211800047B704780B483B000AF786039607B6817
:102128009B6823F002023B681A437B689A6000BFF1
:102138000C37BD465DF8047B704780B483B000AFB0
:1021480078607B689B6843F001027B689A6000BFF7
:102158000C37BD465DF8047B704780B483B000AF90
:1021680078607B689B6803F00103012B0CBF012397
:102178000023DBB218460C37BD465DF8047B704778
:1021880080B483B000AF78607B689B6843F080427E
:102198007B689A6000BF0C37BD465DF8047B7047CA
:1021A80080B483B000AF786039600C4A3B68134450
:1021B8001B781A467B6813441B6808493A680A4426
:1021C800127811467A680A4443F00103136000BF8D
:1021D8000C37BD465DF8047B704700BF48540008C3
:1021E80080B485B000AFF860B9607A600D4ABB680A
:1021F80013441B781A46FB6813441B6823F0C0027B
:102208000849BB680B441B781946FB680B44194600
:102218007B6813430B6000BF1437BD465DF8047B31
:10222800704700BF4854000880B485B000AFF8601C
:10223800B9607A600D4ABB6813441B781A46FB687C
:1022480013441B6823F490720849BB680B441B783D
:102258001946FB680B4419467B6813430B6000BFA3
:102268001437BD465DF8047B704700BF485400082A
:1022780080B485B000AFF860B9607A600D4ABB6879
:1022880013441B781A46FB6813441B6823F4007236
:102298000849BB680B441B781946FB680B44194670
:1022A8007B6813430B6000BF1437BD465DF8047BA1
:1022B800704700BF4854000880B485B000AFF8608C
:1022C800B9607A600D4ABB6813441B781A46FB68EC
:1022D80013441B6823F480620849BB680B441B78CD
:1022E8001946FB680B4419467B6813430B6000BF13
:1022F8001437BD465DF8047B704700BF485400089A
:1023080080B485B000AFF860B9607A600D4ABB68E8
:1023180013441B781A46FB6813441B6823F4C05205
:102328000849BB680B441B781946FB680B441946DF
:102338007B6813430B6000BF1437BD465DF8047B10
:10234800704700BF4854000880B485B000AFF860FB
:10235800B9607A600D4ABB6813441B781A46FB685B
:1023680013441B6823F4C0420849BB680B441B781C
:102378001946FB680B4419467B6813430B6000BF82
:102388001437BD465DF8047B704700BF4854000809
:1023980080B485B000AFF860B9607A600D4ABB6858
:1023A80013441B781A46FB6813445B681B0C1B0418
:1023B8000849BA680A4412781146FA680A4411466C
:1023C8007A6813434B6000BF1437BD465DF8047B41
:1023D800704700BF4854000880B485B000AFF8606B
:1023E800B9607A600D4ABB6813441B781A46FB68CB
:1023F80013441B6823F060620849BB680B441B78D0
:102408001946FB680B4419467B6813430B6000BFF1
:102418001437BD465DF8047B704700BF4854000878
:1024280080B485B000AFF860B9607A60074ABB68CD
:1024380013441B781A46FB6813441A467B68D3601A
:1024480000BF1437BD465DF8047B70474854000848
:1024580080B485B000AFF860B9607A60074ABB689D
:1024680013441B781A46FB6813441A467B6893602A
:1024780000BF1437BD465DF8047B70474854000818
:1024880080B584B000AF002200213B48FFF7A4FFCD
:10249800002200213848FFF7A3FE00220021364819
:1024A800FFF7E6FE4FF4806200213348FFF704FF90
:1024B8004FF4006200213048FFF722FF4FF400522A
:1024C80000212D48FFF740FF042200212A48FFF78A
:1024D8005FFF2A4A00212848FFF7BAFF284B1A460F
:1024E80000212548FFF79CFF4FF480720021224805
:1024F800FFF79AFE00212048FFF752FE3B1D0022FD
:102508001A605A609A6000237B600023BB604FF416
:102518008073FB603B1D19461A4801F0E7FA022157
:102528001848FFF7F7FD184A4FF400711548FFF7F0
:10253800B4FD164A40F205211248FFF7AEFD144AD1
:1025480040F20A210F48FFF7A8FD124A40F20F2176
:102558000C48FFF7A2FD0B48FFF7EFFD00BF094845
:10256800FFF7FBFD0346002BF9D00648FFF708FEEE
:1025780000BF1037BD4680BD006402404C200140BA
:10258800E0220020002001400E00C0000F00F000F3
:10259800080080030900B00380B485B000AF7860FC
:1025A8000023FB7328E0FB7B184A32F813301946E6
:1025B800FB7B5B007A681344154A32F911201A80B4
:1025C800FB7B5B007A681344B3F9003013F5FA7F9C
:1025D80008DBFB7B5B007A681344B3F90030B3F582
:1025E800FA6F06DDFB7B5B007A68134447F6FF72DF
:1025F8001A80FB7B0133FB73FB7B032BD3D900BF12
:1026080000BF1437BD465DF8047B7047E022002008
:102618003401002080B483B000AF786039607B68F3
:102628003A689A6100BF0C37BD465DF8047B704775
:1026380080B483B000AF786039603B681A047B6867
:102648009A6100BF0C37BD465DF8047B70470000F7
:1026580080B500AF0A4A13786FF300031370084A75
:1026680013786FF341031370054A13786FF38703E8
:10267800137000F01BF900F031F900BF80BD00BFF6
:10268800F022002080B582B002AF2448FFF784FF13
:10269800234B1B881946224B5B881846204B9B8886
:1026A8001A461F4BDB880193009203460A461D49D0
:1026B8001D48FEF7BBF9194BB3F900301946174B03
:1026C800B3F902301846154BB3F904301A46134BC8
:1026D800B3F906300193009203460A46134912489B
:1026E800FEF7A4F9124B1B78C3F38503DBB2022B68
:1026F8000CD0022B0DDC002B02D0012B03D008E0FC
:1027080000F018F806E000F05DF803E000F07CF84F
:1027180000E000BF00BFBD4680BD00BFE82200202A
:10272800E022002028540008F42100203854000832
:10273800F022002080B500AF214B1B7803F0010385
:10274800DBB2002B20D01E4B1B7803F00203DBB258
:10275800002B19D0002002F061FA0346002B2DD07F
:10276800174A13786FF300031370154A13786FF341
:102778004103137000F09AF800F0B0F84FF4FA71C2
:10278800002002F035FA19E0002002F047FA03466B
:10279800002B13D00A4A137843F001031370084A38
:1027A800137843F00203137000F074F800F08AF80D
:1027B8004FF4FA71002002F01BFAFFE700BF80BD5A
:1027C800F022002080B500AF4FF480410D48FFF79C
:1027D8002FFF4FF400410B48FFF71CFF4FF4FA702E
:1027E80002F0A6F94FF400410648FFF721FF4FF425
:1027F80080410448FFF70EFF4FF4FA7002F098F991
:1028080000BF80BD000C024080B500AF204B1B7894
:1028180003F00103DBB2002B1FD01D4B1B7803F024
:102828000203DBB2002B18D0002002F0F7F90346B0
:10283800002B2BD0164A13786FF300031370144A39
:1028480013786FF34103137000F030F800F046F886
:102858003221002002F0CCF918E0002002F0DEF965
:102868000346002B12D00A4A137843F00103137071
:10287800074A137843F00203137000F00BF800F0D6
:1028880021F83221002002F0B3F9FFE700BF80BD34
:10289800F022002080B500AF4FF400410248FFF756
:1028A800B9FE00BF80BD00BF000C024080B500AF7C
:1028B8004FF400410248FFF7BBFE00BF80BD00BFD8
:1028C800000C024080B500AF4FF480410248FFF78A
:1028D800A1FE00BF80BD00BF000C024080B500AF64
:1028E8004FF480410248FFF7A3FE00BF80BD00BF40
:1028F800000C024080B500AF0249034802F0A4F979
:1029080000BF80BD382100203421002080B485B06C
:1029180000AF78607B6803F00703FB600C4BDB6853
:10292800BB60BA684FF6FF031340BB60FB681A022E
:10293800BB68134343F0BF6343F40033BB60044AEE
:10294800BB68D36000BF1437BD465DF8047B704791
:1029580000ED00E080B400AF044BDB681B0A03F015
:1029680007031846BD465DF8047B704700ED00E09C
:1029780080B483B000AF0346FB7197F90730002B92
:102988000BDBFB7903F01F02074997F907305B0956
:10299800012000FA02F241F8232000BF0C37BD469F
:1029A8005DF8047B704700BF00E100E080B483B0AD
:1029B80000AF03463960FB7197F90730002B0ADB3B
:1029C8003B68DAB20C4997F907301201D2B20B44CE
:1029D80083F800230AE03B68DAB20849FB7903F080
:1029E8000F03043B1201D2B20B441A7600BF0C3716
:1029F800BD465DF8047B704700E100E000ED00E0B3
:102A080080B489B000AFF860B9607A60FB6803F001
:102A18000703FB61FB69C3F10703042B28BF0423E9
:102A2800BB61FB690433062B02D9FB69033B00E059
:102A380000237B614FF0FF32BB6902FA03F3DA43EC
:102A4800BB681A407B699A404FF0FF317B6901FAF5
:102A580003F3D9437B680B40134318462437BD461C
:102A68005DF8047B704780B489B000AFF860B96046
:102A78007A60FB682C331946BB6803F440734FF443
:102A880040727A617A6992FAA2F23A613A69BA6155
:102A9800BA69002A01D1202203E0BA69B2FA82F2A7
:102AA800D2B2D3409B000B44FB61FB691A68BB6838
:102AB80003F01F031F2101FA03F3DB431A407B686D
:102AC80003F01F01BB6803F01F0301FA03F31A4365
:102AD800FB691A6000BF2437BD465DF8047B704768
:102AE80080B483B000AF786039607B689B6823F45A
:102AF80080623B681A437B689A6000BF0C37BD460A
:102B08005DF8047B704780B48FB000AFF860B9609F
:102B18007A60FB680C331946BB6803F000734FF00A
:102B280000727A617A6992FAA2F23A613A69BA61F4
:102B3800BA69002A01D1202203E0BA69B2FA82F206
:102B4800D2B2D3409B000B447B637B6B1A68BB6893
:102B580003F0F8734FF0F8713962396A91FAA1F10C
:102B6800F961F9697962796A002901D1202103E0C4
:102B7800796AB1FA81F1C9B2CB40072101FA03F3AE
:102B8800DB431A40BB6803F0F8734FF0F871F96241
:102B9800F96A91FAA1F1B962B96A3963396B002906
:102BA80001D1202103E0396BB1FA81F1C9B2CB40E0
:102BB800796801FA03F31A437B6B1A6000BF3C374C
:102BC800BD465DF8047B704780B485B000AFF860FF
:102BD800B9607A600D4ABB6813441B781A46FB68D3
:102BE80013441B6823F0C0020849BB680B441B78D8
:102BF8001946FB680B4419467B6813430B6000BFFA
:102C08001437BD465DF8047B704700BF5054000878
:102C180080B485B000AFF860B9607A600D4ABB68CF
:102C280013441B781A46FB6813441B6823F49072FC
:102C38000849BB680B441B781946FB680B441946C6
:102C48007B6813430B6000BF1437BD465DF8047BF7
:102C5800704700BF5054000880B485B000AFF860DA
:102C6800B9607A600D4ABB6813441B781A46FB6842
:102C780013441B6823F400720849BB680B441B7893
:102C88001946FB680B4419467B6813430B6000BF69
:102C98001437BD465DF8047B704700BF50540008E8
:102CA80080B485B000AFF860B9607A600D4ABB683F
:102CB80013441B781A46FB6813441B6823F480628C
:102CC8000849BB680B441B781946FB680B44194636
:102CD8007B6813430B6000BF1437BD465DF8047B67
:102CE800704700BF5054000880B485B000AFF8604A
:102CF800B9607A600D4ABB6813441B781A46FB68B2
:102D080013441B6823F4C0520849BB680B441B7862
:102D18001946FB680B4419467B6813430B6000BFD8
:102D28001437BD465DF8047B704700BF5054000857
:102D380080B485B000AFF860B9607A600D4ABB68AE
:102D480013441B781A46FB6813441B6823F4C042DB
:102D58000849BB680B441B781946FB680B441946A5
:102D68007B6813430B6000BF1437BD465DF8047BD6
:102D7800704700BF5054000880B485B000AFF860B9
:102D8800B9607A600D4ABB6813441B781A46FB6821
:102D980013441B6823F440320849BB680B441B7872
:102DA8001946FB680B4419467B6813430B6000BF48
:102DB8001437BD465DF8047B704700BF50540008C7
:102DC80080B485B000AFF860B9607A600D4ABB681E
:102DD80013441B781A46FB6813441B6823F060628F
:102DE8000849BB680B441B781946FB680B44194615
:102DF8007B6813430B6000BF1437BD465DF8047B46
:102E0800704700BF5054000880B483B000AF7860AA
:102E180039600C4A3B6813441B781A467B68134494
:102E28005B6908493A680A44127811467A680A4484
:102E380023F00403536100BF0C37BD465DF8047BE3
:102E4800704700BF5054000880B483B000AF78606A
:102E58007B681B6843F001027B681A6000BF0C376F
:102E6800BD465DF8047B704780B483B000AF7860DE
:102E78007B681B6823F080027B681A6000BF0C37F0
:102E8800BD465DF8047B704780B483B000AF7860BE
:102E98007B681B6823F040027B681A6000BF0C3710
:102EA800BD465DF8047B704780B483B000AF78609E
:102EB80039607B68DB6823F0FE023B681A437B6855
:102EC800DA6000BF0C37BD465DF8047B704780B4FC
:102ED80083B000AF78607B68DB6823F001027B6811
:102EE800DA6000BF0C37BD465DF8047B7047000010
:102EF80080B400AF054B1B68044A43F0010313601C
:102F080000BFBD465DF8047B704700BF0038024033
:102F180080B400AF064B1B6803F00203022B0CBF02
:102F280001230023DBB21846BD465DF8047B7047D9
:102F38000038024080B483B000AF7860074B1B684C
:102F480023F0F8027B68DB00044913430B6000BFE1
:102F58000C37BD465DF8047B704700BF003802405F
:102F680080B483B000AF7860064B9B6823F00302FF
:102F780004497B6813438B6000BF0C37BD465DF87E
:102F8800047B70470038024080B400AF044B9B6854
:102F980003F00C031846BD465DF8047B704700BF7C
:102FA8000038024080B483B000AF7860064B9B685D
:102FB80023F0F00204497B6813438B6000BF0C3791
:102FC800BD465DF8047B70470038024080B483B08A
:102FD80000AF7860064B9B6823F4E05204497B6895
:102FE80013438B6000BF0C37BD465DF8047B704708
:102FF8000038024080B483B000AF7860064B9B680D
:1030080023F4604204497B6813438B6000BF0C378C
:10301800BD465DF8047B70470038024080B485B037
:1030280000AF7860084B1A6B07497B6813430B6342
:10303800054B1A6B7B681340FB60FB6800BF1437B5
:10304800BD465DF8047B70470038024080B485B007
:1030580000AF7860084B1A6C07497B6813430B6410
:10306800054B1A6C7B681340FB60FB6800BF143784
:10307800BD465DF8047B70470038024080B485B0D7
:1030880000AF7860084B5A6C07497B6813434B6460
:10309800054B5A6C7B681340FB60FB6800BF143714
:1030A800BD465DF8047B70470038024080B483B0A9
:1030B80000AF7860064B1B6823F0070204497B6861
:1030C80013430B6000BF0C37BD465DF8047B7047A7
:1030D800003C024080B400AF044B1B6803F00703B8
:1030E8001846BD465DF8047B704700BF003C0240AF
:1030F80080B483B000AF7860064B1B6823F480422D
:1031080004497B6813430B6000BF0C37BD465DF86C
:10311800047B70470070004080B483B000AF7860D3
:103128007B681B6843F040027B681A6000BF0C375D
:10313800BD465DF8047B704780B483B000AF78600B
:1031480039607B685B6823F010023B681A437B6830
:103158005A6000BF0C37BD465DF8047B704780B4E9
:1031680083B000AF78607B68DB6843F400527B680B
:10317800DA6000BF0C37BD465DF8047B704780B449
:1031880083B000AF78607B681B6923F490427B684A
:103198001A617B685B6923F02A027B685A6100BF69
:1031A8000C37BD465DF8047B704780B483B000AF30
:1031B800786039607B683A689A6100BF0C37BD4611
:1031C8005DF8047B704780B483B000AF78603960E5
:1031D8003B681A047B689A6100BF0C37BD465DF8EE
:1031E800047B704780B500AF4FF48040FFF746FF7F
:1031F8004FF08050FFF72AFF0320FFF787FBFFF708
:10320800A9FB034600220F211846FFF7F9FB0346E6
:1032180019464FF0FF30FFF7C9FB00F021F800F026
:1032280063FA00F049FA00F0E5F900F08DF900F0D2
:103238002FF900F04BF800F0A3FBFFF709FAFDF7B0
:103248006FFFFFF71DF901F0A9FC00F0A5FBFFF7E0
:1032580051FBFEF733FA01F0CBFD01F0CFFDFCE79F
:1032680080B500AF0020FFF721FF00BFFFF732FF56
:103278000346002BFAD14FF48040FFF739FF1020A6
:10328800FFF758FEFFF734FE00BFFFF741FE034685
:10329800012BFAD18020FFF785FE0020FFF796FE6C
:1032A8000020FFF7A7FE0020FFF75AFE00BFFFF738
:1032B8006BFE0346002BFAD1034801F02BFC0248B1
:1032C80001F05CFC00BF80BD00127A0080B592B0AE
:1032D80000AF07F13C0300221A605A609A6007F1B8
:1032E800280300221A605A609A60DA601A6107F1AE
:1032F800180300221A605A609A60DA603B4600227E
:103308001A605A609A60DA601A615A614FF48070E4
:10331800FFF7B4FE0420FFF781FE0220FFF77EFED0
:1033280030233B6003237B6000233B613B46194607
:103338004E4800F094FD03233B6003237B60002389
:103348003B613B4619464A4800F089FD00220021AE
:103358004848FFF735FD002200214648FFF734FCB6
:103368004FF4803200214348FFF706FD4FF4807286
:1033780000214048FFF74CFC002200213D48FFF7A0
:103388006BFC4FF4806200213A48FFF789FC4FF448
:10339800006200213748FFF7A7FC4FF400520021D4
:1033A8003448FFF7C5FC00213248FFF72DFD002304
:1033B800FB6300233B644FF480737B6407F13C0399
:1033C80019462D4800F092FB0023BB624FF44013CE
:1033D800FB6200233B6302237B634FF48073BB6370
:1033E80007F128031946244800F0ACFB4FF480612C
:1033F8002148FFF775FB0023BB610023FB6107F140
:10340800180319461D4800F029FB1D4A4FF40071A6
:103418001948FFF728FB012219491748FFF773FBE2
:10342800184A40F205211448FFF71DFB01221549EF
:103438001148FFF768FB144A40F20A210E48FFF7CB
:1034480012FB012210490C48FFF75DFB0F4A40F2BE
:103458000F210948FFF707FB01220C490648FFF72F
:1034680052FB00BF4837BD4680BD00BF0008024080
:103478000004024000640240002001400023014093
:103488000E00C0000F00F000080080030900B00320
:1034980080B58CB000AF07F1180300221A605A609B
:1034A8009A60DA601A615A613B4600221A605A60D3
:1034B8009A60DA601A615A610220FFF7AFFD4FF493
:1034C80040633B6002237B600323BB600123FB60F6
:1034D80000233B6104237B613B461946174800F0F3
:1034E800BEFC4FF48000FFF7B1FD1548FFF7EFFC75
:1034F8001348FFF7C9FC1248FFF7B6FC0023BB616D
:10350800104BFB6100233B6200237B624FF4806316
:10351800BB624FF48043FB6207F118031946084861
:1035280000F014FE00210648FFF7BEFC0448FFF730
:103538008BFC00BF3037BD4680BD00BF0004024091
:1035480000580040A086010080B590B000AF07F198
:10355800180328220021184601F032FD3B460022BC
:103568001A605A609A60DA601A615A614FF48050A2
:10357800FFF784FD0220FFF751FD38233B6002234B
:103588007B600323BB600023FB6000233B610523B2
:103598007B613B461946154800F061FC0023BB617E
:1035A8004FF48273FB6100233B6200237B6200239C
:1035B800BB624FF40073FB6218233B6300237B63F9
:1035C8000023BB630A23FB6307F118031946084865
:1035D80000F04BFF00210648FFF7AEFD0448FFF757
:1035E8009BFD00BF4037BD4680BD00BF00040240C0
:1035F8000030014080B58EB000AF07F11C030022F7
:103608001A605A609A60DA601A615A619A613B1DC1
:1036180000221A605A609A60DA601A615A614FF49F
:103628008020FFF713FD0820FFF7F8FC4FF44073E4
:103638007B600223BB600323FB6000233B61002304
:103648007B610723BB613B1D1946194800F007FC45
:10365800FFF780F90346002200211846FFF7D0F94A
:10366800034619462720FFF7A1F92720FFF780F91D
:103678004FF4E133FB6100233B6200237B620023AC
:10368800BB620C23FB6200233B6300237B6307F1CF
:103698001C031946074801F0A3F90648FFF76FFD18
:1036A8000448FFF75CFD00BF3837BD4680BD00BF4A
:1036B800000C02400048004080B500AF4FF4800085
:1036C800FFF7ACFCFFF746F9034600220021184635
:1036D800FFF796F9034619463820FFF767F93820AF
:1036E800FFF746F900BF80BD80B586B000AF3B4606
:1036F80000221A605A609A60DA601A615A611020D2
:10370800FFF78CFC0420FFF789FC8020FFF786FC7C
:103718000120FFF783FC0220FFF780FC0820FFF759
:103728007DFC24214248FFF74EFD4FF400514148EB
:10373800FFF749FD02214048FFF745FD4FF440419E
:103748003E48FFF740FD4FF440713D48FFF72DFD1F
:1037580003213748FFF729FD24233B6001237B60C1
:103768000023BB600023FB6002233B613B461946F4
:103778002F4800F074FB40233B6000237B6000234C
:103788003B613B4619462A4800F069FB4FF4005359
:103798003B6001237B600023BB600023FB600023A8
:1037A8003B613B461946234800F059FB02233B6026
:1037B80001237B600023BB600023FB6000233B6187
:1037C8003B4619461C4800F04AFB4FF440433B6017
:1037D80001237B600023BB600023FB6000233B6167
:1037E8003B461946154800F03AFB4FF440733B60DE
:1037F80001237B600023BB600023FB6000233B6147
:103808003B4619460E4800F02AFB03233B60012380
:103818007B600023BB600023FB6000233B613B46C9
:103828001946034800F01BFB00BF1837BD4680BD92
:10383800001002400008024000000240000C024054
:103848000004024080B400AF00BFFDE780B400AFC1
:1038580000BFFDE780B400AF00BFFDE780B400AF54
:1038680000BFFDE780B400AF00BFFDE780B400AF44
:1038780000BFBD465DF8047B704780B400AF00BF51
:10388800BD465DF8047B704780B400AF00BFBD46FD
:103898005DF8047B7047000080B500AF044B1B68DF
:1038A8000133034A136001F00FFA00BF80BD00BF67
:1038B800F422002080B500AFFDF70CFF00BF80BDEB
:1038C80080B400AF00BFBD465DF8047B70470000C0
:1038D80080B400AF064BD3F88830054A43F4700330
:1038E800C2F8883000BFBD465DF8047B704700BF52
:1038F80000ED00E0DFF834D0FFF7EAFF0C480D498F
:103908000D4A002302E0D458C4500433C4188C4232
:10391800F9D30A4A0A4C002301E013600432A24298
:10392800FBD301F05BFBFFF75DFC70470000022052
:1039380000000020B421002084550008B421002094
:1039480048260020FEE780B483B000AF7860396075
:103958007B683A689A6100BF0C37BD465DF8047B06
:10396800704780B483B000AF786039603B681A0450
:103978007B689A6100BF0C37BD465DF8047B7047D1
:1039880080B400AF034B00221A7000BFBD465DF83B
:10399800047B7047F822002080B500AF0249034835
:1039A80001F052F900BF80BD5421002050210020B1
:1039B80080B500AF144B1B78002B12D0012001F00A
:1039C8002DF90346002B1DD00F4B00221A7002213F
:1039D8000E48FFF7C6FF4FF41671012001F008F9F1
:1039E80010E0012001F01AF90346002B0AD0064B1B
:1039F80001221A7002210548FFF7A5FFC8210120FE
:103A080001F0F6F800BF80BDF82200200000024057
:103A180080B483B000AF786039607B68DB6A23F4D8
:103A280070023B681A437B68DA6200BF0C37BD46F8
:103A38005DF8047B704780B483B000AF78607B6822
:103A48009B6803F00103012B0CBF01230023DBB2A9
:103A580018460C37BD465DF8047B704790B585B0B5
:103A680000AF786039600023FB731C48FFF7E3FF61
:103A780004461B48FFF7DFFF03461C431948FFF7BE
:103A8800DAFF03462343002B20D13B685B68002BF9
:103A980012D07B685A68144B13403A6811683A6828
:103AA800526811433A68926811433A68D2680A43E7
:103AB8001A437B685A600BE07B685A680A4B1340CC
:103AC8003A6812681A437B685A6001E00123FB7365
:103AD800FB7B18461437BD4690BD00BF002001404F
:103AE8000021014000220140E010FCFF80B584B0B5
:103AF80000AF786039600023FB737868FFF79BFF9D
:103B08000346002B17D17B685B6823F0407323F4CE
:103B180080733A6811683A6892680A431A437B6866
:103B28005A607B689B6823F400623B685B681A43B1
:103B38007B689A6001E00123FB73FB7B1846103712
:103B4800BD4680BD80B584B000AF78603960002381
:103B5800FB737868FFF76FFF0346002B2BD13B6898
:103B68005B68002B09D07B685B6823F468423B687C
:103B78009B681A437B685A6005E07B685B6823F49E
:103B880068427B685A607B689A680E4B13403A68B3
:103B9800126802F070613A68D26811433A68126993
:103BA8000A431A437B689A603B685B6819467868E1
:103BB800FFF72EFF01E00123FB73FB7B184610374C
:103BC800BD4680BDFDFCFFC080B48BB000AFF8607F
:103BD800B9607A60FB681A68BB687B617B6993FA95
:103BE800A3F33B613B69BB61BB69002B01D1202377
:103BF80003E0BB69B3FA83F3DBB25B00032101FA8C
:103C080003F3DB431A40BB683B623B6A93FAA3F3B6
:103C1800FB61FB697B627B6A002B01D1202303E0F7
:103C28007B6AB3FA83F3DBB25B00796801FA03F3CA
:103C38001A43FB681A6000BF2C37BD465DF8047B49
:103C4800704780B485B000AFF860B9607A60FB68EF
:103C58005A68BB68DB431A40BB68796801FB03F309
:103C68001A43FB685A6000BF1437BD465DF8047BF1
:103C7800704780B48BB000AFF860B9607A60FB68B9
:103C88009A68BB687B617B6993FAA3F33B613B69E4
:103C9800BB61BB69002B01D1202303E0BB69B3FAE8
:103CA80083F3DBB25B00032101FA03F3DB431A4021
:103CB800BB683B623B6A93FAA3F3FB61FB697B62D7
:103CC8007B6A002B01D1202303E07B6AB3FA83F3DC
:103CD800DBB25B00796801FA03F31A43FB689A6068
:103CE80000BF2C37BD465DF8047B704780B48BB0AD
:103CF80000AFF860B9607A60FB68DA68BB687B611E
:103D08007B6993FAA3F33B613B69BB61BB69002BF9
:103D180001D1202303E0BB69B3FA83F3DBB25B0074
:103D2800032101FA03F3DB431A40BB683B623B6A99
:103D380093FAA3F3FB61FB697B627B6A002B01D1D9
:103D4800202303E07B6AB3FA83F3DBB25B00796874
:103D580001FA03F31A43FB68DA6000BF2C37BD464B
:103D68005DF8047B704780B48BB000AFF860B96031
:103D78007A60FB681A6ABB687B617B6993FAA3F374
:103D88003B613B69BB61BB69002B01D1202303E088
:103D9800BB69B3FA83F3DBB29B000F2101FA03F38B
:103DA800DB431A40BB683B623B6A93FAA3F3FB61AF
:103DB800FB697B627B6A002B01D1202303E07B6ACD
:103DC800B3FA83F3DBB29B00796801FA03F31A4371
:103DD800FB681A6200BF2C37BD465DF8047B70474C
:103DE80080B48BB000AFF860B9607A60FB685A6A3B
:103DF800BB681B0A7B617B6993FAA3F33B613B6950
:103E0800BB61BB69002B01D1202303E0BB69B3FA76
:103E180083F3DBB29B000F2101FA03F3DB431A4063
:103E2800BB681B0A3B623B6A93FAA3F3FB61FB691D
:103E38007B627B6A002B01D1202303E07B6AB3FA03
:103E480083F3DBB29B00796801FA03F31A43FB683A
:103E58005A6200BF2C37BD465DF8047B704780B5B9
:103E68008AB000AF7860396000237B6200233B6230
:103E78003B681B68BB61BB6993FAA3F37B617B69F1
:103E8800FB61FB69002B01D1202303E0FB69B3FA36
:103E980083F3DBB27B6257E03B681A6801217B6AD7
:103EA80001FA03F313403B623B6A002B49D03B689D
:103EB8005B68012B03D03B685B68022B0DD13B6824
:103EC8009B681A46396A7868FFF7D3FE3B68DB6857
:103ED8001A46396A7868FFF7B4FE3B681B691A46C8
:103EE800396A7868FFF702FF3B685B68022B21D1CB
:103EF8003B6AFB60FB6893FAA3F3BB60BB683B615A
:103F08003B69002B01D1202303E03B69B3FA83F31B
:103F1800DBB2072B07D83B685B691A46396A7868B1
:103F2800FFF721FF06E03B685B691A46396A786843
:103F3800FFF756FF3B685B681A46396A7868FFF7EF
:103F480043FE7B6A01337B623B681A687B6A22FA0C
:103F580003F3002BA0D1002318462837BD4680BDA7
:103F680080B483B000AF78607B681B6843F00102BF
:103F78007B681A6000BF0C37BD465DF8047B70474C
:103F880080B483B000AF78607B681B6823F00102BF
:103F98007B681A6000BF0C37BD465DF8047B70472C
:103FA80080B485B000AFF860B9607A60FB689B6840
:103FB80023F4034323F0FF03B9687A680A431A43DA
:103FC800FB689A6000BF1437BD465DF8047B7047F4
:103FD80080B487B000AFF860B9607A603B600023B6
:103FE8003B6100237B61BB68424AA2FB03239B0C15
:103FF8003B61FB685B6823F03F023B691A43FB683F
:104008005A60FB681B6A23F03F027B683A498B427F
:1040180002D83B69013309E03B694FF4967101FB13
:1040280003F33649A1FB03139B0901331A43FB68C9
:104038001A627B68304A934239D93B68002B17D102
:104048007A6813465B001344BA68B2FBF3F3C3F310
:104058000B03002B09D07A6813465B001344BA6837
:10406800B2FBF3F343F400431DE048F201031AE006
:104078007A6813469B0013449A001344BA68B2FB4B
:10408800F3F3C3F30B03002B0BD07A6813469B00A2
:1040980013449A001344BA68B2FBF3F343F40043A1
:1040A80001E048F201033A6813437B6111E07B6841
:1040B8005B00BA68B2FBF3F240F6FC731340002BC6
:1040C80005D07B685B00BA68B2FBF3F300E0042319
:1040D8007B61FB68DB6923F44F4323F0FF037A69B4
:1040E8001A43FB68DA6100BF1C37BD465DF8047BE4
:1040F800704700BF83DE1B43A0860100D34D6210CA
:1041080080B483B000AF786039607B681B6823F0A7
:104118001A023B681A437B681A6000BF0C37BD4619
:104128005DF8047B704780B483B000AF7860396075
:104138007B681B6823F480623B681A437B681A60BB
:1041480000BF0C37BD465DF8047B704780B586B06C
:1041580000AF786039607868FFF712FF07F108034D
:10416800184600F095F839693B685A683B689B68BF
:104178007868FFF72DFF3B68D9683B685B691A468A
:104188007868FFF70DFF3B681B6819467868FFF7EA
:10419800B7FF7868FFF7E4FE3B681B691946786843
:1041A800FFF7C1FF002318461837BD4680BD000041
:1041B80080B400AF044B9B6803F00C031846BD465F
:1041C8005DF8047B704700BF0038024080B400AF40
:1041D800044B9B6803F0F0031846BD465DF8047B6A
:1041E800704700BF0038024080B400AF044B9B68A2
:1041F80003F4E0531846BD465DF8047B704700BFE2
:104208000038024080B400AF044B9B6803F460435D
:104218001846BD465DF8047B704700BF0038024071
:1042280080B400AF044B5B6803F480031846BD46B6
:104238005DF8047B704700BF0038024080B400AFCF
:10424800044B5B689B09C3F308031846BD465DF839
:10425800047B70470038024080B400AF044B5B68B1
:1042680003F440331846BD465DF8047B704700BF31
:104278000038024080B400AF044B5B6803F03F0392
:104288001846BD465DF8047B704700BF0038024001
:1042980080B582B000AF786000F020F802467B68F5
:1042A8001A607B681B68184600F040F802467B6875
:1042B8005A607B685B68184600F04EF802467B68D7
:1042C8009A607B685B68184600F05AF802467B687B
:1042D800DA6000BF0837BD4680BD000080B582B0F7
:1042E80000AF00237B60FFF763FF0346082B0CD069
:1042F800082B0FD8002B02D0042B03D00AE0094B5F
:104308007B600AE0084B7B6007E0082000F04CF86F
:10431800786002E0034B7B6000BF7B681846083773
:10432800BD4680BD0024F40000127A0080B582B03A
:1043380000AF7860FFF74AFF03461B0903F00F033D
:10434800044AD35C1A467B68D34018460837BD46F2
:1043580080BD00BF5854000880B582B000AF7860B7
:10436800FFF742FF03469B0A044AD35C1A467B6860
:10437800D34018460837BD4680BD00BF68540008C2
:1043880080B582B000AF7860FFF73CFF03465B0B57
:10439800044AD35C1A467B68D34018460837BD46A2
:1043A80080BD00BF6854000890B587B000AF786042
:1043B80000237B610023FB6000233B61FFF730FF94
:1043C800F860FB68002B04D0FB68B3F5800F03D0BE
:1043D80005E0124B7B6105E0114B7B6102E00F4B5E
:1043E8007B6100BF7B68082B13D1FFF743FF0246B0
:1043F8007B69B3FBF2F4FFF721FF034603FB04F4E8
:10440800FFF72AFF03461B0C01335B00B4FBF3F3F1
:104418003B613B6918461C37BD4690BD0024F4003B
:1044280000127A0080B483B000AF78607B681B68A4
:1044380003F04003402B01D1012300E0002318467C
:104448000C37BD465DF8047B704780B483B000AF7D
:10445800786039603B689BB21A467B681A6100BF76
:104468000C37BD465DF8047B704780B584B000AF5B
:10447800786039600123FB737868FFF7D3FF034640
:10448800002B39D17B681B6823F47F4323F0BF03DB
:104498003A6811683A68526811433A689268114359
:1044A8003A68D26811433A68126911433A68526906
:1044B80011433A68926911433A68D26911433A68DC
:1044C800126A0A431A437B681A607B685B6823F0A8
:1044D80004023B685B691B0C1A437B685A603B68A3
:1044E8001B6AB3F5005F05D13B685B6A19467868BB
:1044F800FFF7ABFF0023FB737B68DB6923F40062E3
:104508007B68DA61FB7B18461037BD4680BD80B4F6
:1045180083B000AF78607B68DB6803F40053B3F5C1
:10452800005F0CBF01230023DBB218460C37BD46E1
:104538005DF8047B704780B483B000AF7860396061
:104548007B681B6923F440523B681A437B681A61F5
:1045580000BF0C37BD465DF8047B704780B483B05C
:1045680000AF786039607B685B6923F440723B6810
:104578001A437B685A6100BF0C37BD465DF8047B5F
:10458800704700002DE9B04FC0B000AFC7F8FC007D
:10459800C7F8F810C7F8F420C7F8F030D7F8F430A7
:1045A800B3F5004F40F00C81D7F8F8300022C7F877
:1045B800E830C7F8EC20D7E93A4522462B4691184F
:1045C80039665B417B66D7E91823214612EB01085F
:1045D800294643EB01094FF000024FF000034FEA70
:1045E800C90343EA58734FEAC802904699462346DE
:1045F80018EB0303C7F8E0302B4649EB0303C7F871
:10460800E430D7F8F03000229A4693461AEB0A03B2
:10461800BB654BEB0B03FB65D7E91623D7E93801DC
:10462800FBF730FE02460B46644BA3FB02235B09F3
:104638009BB21B019CB2D7F8F8300022C7F8D830DB
:10464800C7F8DC20D7E9368942464B4691183965C8
:104658005B417B65D7E9142341465118B964494643
:104668004B41FB644FF000024FF00003D7E912AB57
:104678005946CB00514643EA51735146CA00104689
:104688001946034642469B18C7F8D0304B460A469F
:1046980042EB0303C7F8D430D7F8F0300022C7F84C
:1046A800C830C7F8CC20D7E932120B46DB183B6478
:1046B800134642EB03037B64D7E91023D7E934019F
:1046C800FBF7E0FD02460B4611463C4BA3FB0123DA
:1046D8005B09642202FB03F3CB1ADB0003F132020D
:1046E800364BA3FB02235B099BB25B009BB203F42E
:1046F800F8739BB223449CB2D7F8F8300022C7F86D
:10470800C030C7F8C420D7E9308942464B469118D3
:10471800B9635B41FB63D7E90E23414651183963FE
:1047280049464B417B634FF000024FF00003D7E945
:104738000CAB5946CB00514643EA51735146CA0067
:1047480010461946034642469B18C7F8B8304B46F0
:104758000A4642EB0303C7F8BC30D7F8F030002212
:10476800C7F8B030C7F8B420D7E92C120B46DB18CD
:10477800BB62134642EB0303FB62D7E90A23D7E97E
:104788002E01FBF77FFD02460B460C4BA3FB0213E1
:104798005B09642101FB03F3D31ADB003233074AB8
:1047A800A2FB03235B099BB203F007039BB22344DC
:1047B8009BB21A46D7F8FC309A6008E11F85EB5186
:1047C800D7F8F8300022C7F8A830C7F8AC20D7E9E6
:1047D8002A8942464B46911839625B417B62D7E988
:1047E800082341465418494643EB01054FF000029F
:1047F8004FF00003EB0043EA5473E20014461D46F1
:104808004346E318C7F8A0304B4645EB0303C7F807
:10481800A430D7F8F0300022C7F89830C7F89C20A9
:104828004FF000024FF00003D7E9264529468B00D8
:10483800214643EA917321468A00D7E92801FBF70C
:1048480021FD02460B46654BA3FB02235B099BB285
:104858001B019CB2D7F8F8300022C7F89030C7F88F
:104868009420D7E9248942464B469118B9615B41A7
:10487800FB61D7E9062341465118396149464B4146
:104888007B614FF000024FF00003D7E904AB5946B3
:10489800CB00514643EA51735146CA0010461946A7
:1048A800034642469B18C7F888304B460A4642EBF7
:1048B8000303C7F88C30D7F8F0300022C7F88030EF
:1048C800C7F884204FF000024FF00003D7E9208991
:1048D80049468B00414643EA917341468A00D7E92D
:1048E8002201FBF7CFFC02460B4611463B4BA3FBCC
:1048F80001235B09642202FB03F3CB1A1B01323349
:10490800364AA2FB03235B099BB203F0F0039BB278
:1049180023449CB2D7F8F8300022BB67FA67D7E97E
:104928001E8942464B469118B9605B41FB60D7E946
:10493800022341465118396049464B417B604FF08C
:1049480000024FF00003D7E900AB5946CB005146AF
:1049580043EA51735146CA00104619460346424677
:104968009B183B674B460A4642EB03037B67D7F825
:10497800F0300022BB66FA664FF000024FF00003E9
:10498800D7E91A8949468B00414643EA9173414663
:104998008A00D7E91C01FBF775FC02460B460F4B52
:1049A800A3FB02135B09642101FB03F3D31A1B0168
:1049B80032330A4AA2FB03235B099BB203F00F03BD
:1049C8009BB223449BB21A46D7F8FC309A6000BFCA
:1049D80007F58077BD46BDE8B08F00BF1F85EB5156
:1049E80080B588B000AF786039600123FB77002379
:1049F800BB617868FFF78BFD0346002B5ED17B68AF
:104A0800DB6823F4164323F00C033A6851683A68CC
:104A1800D26811433A68126911433A6892690A43A5
:104A28001A437B68DA603B689B6819467868FFF729
:104A380082FD3B685B6919467868FFF78FFD07F1CF
:104A480008031846FFF724FC7B681F4A934202D1EB
:104A58007B69BB6121E07B681C4A934202D13B69B8
:104A6800BB611AE07B681A4A934202D13B69BB6179
:104A780013E07B68174A934202D17B69BB610CE063
:104A88007B68154A934202D13B69BB6105E07B68AC
:104A9800124A934201D13B69BB61BB69002B0DD01F
:104AA8003B681B68002B09D00023FB773B689A6999
:104AB8003B681B68B9697868FFF764FDFB7F184697
:104AC8002037BD4680BD00BF0010014000440040B3
:104AD8000048004000140140004C004000500040D5
:104AE80080B483B000AF786039607A683B68B2FB05
:104AF800F3F3074A013B5360054B00229A60044BCD
:104B080005221A6000BF0C37BD465DF8047B70476C
:104B180010E000E080B582B000AF78604FF47A71A1
:104B28007868FFF7DDFF00BF0837BD4680BD00008D
:104B380080B485B000AF78600F4B1B68FB60FB68E2
:104B48007B68B3F1FF3F0CD07B6801337B6008E0E2
:104B5800094B1B6803F48033002B02D07B68013BB0
:104B68007B607B68002BF3D100BF00BF1437BD46C4
:104B78005DF8047B704700BF10E000E080B483B0AC
:104B880000AF7860044A7B68136000BF0C37BD46ED
:104B98005DF8047B704700BF4C21002080B500AF52
:104BA8000D4B00221A600D4B00221A700C4B00228C
:104BB8001A70F02200210B4800F002FAF0220021BE
:104BC800094800F0FDF928220021084800F0F8F90A
:104BD800FBF764FD00BF80BDE4240020EC23002027
:104BE800E0240020FC220020F0230020E8240020FC
:104BF80080B483B000AF03463960FB71FB79092BA1
:104C080004D8FB7904493A6841F8232000BF0C37DF
:104C1800BD465DF8047B7047E824002080B483B06B
:104C280000AF0346FB71FB79064A52F82330002B8C
:104C38000CBF01230023DBB218460C37BD465DF8D4
:104C4800047B7047E824002080B485B000AF78600A
:104C580039600123FB737B68002B29D03B68002B4C
:104C680026D0174B1B78122B22D8154B1B781A46C7
:104C780013465B0013449B00124A1344BB60BB6895
:104C88003A689A60BB6800225A803B68DA68BB6859
:104C98005A60BB6801221A70094B1A787B681A702F
:104CA800074B1B780133DAB2054B1A700023FB73EC
:104CB800FB7B18461437BD465DF8047B704700BF80
:104CC800EC230020FC22002080B485B000AF424BCA
:104CD8001B680133404A13600023FB7325E0FA7B0D
:104CE80013465B0013449B003C4A13447B607B687B
:104CF8009B681B78012B15D17B681B78012B11D180
:104D08007B685B685A1C7B685A607B685A687B685A
:104D18009B685B689A4205D37B6800225A607B686F
:104D280001225A80FB7B0133FB732D4B1B78FA7BE6
:104D38009A42D4D30023BB732BE0BA7B13465B00A3
:104D480013449B00274A1344BB60BB681B78012BA4
:104D58001CD1BB685B685A1CBB685A60BB685A6840
:104D6800BB689B685B689A4210D3BB6801225A8073
:104D7800BB6800225A60BB689B681B78022B0CBF7B
:104D880001230023DBB21A46BB681A70BB7B0133D0
:104D9800BB73154B1B78BA7B9A42CED30023BB73E7
:104DA80010E0BB7B114A52F82330002B07D0BB7BA5
:104DB8000E4A52F82320013A0C4941F82320BB7BC4
:104DC8000133BB73BB7B092BEBD900BF00BF143782
:104DD800BD465DF8047B7047E4240020FC220020D7
:104DE800EC230020F0230020E0240020E824002009
:104DF80080B500AFFBF742FC00BF80BD80B584B032
:104E080000AF0023FB731EE0FA7B13465B001344DC
:104E18009B00234A13447B607B685B88012B0FD17E
:104E28007B681B78012B0BD17B6800225A807B683A
:104E38009B689B68002B03D07B689B689B6898479E
:104E4800FB7B0133FB73174B1B78FA7B9A42DBD34E
:104E58000023BB731AE0BA7B13465B0013449B0024
:104E6800114A1344BB60BB685B88012B0BD1BB683C
:104E780000225A80BB689B689B68002B03D0BB68E4
:104E88009B689B689847BB7B0133BB73074B1B78B8
:104E9800BA7B9A42DFD300BF00BF1037BD4680BD42
:104EA800FC220020EC230020F0230020E024002036
:104EB8000A22002100F07AB8242B2DE9F047864613
:104EC800904601D8012B06D100F082F81623036022
:104ED8000020BDE8F08734480D462A4615F8014BF6
:104EE800065D16F00806F8D12D2C2DD12C78012658
:104EF800951C33F0100209D1302C2AD12A7802F0FF
:104F0800DF02582A25D16C781023023506F1004CAF
:104F18000CF1FF3C0022BCFBF3F9104603FB19CA55
:104F2800A4F13007092F1BD83C46A34227DD571CA4
:104F380007D0814520D301D1A2451DDB00FB0340EA
:104F4800012215F8014BEBE72B2C04BF2C78951C9C
:104F5800CFE7002BDAD1302C0CBF08230A23D5E782
:104F6800A4F14107192F01D8373CDEE7A4F1610706
:104F7800192F04D8573CD8E74FF0FF32E1E7531C0C
:104F880008D12223CEF800306046B8F1000FA0D037
:104F9800691E06E006B14042B8F1000F99D0002A18
:104FA800F6D1C8F8001094E77154000813460A4671
:104FB800014602480068FFF77FBF00BF6421002058
:104FC80002440346934200D1704703F8011BF9E7F6
:104FD800014B1868704700BF6421002070B50D4D63
:104FE8000D4C641BA4100026A64209D10B4D0C4C95
:104FF80000F018F8641BA4100026A64205D170BD65
:1050080055F8043B98470136EEE755F8043B9847B6
:105018000136F2E77C5500087C5500087C550008ED
:1050280080550008F8B500BFF8BC08BC9E4670471C
:0C503800F8B500BFF8BC08BC9E467047ED
:1050440030313233343536373839616263646566FA
:1050540000000000200000004552524F52000000A2
:105064004F4B0D0A00000000434D444C494E455F30
:105074004241445F434D440D0A000000434D444CFB
:10508400494E455F544F4F5F4D414E595F41524722
:10509400530D0A00434D444C494E455F544F4F5FF6
:1050A4004645575F415247530D0A0000434D444C57
:1050B400494E455F494E56414C49445F4152470D64
:1050C4000A000000434D445F4F4B5F4255545F500C
:1050D400454E44494E472E2E2E0D0A0068656C70CD
:1050E400000000003A20446973706C6179206C6997
:1050F4007374206F662068656C7020636F6D6D61DA
:105104006E6473207C20666F726D61743A206865EA
:105114006C7000006F6E5F7465635F7077000000F1
:105124003A2074657374207C20666F726D61743AE2
:10513400206F6E5F7465635F7077000072657365DE
:10514400740000003A2074657374207C20666F72CA
:105154006D61743A200000007365745F656E5F7260
:105164006571000072657365745F656E5F72657169
:1051740000000000636C6561725F73746174757321
:105184005F726567000000007265616400000000E2
:105194006F6E5F74656300007465635F7365745F4D
:1051A400766F6C006765745F737461747573000067
:1051B4007365745F6F765F636C616D7000000000EF
:1051C4007365745F75765F636C616D7000000000D9
:1051D4006765745F616C6C003A446973706C6179E3
:1051E40020616C6C207C20666F726D61743A20675C
:1051F40065745F616C6C0000455850204649524DFF
:10520400574152452056312E302E300A00000000FE
:105214003E2000000A3E20434D4420746F6F206CF2
:105224006F6E67210A3E20000A0000005350495364
:105234005F434F4D4D414E443A20307825582D253B
:1052440058200A00535049535F5354415455533A1C
:1052540020307825582D2558200A000053504953F2
:105264005F4441435F494C494D4E3A2030782558BC
:105274002D2558200A000000535049535F444143F0
:105284005F494C494D503A20307825582D255820F7
:105294000A000000535049535F4441433A20307898
:1052A40025582D2558200A00535049535F4F565F07
:1052B400434C414D503A2030782558200A000000D4
:1052C400535049535F55565F434C414D503A20303B
:1052D400782558200A000000535049535F414D552A
:1052E400583A2030782558200A000000546563207D
:1052F4007365743A202564206D56200A000000006E
:105304007374617475733A2030782558200A00004C
:105314004F565F434C414D503A202558200A000017
:1053240055565F434C414D503A202558200A000001
:1053340067657420616C6C200A0000002D2D2D2DF2
:105344002D2D2D2D2D2D2D2D2D2D2D2D2D2D2D2D89
:105354002D2D2D2D2D2D2D2D2D2D2D2D2D2D2D2D79
:105364002D0A00002D2D2D2D2D2D2D2D205F5F5F5D
:105374005F5F5F5F20205F5F5F5F5F5F20202D2D99
:105384002D2D2D2D2D2D0A002D2D2D2D2D2D2D2D99
:105394007C205F5F5F5F5C205C2F202F20205F20DC
:1053A4005C202D2D2D2D2D2D2D2D0A002D2D2D2D57
:1053B4002D2D2D2D7C20205F7C20205C20202F7C17
:1053C400207C5F29207C2D2D2D2D2D2D2D2D0A00A7
:1053D4002D2D2D2D2D2D2D2D7C207C5F5F5F202FDD
:1053E40020205C7C20205F5F2F202D2D2D2D2D2D46
:1053F4002D2D0A002D2D2D2D2D2D2D2D7C5F5F5F44
:105404005F5F2F5F2F5C5F5C5F7C202020202D2D51
:105414002D2D2D2D2D2D0A00F4080000F20800007A
:10542400F0040000256420256420256420256420E0
:1054340000000000256420256420256420256420C4
:105444000A000000102840587088A0B8102840585E
:105454007088A0B8000000000000000001020304EE
:1054640006070809000000000102030400202020B0
:105474002020202020202828282828202020202000
:1054840020202020202020202020202020881010D0
:10549400101010101010101010101010100404042C
:1054A40004040404040404101010101010104141EA
:1054B40041414141010101010101010101010101D8
:1054C40001010101010101011010101010104242EC
:1054D40042424242020202020202020202020202A8
:1054E4000202020202020202101010102000000048
:1054F40000000000000000000000000000000000A8
:105504000000000000000000000000000000000097
:105514000000000000000000000000000000000087
:105524000000000000000000000000000000000077
:105534000000000000000000000000000000000067
:105544000000000000000000000000000000000057
:105554000000000000000000000000000000000047
:105564000000000000000000000000000000000037
:0855740054ACFF7F01000000B0
:04557C00AD01000875
:045580008901000895
:10558400645000086C5000088050000898500008CF
:10559400B0500008C8500008E0500008111300087B
:1055A400E850000818510008651300082451000849
:1055B4004051000889130008485100085C51000854
:1055C400A11300084851000868510008CD130008D1
:1055D4004851000878510008E713000848510008B2
:1055E4008C51000805140008485100089451000823
:1055F40009150008485100089C51000821150008AD
:1056040048510008A8510008E9150008485100084D
:10561400B45100081D16000848510008C451000880
:105624005D16000848510008D45100089D16000872
:10563400DC51000800000000000000000000000031
:10564400FF000000010000000A000000A51100088E
:10565400090000000000000014A208001600000069
:1056640001000000000000000B0000000200000028
:10567400FF0100000900000003000000000000001A
:105684000900000004000000000000FF20000000EA
:10569400050000000F0000000400000006000000E8
:1056A40000000000040000000700000000000000EB
:1056B4000700000094FCB9FCDEFCFAFC10FD22FD9E
:1056C40032FD40FD4CFD57FD61FD6BFD74FD7CFD1D
:1056D40084FD8BFD92FD98FD9EFDA4FDAAFDAFFD0A
:1056E400B4FDB9FDBEFDC3FDC7FDCCFDD0FDD4FDA9
:1056F400D8FDDCFDDFFDE3FDE7FDEAFDEEFDF1FD98
:10570400F4FDF7FDFAFDFDFD00FE03FE06FE09FEB5
:105714000CFE0EFE11FE13FE16FE19FE1BFE1DFEF0
:1057240020FE22FE24FE27FE29FE2BFE2DFE30FE47
:1057340032FE34FE36FE38FE3AFE3CFE3EFE40FEAD
:1057440042FE43FE45FE47FE49FE4BFE4DFE4EFE25
:1057540050FE52FE53FE55FE57FE58FE5AFE5CFEA6
:105764005DFE5FFE60FE62FE64FE65FE67FE68FE2F
:105774006AFE6BFE6CFE6EFE6FFE71FE72FE74FEC0
:1057840075FE76FE78FE79FE7AFE7CFE7DFE7EFE58
:1057940080FE81FE82FE83FE85FE86FE87FE88FEF5
:1057A4008AFE8BFE8CFE8DFE8EFE90FE91FE92FE96
:1057B40093FE94FE95FE97FE98FE99FE9AFE9BFE3C
:1057C4009CFE9DFE9EFE9FFEA0FEA1FEA3FEA4FEE7
:1057D400A5FEA6FEA7FEA8FEA9FEAAFEABFEACFE91
:1057E400ADFEAEFEAFFEB0FEB1FEB2FEB3FEB4FE41
:1057F400B5FEB6FEB7FEB7FEB8FEB9FEBAFEBBFEF6
:10580400BCFEBDFEBEFEBFFEC0FEC1FEC1FEC2FEAA
:10581400C3FEC4FEC5FEC6FEC7FEC8FEC8FEC9FE62
:10582400CAFECBFECCFECDFECEFECEFECFFED0FE1B
:10583400D1FED2FED2FED3FED4FED5FED6FED7FED6
:10584400D7FED8FED9FEDAFEDAFEDBFEDCFEDDFE94
:10585400DEFEDEFEDFFEE0FEE1FEE1FEE2FEE3FE52
:10586400E4FEE4FEE5FEE6FEE7FEE7FEE8FEE9FE12
:10587400E9FEEAFEEBFEECFEECFEEDFEEEFEEEFED5
:10588400EFFEF0FEF1FEF1FEF2FEF3FEF3FEF4FE97
:10589400F5FEF5FEF6FEF7FEF7FEF8FEF9FEF9FE5C
:1058A400FAFEFBFEFBFEFCFEFDFEFDFEFEFEFFFE21
:1058B400FFFE00FF01FF01FF02FF03FF03FF04FFE0
:1058C40004FF05FF06FF06FF07FF08FF08FF09FFA7
:1058D40009FF0AFF0BFF0BFF0CFF0DFF0DFF0EFF6F
:1058E4000EFF0FFF10FF10FF11FF11FF12FF13FF38
:1058F40013FF14FF14FF15FF15FF16FF17FF17FF03
:1059040018FF18FF19FF1AFF1AFF1BFF1BFF1CFFCC
:105914001CFF1DFF1EFF1EFF1FFF1FFF20FF20FF98
:1059240021FF21FF22FF23FF23FF24FF24FF25FF64
:1059340025FF26FF26FF27FF27FF28FF28FF29FF33
:105944002AFF2AFF2BFF2BFF2CFF2CFF2DFF2DFFFF
:105954002EFF2EFF2FFF2FFF30FF30FF31FF31FFCF
:1059640032FF32FF33FF33FF34FF34FF35FF35FF9F
:1059740036FF37FF37FF38FF38FF39FF39FF3AFF6B
:105984003AFF3AFF3BFF3BFF3CFF3CFF3DFF3DFF3F
:105994003EFF3EFF3FFF3FFF40FF40FF41FF41FF0F
:1059A40042FF42FF43FF43FF44FF44FF45FF45FFDF
:1059B40046FF46FF47FF47FF47FF48FF48FF49FFB1
:1059C40049FF4AFF4AFF4BFF4BFF4CFF4CFF4DFF83
:1059D4004DFF4EFF4EFF4EFF4FFF4FFF50FF50FF56
:1059E40051FF51FF52FF52FF52FF53FF53FF54FF29
:1059F40054FF55FF55FF56FF56FF56FF57FF57FFFD
:105A040058FF58FF59FF59FF5AFF5AFF5AFF5BFFCF
:105A14005BFF5CFF5CFF5DFF5DFF5DFF5EFF5EFFA4
:105A24005FFF5FFF60FF60FF60FF61FF61FF62FF78
:105A340062FF63FF63FF63FF64FF64FF65FF65FF4D
:105A440065FF66FF66FF67FF67FF68FF68FF68FF23
:105A540069FF69FF6AFF6AFF6AFF6BFF6BFF6CFFF8
:105A64006CFF6CFF6DFF6DFF6EFF6EFF6EFF6FFFCF
:105A74006FFF70FF70FF70FF71FF71FF72FF72FFA5
:105A840072FF73FF73FF74FF74FF74FF75FF75FF7C
:105A940076FF76FF76FF77FF77FF78FF78FF78FF52
:105AA40079FF79FF79FF7AFF7AFF7BFF7BFF7BFF2A
:105AB4007CFF7CFF7DFF7DFF7DFF7EFF7EFF7EFF01
:105AC4007FFF7FFF80FF80FF80FF81FF81FF81FFD9
