:020000040800F2
:1000000000000220CD4C0008114C0008194C0008DB
:10001000214C0008294C0008314C00080000000069
:10002000000000000000000000000000394C000843
:10003000474C000800000000554C0008654C0008C3
:100040001D4D00081D4D00081D4D00081D4D0008E8
:100050001D4D00081D4D00081D4D00081D4D0008D8
:100060001D4D00081D4D00081D4D00081D4D0008C8
:100070001D4D00081D4D00081D4D00081D4D0008B8
:100080001D4D00081D4D00081D4D00081D4D0008A8
:100090001D4D00081D4D00081D4D00081D4D000898
:1000A0001D4D00081D4D00081D4D00081D4D000888
:1000B0001D4D00081D4D00081D4D00081D4D000878
:1000C0001D4D00081D4D00081D4D00081D4D000868
:1000D0001D4D00081D4D0008814C00088D4C000886
:1000E0001D4D00081D4D00081D4D00081D4D000848
:1000F0001D4D00081D4D00081D4D00081D4D000838
:100100001D4D00081D4D00081D4D00081D4D000827
:100110001D4D00081D4D00081D4D00081D4D000817
:10012000994C00081D4D00081D4D00081D4D00088C
:100130001D4D00081D4D00081D4D00081D4D0008F7
:100140001D4D00081D4D00081D4D00081D4D0008E7
:100150001D4D00081D4D00081D4D00081D4D0008D7
:100160001D4D00081D4D00081D4D00081D4D0008C7
:100170001D4D00081D4D00081D4D00080000000029
:080180001D4D00081D4D000893
:1001880010B5054C237833B9044B13B10448AFF3C9
:1001980000800123237010BDE4020020000000004D
:1001A8002C77000808B5034B1BB103490348AFF38C
:1001B800008008BD00000000E80200202C7700083D
:1001C80010F8012B11F8013B012A28BF9A42F7D0F9
:1001D800D01A7047034613F8012B002AFBD1181ACE
:1001E800013870477BB972B90029BEBF00204FF0B3
:1001F800004106E008BF00281CBF6FF000414FF027
:10020800FF3000F0B5B9ADF1080C6DE904CE002956
:1002180009DB002B1ADB00F04DF8DDF804E0DDE91E
:10022800022304B07047404261EB4101002B1BDB05
:1002380000F040F8DDF804E0DDE9022304B04042B4
:1002480061EB4101524263EB43037047524263EB57
:10025800430300F02FF8DDF804E0DDE9022304B0E1
:10026800404261EB41017047524263EB430300F0A7
:1002780021F8DDF804E0DDE9022304B0524263EB23
:100288004303704753B94AB9002908BF00281CBF67
:100298004FF0FF314FF0FF3000F06AB9ADF1080CB4
:1002A8006DE904CE00F006F8DDF804E0DDE902238C
:1002B80004B070472DE9F047089D0C46002B4ED13D
:1002C80094468C458646B2FA82F262D94AB1C2F1A6
:1002D8002003914020FA03F30CFA02FC194300FAB8
:1002E80002FE4FEA1C471FFA8CF6B1FBF7F44FEAFF
:1002F8001E4307FB141143EA014304FB06F199422C
:100308000AD91CEB030304F1FF3080F012819942F3
:1003180040F20F81023C6344591A1FFA8EF3B1FB75
:10032800F7F007FB101143EA014300FB06F69E4273
:100338000AD91CEB030300F1FF3180F0FC809E42D8
:1003480040F2F980634402389B1B40EA04400021D4
:100358001DB1D3400022C5E90032BDE8F0878B42C9
:1003680005D90DB1C5E9000100210846F5E7B3FA42
:1003780083F1002946D1A34202D39042C0F0F08015
:10038800861A64EB03030120002DE6D0C5E900635B
:10039800E3E7002A40F09080A1EB0C044FEA1C48E8
:1003A8001FFA8CF70121B4FBF8F64FEA1E4308FB4D
:1003B800164443EA044307FB06F0984208D91CEBAD
:1003C800030306F1FF3402D2984200F2CD8026469C
:1003D8001C1A1FFA8EF3B4FBF8F008FB104443EA2A
:1003E800044300FB07F79F4208D91CEB030300F105
:1003F800FF3402D29F4200F2B0802046DB1B40EA65
:100408000640A5E7C1F120068B4022FA06F71F43F4
:1004180020FA06FC04FA01F343EA0C03F44000FA5C
:1004280001F8380C4FEA1349B4FBF0FE1FFA87FCB9
:1004380000FB1E4449EA04440EFB0CF9A14502FAEC
:1004480001F20AD93C190EF1FF3A80F08480A145E7
:1004580040F28180AEF1020E3C44A4EB09041FFA7D
:1004680083F9B4FBF0F300FB134449EA044403FBAB
:100478000CFCA44507D93C1903F1FF3067D2A44509
:1004880065D9023B3C4443EA0E40A0FB0293A4EB2F
:100498000C049C42CE469C4651D34ED055B1B8EB85
:1004A8000E0364EB0C0404FA06F6CB401E43CC4062
:1004B800C5E90064002150E7C2F1200320FA03F1E6
:1004C8000CFA02FC24FA03F394400C434FEA1C484C
:1004D80000FA02FE1FFA8CF7B3FBF8F008FB1031A4
:1004E800230C43EA014300FB07F1994208D91CEBAE
:1004F800030300F1FF362CD299422AD9023863440B
:100508005B1AA4B2B3FBF8F108FB113344EA0344C5
:1005180001FB07F3A34208D91CEB040401F1FF36E1
:1005280013D2A34211D902396444E41A41EA0041C2
:1005380039E70446F0E6084606E7C845AED2B9EB07
:10054800020E63EB070C0138A8E73146EDE70346D6
:1005580099E73046D4E7D6467FE7634402384DE74B
:100568000646234608460FE7023E634430E700BFCD
:10057800704700BF80B400AF074B1B6803F480339B
:10058800B3F5803F0CBF01230023DBB21846BD46FC
:100598005DF8047B704700BF10E000E080B584B0D0
:1005A80000AF0346FB71FB790C4A12680C49A1FBAA
:1005B8000212920C02FB03F3FB6007E0FFF7DAFF7D
:1005C8000346002B02D0FB68013BFB60FB68002B55
:1005D800F4D100BF00BF1037BD4680BD180200200F
:1005E80083DE1B4380B483B000AF03463960FB71E0
:1005F80097F90730002B0ADB3B68DAB20C4997F908
:1006080007301201D2B20B4483F800230AE03B689A
:10061800DAB20849FB7903F00F03043B1201D2B2A6
:100628000B441A7600BF0C37BD465DF8047B704753
:1006380000E100E000ED00E080B582B000AF786036
:100648007B68013BB3F1807F01D301230FE00A4AA5
:100658007B68013B53600F214FF0FF30FFF7C2FF6B
:10066800054B00229A60044B07221A6000231846A3
:100678000837BD4680BD00BF10E000E080B400AF81
:10068800054B1B68044A43F00103136000BFBD46D5
:100698005DF8047B704700BF10E000E080B500AF54
:1006A800054B1B68054AA2FB03239B091846FFF765
:1006B800C3FF00BF80BD00BF18020020D34D6210E9
:1006C80080B483B000AF0346FB7197F90730002B65
:1006D8000BDBFB7903F01F02074997F907305B0929
:1006E800012000FA02F241F8232000BF0C37BD4672
:1006F8005DF8047B704700BF00E100E080B483B080
:1007080000AF0346FB7197F90730002B12DBFB792A
:1007180003F01F020A4997F907305B09012000FA24
:1007280002F2203341F82320BFF34F8F00BFBFF3FD
:100738006F8F00BF00BF0C37BD465DF8047B704764
:1007480000E100E080B489B000AF78607B680C33CA
:10075800FB60FB6853E8003FBB60BB6843F02003C5
:10076800FB617B680C33FA69BA617B617969BA69A4
:1007780041E800233B613B69002BE7D100BF00BF84
:100788002437BD465DF8047B704780B489B000AF5C
:1007980078607B680C33FB60FB6853E8003FBB6004
:1007A800BB6843F08003FB617B680C33FA69BA616C
:1007B8007B617969BA6941E800233B613B69002B99
:1007C800E7D100BF00BF2437BD465DF8047B704702
:1007D80080B489B000AF78607B680C33FB60FB683D
:1007E80053E8003FBB60BB6823F08003FB617B6874
:1007F8000C33FA69BA617B617969BA6941E8002307
:100808003B613B69002BE7D100BF00BF2437BD46E1
:100818005DF8047B704780B483B000AF78607B6874
:10082800DB6803F08003802B0CBF01230023DBB2BD
:1008380018460C37BD465DF8047B704780B483B01A
:1008480000AF78600B46FB70FA787B685A6000BF8F
:100858000C37BD465DF8047B704780B584B000AFA7
:10086800F860B9603B601346FB71FB68BA681A60B0
:10087800FB68FA791A71FB68BA8BDA80FB683A8CE4
:100888001A81FB683A68DA60FB68BA695A61FB68E2
:1008980000221A82FB6800225A82FB6800221A830F
:1008A800FB6800225A83FB68DB88002B06D0FB68B4
:1008B800DB6804220021184606F002FFFB681B894A
:1008C800002B06D0FB685B6904220021184606F05D
:1008D800F7FEFB681B681846FFF77AFFFB681B6882
:1008E8001846FFF72FFF00BF1037BD4680BD80B503
:1008F80082B000AF78600B46FB70FB1C01221946E2
:10090800786800F017F800BF0837BD4680BD80B58D
:1009180082B000AF786039603868FFF75BFC034647
:100928009BB21A463968786800F004F800BF0837A7
:10093800BD4680BD80B586B000AFF860B96013468B
:10094800FB800023FB7553E0FB7DBA6813441B78DA
:100958000A2B1ED1FB6803F11200FB6803F110019A
:10096800FB68DB881A4600F08BFA0346002B45D15A
:10097800FB68DB68FA68128A92B213440D221A7077
:10098800FB6803F11002FB68DB881946104600F08B
:10099800B0FAFB6803F11200FB6803F11001FB6871
:1009A800DB881A4600F06CFA0346002B14D1FB7D55
:1009B800BA681A44FB68DB68F968098A89B20B448B
:1009C80012781A70FB6803F11002FB68DB8819467D
:1009D800104600F08EFA08E0FB68DB68FA68128AB5
:1009E80092B213440D221A7009E0FB7D0133FB75A6
:1009F800FB7D9BB2FA889A42A6D800E000BFFB684C
:100A08001B681846FFF707FF0346002B07D1F86855
:100A180000F08BFAFB681B681846FFF7B6FEFB7DF3
:100A28009BB218461837BD4680BD00000EB480B58D
:100A38008DB000AF786007F14003BB60E5E10023AB
:100A4800FB8502E0FB8D0133FB85FB8DFA6B1344BC
:100A58001B78252B05D0FB8DFA6B13441B78002BD4
:100A6800F0D1FB8D1A46F96B7868FFF763FFFB8DB1
:100A7800FA6B1344FB63FB6B1B78252B40F0C58195
:100A8800FB6B0133FB6300237B85202387F825302C
:100A9800FB6B5A1CFA631B78253B532B00F2AE8183
:100AA80001A252F823F000BFF50D0008050E00085A
:100AB800050E0008050E0008050E0008050E0008C2
:100AC800050E0008050E0008050E0008050E0008B2
:100AD800050E0008010C0008010C0008010C0008B4
:100AE800010C0008010C0008010C0008010C0008AA
:100AF800010C0008010C0008010C0008050E000894
:100B0800050E0008050E0008050E0008050E000871
:100B1800050E0008050E0008050E0008050E000861
:100B2800050E0008050E0008050E0008050E000851
:100B3800050E0008050E0008050E0008050E000841
:100B4800050E0008050E0008050E0008050E000831
:100B5800050E0008050E0008050E0008050E000821
:100B6800050E0008050E0008050E0008050E000811
:100B7800050E0008F50C0008050E0008050E000813
:100B8800050E0008050E0008050E0008050E0008F1
:100B9800050E0008050E0008050E0008050E0008E1
:100BA800370C0008530C0008050E0008050E000855
:100BB800050E0008050E0008530C0008050E000875
:100BC800050E0008050E0008050E0008050E0008B1
:100BD800050E0008F50C0008050E0008050E0008B3
:100BE800830C0008050E0008DB0C0008050E000841
:100BF800050E0008F50C0008FB6B013B1B78302B39
:100C080005D17B8D002B02D1302387F825307B8DD1
:100C18001A46920013445B007B85FB6B013B1B78F3
:100C28001A467B8D13449BB2303B7B8530E7BB680B
:100C38001A1DBA601B689BB2FB8307F11E030122D1
:100C480019467868FFF776FEDFE0BB681A1DBA60C0
:100C58001B689BB2FB830023BB85FB8B1BB2002B5D
:100C680006DAFB8B5B429BB2FB830123FB8401E02A
:100C78000023FB840A233B8544E0BB681A1DBA6045
:100C88001B683B620023FB8502E0FB8D0133FB857B
:100C9800FB8D3A6A13441B78002BF6D1FB8D1A465C
:100CA800396A7868FFF746FE7A8DFB8D9A4240F2E2
:100CB800AB807A8DFB8DD31A7B8504E001225949DC
:100CC8007868FFF737FE7B8D5A1E7A85002BF5D1A1
:100CD8009AE0BB681A1DBA601B689BB2FB830023AD
:100CE800BB850A233B850023FB840BE0BB681A1DE8
:100CF800BA601B689BB2FB830023BB8510233B852E
:100D08000023FB840123FB8507E0FA8D3B8D12FB52
:100D180003F3FB857B8D013B7B85FB8D3A8D02FBC5
:100D280003F3FA8B9342F0DDFB8C002B02D07B8D12
:100D3800013B7B85FB8C002B0DD097F82530302BA1
:100D480009D1BB8D5A1CBA8530333B442D2203F898
:100D5800242C0023FB847B8D012B15D97B8D0F2B35
:100D680012D87B8D013B7B850BE0BB8D5A1CBA8565
:100D780030333B4497F8252003F8242C7B8D013B26
:100D88007B857B8D002BF0D1FB8C002B23D0BB8D7A
:100D98005A1CBA8530333B442D2203F8242C1AE020
:100DA8002148FA8BFB8DB2FBF3F39BB21A463B8DBD
:100DB80092FBF3F101FB03F3D31AC218BB8D591C44
:100DC800B985127830333B4403F8242CFA8D3B8DD7
:100DD800B2FBF3F3FB85FB8D002BE1D1BA8D07F154
:100DE8000C0319467868FFF7A5FD0EE0FB6B013B85
:100DF800012219467868FFF79DFD06E005220B4998
:100E08007868FFF797FD00E000BFFB6B1B78002BAD
:100E18007FF415AE00BF00BF3437BD46BDE8804043
:100E280003B0704758770008447700085C770008DB
:100E380080B584B000AF78607B6803F11A027B68E4
:100E480018331946104600F03CF80346002B01D031
:100E5800002311E07B685B697A68528B92B2134475
:100E68001B78FB737B6803F11A027B681B891946A0
:100E7800104600F03EF8FB7B18461037BD4680BD93
:100E880080B487B000AFF860B9601346FB80BB68D8
:100E98001B88FB82FB681B88BB82FB8A0133FA88AC
:100EA80093FBF2F101FB02F29A1ABB8A9A420CBF39
:100EB80001230023DBB218461C37BD465DF8047BCE
:100EC800704780B485B000AF786039603B681B8894
:100ED800FB817B681B88BB81BA89FB899A420CBF5E
:100EE80001230023DBB218461437BD465DF8047BA6
:100EF800704780B483B000AF78600B467B807B6816
:100F08001B889BB201337A8893FBF2F101FB02F252
:100F18009B1A9AB27B681A807B681B889BB218461A
:100F28000C37BD465DF8047B704780B582B000AFD2
:100F380078607B6803F112027B681033194610460B
:100F4800FFF7BFFF0346002B20D17B6893F90430DD
:100F58001846FFF7D3FB7B6818687B68DB687A68FC
:100F6800528A92B213441B781946FFF767FC7B68D4
:100F780003F112027B68DB8819461046FFF7B9FFB8
:100F88007B6893F904301846FFF79AFB00BF0837CF
:100F9800BD4680BD80B586B000AF7860396001235A
:100FA800FB7300233B617B687B611FE07B691B78D7
:100FB800202B05D17B6900221A700123FB7312E0F4
:100FC800FB7B002B0FD03B69072B0AD820493B69D4
:100FD8007A6941F823203B6901333B610023FB73A5
:100FE80001E0022330E07B6901337B617B691B7878
:100FF800002BDBD13B69002B25D015493B693A68AA
:1010080041F823203B6901333B61124BBB6016E07A
:101018000F4B1A68BB681B6819461046FFF7D0F8D3
:101028000346002B08D1BB685B683A69084910463B
:1010380098470346DBB207E0BB680C33BB60BB686C
:101048001B68002BE4D1012318461837BD4680BD24
:10105800000300201800002080B483B000AF78603F
:101068007B681B6803F02003202B0CBF012300239F
:10107800DBB218460C37BD465DF8047B704780B478
:1010880083B000AF78607B681B6803F08003802B17
:101098000CBF01230023DBB218460C37BD465DF8B0
:1010A800047B704780B489B000AF78607B680C33EC
:1010B800FB60FB6853E8003FBB60BB6823F080031C
:1010C800FB617B680C33FA69BA617B617969BA693B
:1010D80041E800233B613B69002BE7D100BF00BF1B
:1010E8002437BD465DF8047B704780B483B000AFF9
:1010F80078607B685B68DBB218460C37BD465DF8E4
:10110800047B704780B483B000AF786039607B6837
:101118003A689A6100BF0C37BD465DF8047B70479A
:1011280080B483B000AF786039603B681A047B688C
:101138009A6100BF0C37BD465DF8047B704700001C
:1011480080B584B004AF4023029340230193134B2E
:101158000093134B272213491348FFF77EFB134BC9
:10116800134A5A60114B40221A80104B00221A81F0
:101178000E4B1B88002B06D00C4B5B680422002109
:10118800184606F09DFA0B490748FFF7C0FB0A49C5
:101198000548FFF7BCFB00BFBD4680BD84030020A7
:1011A800440300200048004024030020C40300201A
:1011B800D0030020247C00083C7C000880B582B065
:1011C80000AF3223FB718DE04F48FFF731FE034635
:1011D8001A464E4B9A724D4B9B7ADBB2082B04D0C1
:1011E8004A4B9B7ADBB27F2B14D1484B1B899BB2AD
:1011F800002B00F08380454B1B899BB2013B9AB2C0
:10120800424B1A81414B9B7ADBB219463E48FFF7A5
:101218006EFB74E03D4B9B7ADBB219463A48FFF708
:1012280066FB3A4B9B7ADBB20D2B04D0374B9B7A8B
:10123800DBB20A2B34D1354B1B899BB2002B2AD049
:10124800324B5B68314A128992B2134400221A70F9
:101258002E4B1B899BB201339AB22C4B1A812B4B14
:101268005B682B491846FFF795FE0346BB71274B71
:1012780000221A8127492448FFF749FBBB79264AEF
:1012880052F8233019462048FFF7D0FB21491E4861
:10129800FFF73DFB23E01F491B48FFF738FB1EE023
:1012A8001A4B5B68194A128992B21344174A927A08
:1012B800D2B21A70154B1B899BB201339AB2134BE9
:1012C8001A81124B1B899AB2104B1B889A4206D975
:1012D80012490D48FFF71BFB0C4B00221A81FB79C2
:1012E800013BFB710E490F48FFF7EBFD0346002B4E
:1012F80005D1FB79002B7FF467AF00E000BF00BF8A
:101308000837BD4680BD00BF24030020C403002069
:10131800004800403C7C000800000020407C000899
:101328003C0300203E03002080B584B000AF786005
:1013380039600F4BFB6012E0FB681B6819460D48CB
:10134800FFF7E5FAFB689B6819460A48FFF7DFFADA
:1013580009490848FFF7DBFAFB680C33FB60FB68B8
:101368001B68002BE8D1002318461037BD4680BD06
:101378001800002024030020547C000880B582B0A7
:1013880000AF786039607B68012B01DC032319E02A
:101398007B68022B01DD022314E03B6804331B68E1
:1013A800184606F005F90346002B05D04FF4005106
:1013B8000648FFF7A7FE04E04FF400510348FFF783
:1013C800AFFE002318460837BD4680BD000802401E
:1013D80080B582B000AF786039607B68012B01DC92
:1013E800032319E07B68022B01DD022314E03B682C
:1013F80004331B68184606F0DBF80346002B05D0BB
:101408004FF400410648FFF77DFE04E04FF4004129
:101418000348FFF785FE002318460837BD4680BD00
:101428000004024080B582B000AF786039607B6804
:10143800012B01DC032319E07B68022B01DD022369
:1014480014E03B6804331B68184606F0B1F80346FD
:10145800002B05D04FF480710648FFF753FE04E0D7
:101468004FF480710348FFF75BFE002318460837E6
:10147800BD4680BD0010024080B584B000AF7860E2
:1014880039607B68042B01DC032359E07B68052B5A
:1014980001DD022354E03B6804331B68184606F05C
:1014A80087F80346FB813B6808331B68184606F03B
:1014B8007FF80346BB813B680C331B68184606F06F
:1014C80077F803467B813B6810331B68184606F0A3
:1014D8006FF803463B81B7F90E301946002003F038
:1014E800DBFDB7F90C301946012003F0D5FDB7F93B
:1014F8000A301946022003F0CFFDB7F90830194623
:10150800032003F0C9FDB7F90E3000220E490F4839
:10151800FFF78CFAB7F90C3001220B490B48FFF79B
:1015280085FAB7F90A30022207490848FFF77EFA18
:10153800B7F90830032204490448FFF777FA002373
:1015480018461037BD4680BD587C0008240300208B
:1015580080B584B000AF786039607B68012B01DD0D
:10156800022338E001F0F6FA0346BB81B7F90C30E4
:1015780047F6FF72934204D119491A48FFF7C7F991
:1015880006E0B7F90C301A4617491648FFF74EFA25
:101598000023FB731BE0FB7B144A32F81330BB813A
:1015A800B7F90C3047F6FF72934206D1FB7B1A4617
:1015B8000F490C48FFF73AFA06E0FA7BB7F90C3006
:1015C8000C490848FFF732FAFB7B0133FB73FB7BBE
:1015D800032BE0D9002318461037BD4680BD00BF55
:1015E8006C7C000824030020807C00087005002023
:1015F800947C0008A87C000880B584B000AF7860AF
:1016080039607B68012B01DD022318E00023BB81D0
:101618000023FB730FE0FB7B184603F053FD0346E2
:10162800BB81FA7BB7F90C3007490848FFF7FEF988
:10163800FB7B0133FB73FB7B032BECD900231846A0
:101648001037BD4680BD00BFB87C000824030020C9
:1016580080B586B000AF786039607B68042B01DC08
:1016680003235DE07B68052B01DD022358E000239E
:10167800FB7525E0FB7D01339B003A6813441B682A
:10168800184605F095FF0246FB7D92B25B001833C1
:101698003B4423F80C2CFB7D5B0018333B4433F8A8
:1016A8000C3C40F6B832934207D9FB7D5B001833F7
:1016B8003B4440F6B83223F80C2CFB7D0133FB7514
:1016C800FB7D032BD6D9BB891946002003F01EFDEC
:1016D800FB891946012003F019FD3B8A19460220AF
:1016E80003F014FD7B8A1946032003F00FFDBB8924
:1016F80000220D490D48FFF799F9FB8901220A4993
:101708000A48FFF793F93B8A022207490748FFF77F
:101718008DF97B8A032204490448FFF787F90023DF
:1017280018461837BD4680BDCC7C0008240300202D
:1017380080B584B000AF786039607B68012B01DD2B
:1017480002232CE0002003F001FD0346FB81012069
:1017580003F0FCFC0346BB81022003F0F7FC0346C0
:101768007B81032003F0F2FC03463B81FB890022C6
:101778000D490E48FFF75AF9BB8901220A490B485F
:10178800FFF754F97B89022207490848FFF74EF909
:101798003B89032204490548FFF748F90023184606
:1017A8001037BD4680BD00BFCC7C00082403002054
:1017B80080B584B000AF786039607B68042B01DCA9
:1017C800032357E07B68052B01DD022352E0002349
:1017D800FB731FE0FB7B01339B003A6813441B68D3
:1017E800184605F0E5FE0246FB7BD2B210333B44B7
:1017F80003F8082CFB7B10333B4413F8083C642B9C
:1018080005D9FB7B10333B44642203F8082CFB7B8F
:101818000133FB73FB7B032BDCD93B7A1946002091
:1018280003F0B0FC7B7A1946012003F0ABFCBB7ACD
:101838001946022003F0A6FCFB7A1946032003F0A0
:10184800A1FC3B7A00220D490D48FFF7EFF87B7A9F
:1018580001220A490A48FFF7E9F8BB7A0222074938
:101868000748FFF7E3F8FB7A032204490448FFF727
:10187800DDF8002318461037BD4680BDE47C00081B
:101888002403002080B584B000AF786039607B689D
:10189800012B01DD022330E0002003F097FC034612
:1018A800FB81012003F092FC0346BB81022003F078
:1018B8008DFC03467B81032003F088FC03463B81B3
:1018C800B7F90E3000220F490F48FFF7AFF8B7F904
:1018D8000C3001220B490C48FFF7A8F8B7F90A3079
:1018E800022208490848FFF7A1F8B7F9083003228F
:1018F80004490548FFF79AF8002318461037BD46F3
:1019080080BD00BFE47C00082403002080B584B0BB
:1019180000AF786039607B68042B01DC032383E027
:101928007B68052B01DD02237EE00023FB73002387
:10193800BB7300237B7300233B733B6804331B6832
:101948003B491846FEF73CFC0346002B02D1012315
:10195800FB730EE03B6804331B6836491846FEF7F4
:101968002FFC0346002B02D10223FB7301E0002366
:10197800FB733B6808331B682D491846FEF720FCAB
:101988000346002B02D10123BB730EE03B680833EA
:101998001B6828491846FEF713FC0346002B02D1A2
:1019A8000223BB7301E00023BB733B680C331B6845
:1019B8001F491846FEF704FC0346002B02D10123F9
:1019C800BB730EE03B680C331B681A491846FEF7D8
:1019D800F7FB0346002B02D102237B7301E00023AF
:1019E8007B733B6810331B6811491846FEF7E8FB08
:1019F8000346002B02D101233B730EE03B681033F2
:101A08001B680C491846FEF7DBFB0346002B02D186
:101A180002233B7301E000233B733B7B7A7BB97B5A
:101A2800F87B03F025FC002318461037BD4680BD1F
:101A3800FC7C0008007D000880B584B000AF7860A9
:101A480039607B68042B01DC03233FE07B68052BAE
:101A580001DD02233AE03B6804331B68184605F0B1
:101A6800A7FD0346002B14BF01230023DBB2FB7341
:101A78003B6808331B68184605F09AFD0346002B9F
:101A880014BF01230023DBB2BB733B680C331B6814
:101A9800184605F08DFD0346002B14BF01230023D3
:101AA800DBB27B733B6810331B68184605F080FD7A
:101AB8000346002B14BF01230023DBB23B733B7B9F
:101AC8007A7BB97BF87B03F0A1FB0023184610371B
:101AD800BD4680BD80B483B000AF78603960002314
:101AE80018460C37BD465DF8047B704780B483B058
:101AF80000AF78603960002318460C37BD465DF8A2
:101B0800047B704780B483B000AF786039600023ED
:101B180018460C37BD465DF8047B704780B483B027
:101B280000AF78603960002318460C37BD465DF871
:101B3800047B704780B582B000AF78603960044993
:101B48000448FEF7E4FE002318460837BD4680BD6A
:101B5800047D00082403002080B582B000AF7860BF
:101B6800396001F0B1FA002318460837BD4680BD38
:101B780080B582B000AF7860396020210648FFF751
:101B8800C1FA4FF48041002001F030FA00231846D2
:101B98000837BD4680BD00BF0010024080B582B046
:101BA80000AF78603960002001F06EFA0023184613
:101BB8000837BD4680BD80B582B000AF7860396017
:101BC8000021012001F012FA002318460837BD460B
:101BD80080BD000080B584B000AF7860396007F13F
:101BE8000C031946002001F0CBF9FB681A0CFB68BE
:101BF80030493148FEF71AFF07F10C031946012056
:101C080001F0BEF9FB681A0CFB682C492A48FEF75C
:101C18000DFF07F10C031946022001F0B1F9FB682A
:101C28001A0CFB6826492448FEF700FF07F10C034D
:101C38001946032001F0A4F9FB681A0CFB68214936
:101C48001D48FEF7F3FE07F10C031946042001F0C6
:101C580097F9FB681A0CFB681B491748FEF7E6FE64
:101C680007F10C031946052001F08AF9FB681A46AA
:101C780016491148FEF7DAFE07F10C03194606204B
:101C880001F07EF9FB681A4611490B48FEF7CEFEB3
:101C980007F10C031946072001F072F9FB681A4690
:101CA8000C490548FEF7C2FE002318461037BD460A
:101CB80080BD00BF107D000824030020287D000897
:101CC800407D00085C7D0008787D00088C7D000858
:101CD800A47D0008BC7D000880B582B000AF7860A4
:101CE800396001F083FA002318460837BD4680BDE5
:101CF8002DE9B04F88B000AF786139613B69043392
:101D08001B68184605F054FC0346DA179A469346B2
:101D1800C7E906ABD7E9062325492648FEF786FE1C
:101D2800D7E9060102460B464FF0000A4FF0000BB8
:101D38004FEA431B4BEAD26B4FEA421A52465B46C4
:101D4800141A63EB01054FF000024FF000036B0219
:101D580043EAD453620214461D4614EB000845EBCF
:101D680001094FF000024FF000034FEA891343EADC
:101D780098634FEA8812B2EB0804BC6063EB09036E
:101D8800FB60D7E9024523461B183B602B4641EB15
:101D980003037B60D7E90034C7E90634D7E90601B5
:101DA80001F0D4FA002318462037BD46BDE8B08FAD
:101DB800D07D00082403002080B584B000AF78608F
:101DC800396007F10E03184601F0A0F9FB891A469D
:101DD80004490548FEF72AFE002318461037BD4679
:101DE80080BD00BFE47D00082403002080B584B0D6
:101DF80000AF786039603B6804331B68184605F00B
:101E0800D7FB0346FB73FB7B1A4606490648FEF7D9
:101E18000DFEFB7B184601F0B7F900231846103772
:101E2800BD4680BDF47D00082403002080B584B041
:101E380000AF786039603B6804331B68184605F0CA
:101E4800B7FB0346FB73FB7B1A4606490648FEF7B9
:101E5800EDFDFB7B184601F0B0F90023184610375A
:101E6800BD4680BD047E00082403002080B500AF75
:101E78000249034804F0C0FF00BF80BD780100207C
:101E88007401002080B500AF2E4B1B681846FFF781
:101E9800F6F80346012B0FD12B492C48FFF711F810
:101EA8000346002B05D0274B1B681846FFF7FAF8A6
:101EB80002E02448FFF739F8224B1B681846FFF761
:101EC800CBF80346012B3BD11E4B1B681846FFF786
:101ED8000CF903461A461B4B1A771A4B1B891A46EC
:101EE8001B491C48FEF7CCFF0346002B28D1154B95
:101EF8001B7FDBB20A2B23D0124B1B7FDBB20D2BCF
:101F08000ED1104B5B690F4A128B92B213440A220E
:101F18001A700C4B1B8919460D48FEF7EAFF0FE0B3
:101F2800084B5B69074A128B92B21344054A127F29
:101F3800D2B21A70034B1B8919460548FEF7D9FF20
:101F480000BF80BD24030020340300203603002096
:101F58003C0300203E03002080B483B000AF7860CB
:101F68007B681B6803F02003202B0CBF0123002390
:101F7800DBB218460C37BD465DF8047B704780B469
:101F880083B000AF78607B681B6803F08003802B08
:101F98000CBF01230023DBB218460C37BD465DF8A1
:101FA800047B704780B489B000AF78607B680C33DD
:101FB800FB60FB6853E8003FBB60BB6823F080030D
:101FC800FB617B680C33FA69BA617B617969BA692C
:101FD80041E800233B613B69002BE7D100BF00BF0C
:101FE8002437BD465DF8047B704780B483B000AFEA
:101FF80078607B685B68DBB218460C37BD465DF8D5
:10200800047B704780B483B000AF786039607B6828
:102018003A689A6100BF0C37BD465DF8047B70478B
:1020280080B483B000AF786039603B681A047B687D
:102038009A6100BF0C37BD465DF8047B704700000D
:1020480080B584B004AF4023029340230193074B2B
:102058000093074B262207490748FEF7FEFB02209C
:1020680005F03AF800BFBD4680BD00BF70040020EF
:1020780030040020004400401004002080B500AF68
:102088000249034804F0B8FE00BF80BD8C0100205F
:102098008801002080B582B000AF92E04F48FEF77B
:1020A800C7FE0346FB714E4B1B78DBB2002B0AD1EF
:1020B800FB79CA2B40F08580494B01221A70494BA5
:1020C80000221A707DE0FB79EF2B47D1444B0022A8
:1020D8001A70444B1B78DBB2434A1946434805F053
:1020E800D1F90346042B63D801A252F823F000BFAC
:1020F8000D210008172100082721000831210008B8
:102108004B2100083A493B48FEF701FC51E03A49A7
:102118003848FEF7FCFB344800F07CF849E03749C2
:102128003448FEF7F4FB44E035493248FEF7EFFB4C
:102138002C4B1B78DBB21A462C492E48FEF7FAFBCB
:1021480037E030492B48FEF7E2FB264B1B78DBB221
:102158001A4626492748FEF7EDFB2AE0FB79BD2BF6
:1021680003D1294B01221A7034E0274B1B78DBB2CC
:10217800002B11D0244B00221A70FB79DC2B01D1E3
:10218800CA23FB71FB79DB2B01D1BD23FB71FB79E2
:10219800DE2B01D1EF23FB71124B1B78DBB25A1CEB
:1021A800D1B2104A11701946104AFB79535400E015
:1021B80000BF0C4B1B78DBB2422B02D9084B002224
:1021C8001A7012491248FEF77CFE0346002B3FF4B2
:1021D80065AF00BF00BF0837BD4680BD10040020B2
:1021E8006C0500206D050020B00400204C0500207F
:1021F800F07E000824030020087F00081C7F0008E8
:10220800307F0008487F0008480500202804002087
:102218002A04002080B582B000AF7860324B1A687B
:10222800324B1B6812781A702F4B1B681B780E2BC9
:1022380024DC002B52DD013B0D2B4FD801A252F8B4
:1022480023F000BF8B220008912200089722000883
:102258009D220008A3220008A9220008AF22000836
:10226800B5220008BB220008C1220008C7220008C6
:10227800CD220008D3220008D9220008FF2B2AD03B
:102288002CE000F065F82AE000F086F827E000F07E
:10229800A7F824E000F0C8F821E000F015F91EE0E6
:1022A80000F090F91BE000F00BFA18E000F058FA83
:1022B80015E000F0D3FA12E000F014FB0FE000F094
:1022C8006DFB0CE000F0ACFB09E000F0DFFB06E082
:1022D80000F0E3FB03E000F0E7FB00E000BF00BF15
:1022E8000837BD4680BD00BF4005002044050020DA
:1022F80080B586B002AF3B460F220021184605F094
:10230800DFF9104B1B681B783B7039460E4B019365
:102318000023009301230122002004F0F3FE07F1BB
:102328000F023B461946084804F076FFFB7B1A4625
:102338003B4619460548FEF7FDFA00BF1037BD4673
:1023480080BD00BF40050020F804002010040020D4
:1023580080B582B000AF0E4B1B685B78002B14BFB2
:1023680001230023DBB2FB71FB79002B05D04FF46E
:1023780000510848FFF746FE04E04FF400510548B5
:10238800FFF74EFEFFF7B4FF00BF0837BD4680BD1C
:10239800400500200008024080B582B000AF0E4B17
:1023A8001B685B78002B14BF01230023DBB2FB7191
:1023B800FB79002B05D04FF400410848FFF722FEB7
:1023C80004E04FF400410548FFF72AFEFFF790FFAD
:1023D80000BF0837BD4680BD40050020000402400C
:1023E80080B582B000AF0E4B1B685B78002B14BF22
:1023F80001230023DBB2FB71FB79002B05D04FF4DE
:1024080080710848FFF7FEFD04E04FF4807105482D
:10241800FFF706FEFFF76CFF00BF0837BD4680BD1B
:10242800400500200010024080B582B000AF254B67
:102438001B685B781B021AB2224B1B689B781BB285
:102448001343FB801F4B1B68DB781B021AB21D4B22
:102458001B681B791BB21343BB801A4B1B685B7943
:102468001B021AB2174B1B689B791BB213437B8064
:10247800144B1B68DB791B021AB2124B1B681B7AC0
:102488001BB213433B80FB88DBB20021184602F0E5
:1024980003FEBB88DBB20121184602F0FDFD7B88F4
:1024A800DBB20221184602F0F7FD3B88DBB20321BC
:1024B800184602F0F1FDFFF71BFF00BF0837BD46C5
:1024C80080BD00BF4005002080B596B002AF002057
:1024D80002F0F8FD0346A7F84E30012002F0F2FDA5
:1024E8000346A7F84C30022002F0ECFD0346A7F89B
:1024F8004A30032002F0E6FD0346A7F848302D4B8A
:102508001A682D4B1B6812781A70B7F94E301B12D7
:102518001AB2294B1B68D2B25A70274B1B68B7F8FE
:102528004E20D2B29A70B7F94C301B121AB2224B15
:102538001B68D2B2DA70204B1B68B7F84C20D2B2B5
:102548001A71B7F94A301B121AB21B4B1B68D2B268
:102558005A71194B1B68B7F84A20D2B29A71B7F969
:1025680048301B121AB2144B1B68D2B2DA71124BE4
:102578001B68B7F84820D2B21A720F4B1B6819466D
:102588000E4B01930723009301230922002004F036
:10259800E3FDFA1C3B1D1946084804F03DFEFB7894
:1025A8001A463B1D19460648FEF7C4F900BF5037C6
:1025B800BD4680BD4005002044050020F8040020E9
:1025C8001004002080B596B002AF002002F08CFD08
:1025D8000346A7F84E30012002F086FD0346A7F80F
:1025E8004C30022002F080FD0346A7F84A30032051
:1025F80002F07AFD0346A7F848302D4B1A682D4B98
:102608001B6812781A70B7F94E301B121AB2294B90
:102618001B68D2B25A70274B1B68B7F84E20D2B24B
:102628009A70B7F94C301B121AB2224B1B68D2B2FF
:10263800DA70204B1B68B7F84C20D2B21A71B7F980
:102648004A301B121AB21B4B1B68D2B25A71194B73
:102658001B68B7F84A20D2B29A71B7F948301B12F2
:102668001AB2144B1B68D2B2DA71124B1B68B7F856
:102678004820D2B21A720F4B1B6819460E4B0193B1
:102688000723009301230922002004F065FDFA1CAA
:102698003B1D1946084804F0BFFDFB781A463B1D50
:1026A80019460648FEF746F900BF5037BD4680BDBB
:1026B8004005002044050020F804002010040020F4
:1026C80080B582B000AF254B1B685B781B021AB23D
:1026D800224B1B689B781BB213431BB2FB801F4B1A
:1026E8001B68DB781B021AB21C4B1B681B791BB2D8
:1026F80013431BB2BB80194B1B685B791B021AB2D0
:10270800164B1B689B791BB213431BB27B80134B80
:102718001B68DB791B021AB2104B1B681B7A1BB2B1
:1027280013431BB23B80FB881946002002F0EEFCE5
:10273800BB881946012002F0E9FC7B881946022073
:1027480002F0E4FC3B881946032002F0DFFCFFF7A7
:10275800CFFD00BF0837BD4680BD00BF4005002043
:1027680080B596B002AF002002F0F0FC0346A7F84F
:102778004E30012002F0EAFC0346A7F84C30022054
:1027880002F0E4FC0346A7F84A30032002F0DEFC1E
:102798000346A7F848302D4B1A682D4B1B68127852
:1027A8001A70B7F84E301B0A9AB2294B1B68D2B27E
:1027B8005A70274B1B68B7F84E20D2B29A70B7F8F8
:1027C8004C301B0A9AB2224B1B68D2B2DA70204BEB
:1027D8001B68B7F84C20D2B21A71B7F84A301B0AF6
:1027E8009AB21B4B1B68D2B25A71194B1B68B7F8C7
:1027F8004A20D2B29A71B7F848301B0A9AB2144BE1
:102808001B68D2B2DA71124B1B68B7F84820D2B2F3
:102818001A720F4B1B6819460E4B0193072300933E
:1028280001230922002004F097FCFA1C3B1D1946DD
:10283800084804F0F1FCFB781A463B1D1946064887
:10284800FEF778F800BF5037BD4680BD4005002030
:1028580044050020F80400201004002080B582B050
:1028680000AF1F4B1B685B78FB71FB79642B01D9A8
:102878006423FB711A4B1B689B78BB71BB79642B73
:1028880001D96423BB71164B1B68DB787B717B799C
:10289800642B01D964237B71114B1B681B793B7135
:1028A8003B79642B01D964233B71FB7919460020DD
:1028B80002F068FCBB791946012002F063FC7B79C1
:1028C8001946022002F05EFC3B791946032002F00B
:1028D80059FCFFF70DFD00BF0837BD4680BD00BF9E
:1028E8004005002080B596B002AF002002F06EFCD3
:1028F800034687F84F30012002F068FC034687F84A
:102908004E30022002F062FC034687F84D30032067
:1029180002F05CFC034687F84C301C4B1A681C4BD1
:102928001B6812781A701A4B1B6897F84F205A7058
:10293800174B1B6897F84E209A70154B1B6897F831
:102948004D20DA70124B1B6897F84C201A71104B07
:102958001B6819460F4B0193072300930123052297
:10296800002004F0F9FBFA1D07F10803194609488D
:1029780004F052FCFB791A4607F108031946064889
:10298800FDF7D8FF00BF5037BD4680BD4005002089
:1029980044050020F80400201004002080B582B00F
:1029A80000AF1E4B1B685B78FB71FB79012B04D0D1
:1029B800FB79022B01D00023FB71184B1B689B7815
:1029C800BB71BB79012B04D0BB79022B01D000234A
:1029D800BB71124B1B68DB787B717B79012B04D0B0
:1029E8007B79022B01D000237B710C4B1B681B7970
:1029F8003B713B79012B04D03B79022B01D000239A
:102A08003B713B797A79B979F87902F031FCFFF7B3
:102A18006FFC00BF0837BD4680BD00BF40050020E1
:102A280080B582B000AF184B1B685B78002B14BFD1
:102A380001230023DBB2FB71134B1B689B78002B2F
:102A480014BF01230023DBB2BB710F4B1B68DB787B
:102A5800002B14BF01230023DBB27B710A4B1B68D8
:102A68001B79002B14BF01230023DBB23B713B7998
:102A78007A79B979F87902F0C9FBFFF739FC00BF18
:102A88000837BD4680BD00BF4005002080B400AFB8
:102A980000BFBD465DF8047B704780B400AF00BF3F
:102AA800BD465DF8047B704780B400AF00BFBD46EB
:102AB8005DF8047B7047000080B500AF1F4B1B68B2
:102AC8001846FFF75CFA0346012B0FD11C491D4835
:102AD800FEF7F7F90346002B05D01B4B1B68184679
:102AE800FFF760FA02E01548FEF71FFA134B1B6860
:102AF8001846FFF731FA0346012B1DD10F4B1B680F
:102B08001846FFF772FA03461A460C4B1A770B4B16
:102B18001B891A460D490E48FEF7B2F90346002BE9
:102B28000AD1064B5B69054A128B92B21344034AD9
:102B3800127FD2B21A7000BF00BF80BD10040020FF
:102B48002004002022040020240300202804002060
:102B58002A04002080B483B000AF6423FB80B7F957
:102B6800063018460C37BD465DF8047B704780B4C4
:102B780083B000AF786039607B683A685A6300BFF9
:102B88000C37BD465DF8047B704780B483B000AF56
:102B9800786039607B683A689A6300BF0C37BD4635
:102BA8005DF8047B704780B483B000AF786039600B
:102BB8007B683A68DA6300BF0C37BD465DF8047B72
:102BC800704780B483B000AF786039607B683A683A
:102BD8001A6400BF0C37BD465DF8047B70470000DF
:102BE80080B582B000AF03460A46FB711346BB802E
:102BF800BB8842F20F72934202D942F20F73BB8034
:102C0800FB79032B22D801A252F823F0252C0008C7
:102C1800312C00083D2C0008492C0008BB881946B7
:102C28000D48FFF7A4FF12E0BB8819460A48FFF7D2
:102C3800ACFF0CE0BB8819460748FFF7B4FF06E075
:102C4800BB8819460448FFF7BCFF00E000BF00BF7F
:102C58000837BD4680BD00BF0000014080B483B086
:102C680000AF78607B689B6803F00103012B01D1FA
:102C7800012300E0002318460C37BD465DF8047BAD
:102C8800704780B483B000AF78607B680C331B78E2
:102C9800DBB218460C37BD465DF8047B704780B43C
:102CA80085B000AF78600B46FB707B680C33FB6027
:102CB800FB68FA781A7000BF1437BD465DF8047BCC
:102CC800704780B483B000AF786039607B683A6839
:102CD8009A6100BF0C37BD465DF8047B704780B42D
:102CE80083B000AF786039603B681A047B689A61EA
:102CF80000BF0C37BD465DF8047B704780B500AF58
:102D080002210248FFF7EBFF00BF80BD0010024020
:102D180080B500AF02210248FFF7D3FF00BF80BD96
:102D28000010024080B582B000AF0346FB71FB790A
:102D380019460948FFF7B3FF00BF0748FFF78EFFA2
:102D48000346002BF9D00448FFF79BFF03461846BB
:102D58000837BD4680BD00BF0030014080B584B053
:102D680000AF78600B46FB700023FB73FFF7C6FFCC
:102D78000023BB7310E0BB7B7A6813441B781846AA
:102D8800FFF7D0FF0346FB73BB7B7A681344FA7BDB
:102D98001A70BB7B0133BB73BA7BFB789A42EAD3C8
:102DA800FFF7B6FFFB7B18461037BD4680BD000015
:102DB800B0B582B000AFC7E90001D7E900010E4DF8
:102DC80000242A1A64EB01034FF000004FF00001C1
:102DD800590641EAD211500605A3D3E90023FDF7AD
:102DE80001FA02460B46134618460837BD46B0BDE1
:102DF80000F9029500000000807C814A2DE9B00F9F
:102E080085B000AFF860F968C8170C4605461B493D
:102E180001FB05F0002104FB01F101441748A4FB64
:102E2800002319440B4610461946002908DA6FF0AA
:102E38007E43C3183B6041F100037B60D7E9000182
:102E48004FF000024FF00003420E42EAC1124B1647
:102E58000021D2F1000A61EB030B52465B46084998
:102E680012EB010843F1000942464B461046194649
:102E78001437BD46BDE8B00F704700BF00F9029592
:102E8800807C814A80B586B000AF78600023FB6003
:102E980000233B617B681B783B737B681B795B0075
:102EA800DBB27B737B681B78F22B11D17B681A69C4
:102EB80007F10C0302331946104600F0D5FA07F162
:102EC8000C030621184600F094FA0346BB7407E089
:102ED80007F10C030221184600F08BFA0346BB7376
:102EE8007B685A7807F10C0311461846FFF736FF3E
:102EF80007F10C03184600F0F5FA03469AB24FF0B2
:102F0800FF337B617B695B057B617B695B0D7B6163
:102F18007B699BB213409AB27B68DA827B681B7824
:102F2800F22B06D1BA7B7B681A75FA7C7B685A75D6
:102F380019E07B681B78F42B0FD107F10C030233DF
:102F4800184600F0B2FA02467B681A61BA7C7B68C0
:102F58001A75FA7C7B685A7505E0BA7B7B681A7526
:102F6800FA7B7B685A757B685B7DA52B02D04FF096
:102F7800FF3300E0002318461837BD4680BD000027
:102F880080B58AB000AF03463960FB71002387F82B
:102F98002730144B1B883B813B89BB81FA79124946
:102FA80013465B0013449B00CA1807F1100307CAB5
:102FB80083E8070007F10C031846FFF763FF034691
:102FC80087F8273097F92730002B02D097F9273058
:102FD80003E0FA693B681A60002318462837BD46A3
:102FE80080BD00BF5C7F0008A001002080B58AB0CA
:102FF80000AF03463960FB710E4B1B88BB81BB8950
:103008003B82FA790C4913465B0013449B00CA18AB
:1030180007F1140307CA83E807003B683B6207F11E
:1030280010031846FFF72EFF034618462837BD46FB
:1030380080BD00BF607F0008A001002080B586B079
:1030480000AF0346B9607A60FB7307F11402FB7B9B
:1030580011461846FFF794FFBB68DA437B691340B3
:103068007B617968B86800F06DFA02467B691343A2
:103078007B617A69FB7B11461846FFF7B7FF034669
:1030880018461837BD4680BD80B582B000AF0346EC
:10309800FB71FB791A4601210020FFF7CFFF034699
:1030A80018460837BD4680BD80B582B000AF0346DC
:1030B800FB71FB791A4602210020FFF7BFFF034688
:1030C80018460837BD4680BD80B500AF01224FF4D1
:1030D80080410020FFF7B2FF0346184680BD80B547
:1030E80082B000AF4FF0FF337B607B689B067B604C
:1030F8007B685B0D7B607B68002219460120FFF727
:103108009DFF034618460837BD4680BD80B58AB086
:1031180000AF7860114B1B883B813B89BB81104A0B
:1031280007F110030C3207CA83E8070007F10C0304
:103138001846FFF7A7FE034687F8273097F9273088
:10314800002B02D097F9273003E07A8C7B681A802D
:10315800002318462837BD4680BD00BF647F00089D
:10316800A001002080B584B000AF78604FF0FF3335
:10317800FB60FB687A6819460420FFF75FFF034687
:1031880018461037BD4680BD80B584B000AF0346F1
:10319800FB714FF0FF33FB60FB681B07FB60FB68AC
:1031A8001B0FFB60FB68FA7919460520FFF746FFFD
:1031B800034618461037BD4680BD80B584B000AFC1
:1031C8000346FB714FF0FF33FB60FB681B07FB6096
:1031D800FB681B0FFB60FB68FA7919460620FFF7AE
:1031E8002DFF034618461037BD4680BD2DE9F04F28
:1031F8008FB000AF002387F8363020215248FFF700
:103208006EFD04215048FFF76AFDFFF75DFFFFF7E9
:1032180066FF034687F8363020214B48FFF751FDFB
:103228000120FFF731FF034687F8363043F60121C6
:103238000020FFF7DBFE034687F836304FF07F406B
:10324800FFF790FF034687F8363000210120FFF78B
:10325800CDFE034687F83630012003F041FD43F6E2
:1032680001210020FFF7C2FE034687F836304FF0F1
:103278007F40FFF7C3FDC7E90A010020FFF7BEFD45
:10328800C7E90801002387F8373045E0D7E9080186
:10329800D7E90A23841A61EB030597F8373000222F
:1032A8009846914608FB05F204FB09F31344A4FB76
:1032B80008AB5B449B4652465B46002B06DAD11CA2
:1032C800B96043F10003FB60D7E902234FF0000027
:1032D8004FF00001900840EA83709910D7E90A235B
:1032E80016183E604B417B60D7E90023C7E90623E7
:1032F800D7E90601FFF75CFD78617B691846FFF79F
:1033080031FF034687F83630012003F0E9FC97F8CF
:103318003730013387F8373097F83730042BB5D971
:1033280004210948FFF7CDFC0120FFF7BDFE034645
:1033380087F83630B420FDF731F997F9363018465A
:103348003C37BD46BDE8F08F001002402DE9B04380
:1033580088B000AFC7E900010021F9774FF00000FD
:103368004FF00001C7E904010021F960D7E9000125
:10337800002905DA10F10F0241F100031046194641
:103388004FF000024FF00003020942EA01720B11EC
:103398000021D2F1000861EB030942464B460C4973
:1033A800541843F10005C7E90445D7E90401FFF7BC
:1033B800FFFCF860FB681846FFF7D4FE0346FB776E
:1033C80097F91F3018462037BD46BDE8B08300BFC7
:1033D800807C814A80B485B000AF0146C7E90023EC
:1033E8000B46FB7300BF18461437BD465DF8047BD7
:1033F800704780B485B000AF78600B46FB7000233F
:10340800FB7307233B730023BB7322E0BB7B7A6803
:1034180013441A78FB7B5340FB7300237B7312E041
:1034280097F90F30002B08DAFB7B5B005AB297F94B
:103438000C3053405BB2FB7302E0FB7B5B00FB7319
:103448007B7B01337B737B7B072BE9D9BB7B013308
:10345800BB73BA7BFB789A42D8D3FB7B18461437E8
:10346800BD465DF8047B704780B483B000AF7860D8
:1034780039603B6803337A68D2B21A707B681A0ADB
:103488003B680233D2B21A707B681A0C3B6801336E
:10349800D2B21A707B681B0EDAB23B681A7000BF92
:1034A8000C37BD465DF8047B704780B483B000AF2D
:1034B80078607B6803331B781A467B6802331B7875
:1034C8001B0213431A467B6801331B781B041A43FB
:1034D8007B681B781B06134318460C37BD465DF8FE
:1034E800047B704780B483B000AF78607B68013399
:1034F8001B781A467B681B781B02134318460C3747
:10350800BD465DF8047B704780B485B000AF786035
:103518000023FB600CE07B6803F00103002B01D063
:10352800FB6809E07B685B087B60FB680133FB6034
:103538007B68002BEFD1202318461437BD465DF871
:10354800047B704780B582B000AF786039607868D6
:10355800FFF7DAFF02463B6803FA02F27B68134082
:1035680018460837BD4680BD80B483B000AF786088
:103578007B689B6843F001027B689A6000BF0C3748
:10358800BD465DF8047B704780B483B000AF7860B7
:103598007B689B6803F00103012B0CBF0123002308
:1035A800DBB218460C37BD465DF8047B704780B423
:1035B80083B000AF78607B689B6843F080427B688B
:1035C8009A6000BF0C37BD465DF8047B7047000069
:1035D80080B483B000AF786039600C4A3B6813440C
:1035E8001B781A467B6813441B6808493A680A44E2
:1035F800127811467A680A4443F00103136000BF49
:103608000C37BD465DF8047B704700BF687F000833
:1036180080B500AF00210948FFF7DAFF0848FFF737
:10362800A3FF00BF0648FFF7AFFF0346002BF9D002
:103638000348FFF7BCFF00BF80BD00BF0064024025
:103648000020014080B483B000AF786039607B68A7
:103658003A689A6100BF0C37BD465DF8047B704735
:1036680080B483B000AF786039603B681A047B6827
:103678009A6100BF0C37BD465DF8047B70470000B7
:1036880080B500AF0A4A13786FF300031370084A35
:1036980013786FF341031370054A13786FF38703A8
:1036A800137000F0E1F800F0F7F800BF80BD00BF2C
:1036B8007805002080B500AF0C4B1B78C3F3850359
:1036C800DBB2022B0CD0022B0DDC002B02D0012B1D
:1036D80003D008E000F00CF806E000F051F803E031
:1036E80000F070F800E000BF00BF80BD7805002042
:1036F80080B500AF214B1B7803F00103DBB2002B30
:1037080020D01E4B1B7803F00203DBB2002B19D02C
:10371800002003F05BFB0346002B2DD0174A1378DB
:103728006FF300031370154A13786FF34103137096
:1037380000F09AF800F0B0F84FF4FA71002003F0A6
:103748002FFB19E0002003F041FB0346002B13D0A8
:103758000A4A137843F001031370084A137843F0B8
:103768000203137000F074F800F08AF84FF4FA714D
:10377800002003F015FBFFE700BF80BD780500209F
:1037880080B500AF4FF480410D48FFF769FF4FF453
:1037980000410B48FFF756FF4FF4FA7003F0A0FA08
:1037A8004FF400410648FFF75BFF4FF4804104489F
:1037B800FFF748FF4FF4FA7003F092FA00BF80BD9C
:1037C800000C024080B500AF204B1B7803F00103CA
:1037D800DBB2002B1FD01D4B1B7803F00203DBB2BA
:1037E800002B18D0002003F0F1FA0346002B2BD051
:1037F800164A13786FF300031370144A13786FF3A3
:103808004103137000F030F800F046F83221002030
:1038180003F0C6FA18E0002003F0D8FA0346002B9C
:1038280012D00A4A137843F001031370074A137839
:1038380043F00203137000F00BF800F021F8322176
:10384800002003F0ADFAFFE700BF80BD7805002037
:1038580080B500AF4FF400410248FFF7F3FE00BF08
:1038680080BD00BF000C024080B500AF4FF400419E
:103878000248FFF7F5FE00BF80BD00BF000C024004
:1038880080B500AF4FF480410248FFF7DBFE00BF70
:1038980080BD00BF000C024080B500AF4FF48041EE
:1038A8000248FFF7DDFE00BF80BD00BF000C0240EC
:1038B80080B500AF0249034803F09EFA00BF80BDFF
:1038C800040200200002002080B485B000AF7860B8
:1038D8007B6803F00703FB600C4BDB68BB60BA68CE
:1038E8004FF6FF031340BB60FB681A02BB68134323
:1038F80043F0BF6343F40033BB60044ABB68D36042
:1039080000BF1437BD465DF8047B704700ED00E04A
:1039180080B400AF044BDB681B0A03F007031846AA
:10392800BD465DF8047B704700ED00E080B483B0CD
:1039380000AF0346FB7197F90730002B0BDBFB79CF
:1039480003F01F02074997F907305B09012000FAC5
:1039580002F241F8232000BF0C37BD465DF8047B16
:10396800704700BF00E100E080B483B000AF0346B9
:103978003960FB7197F90730002B0ADB3B68DAB234
:103988000C4997F907301201D2B20B4483F800238F
:103998000AE03B68DAB20849FB7903F00F03043BFD
:1039A8001201D2B20B441A7600BF0C37BD465DF83F
:1039B800047B704700E100E000ED00E080B489B0CE
:1039C80000AFF860B9607A60FB6803F00703FB6139
:1039D800FB69C3F10703042B28BF0423BB61FB6900
:1039E8000433062B02D9FB69033B00E000237B610B
:1039F8004FF0FF32BB6902FA03F3DA43BB681A409F
:103A08007B699A404FF0FF317B6901FA03F3D94390
:103A18007B680B40134318462437BD465DF8047B8A
:103A2800704780B489B000AFF860B9607A60FB680D
:103A38002C331946BB6803F440734FF440727A6123
:103A48007A6992FAA2F23A613A69BA61BA69002AC5
:103A580001D1202203E0BA69B2FA82F2D2B2D3408D
:103A68009B000B44FB61FB691A68BB6803F01F03EA
:103A78001F2101FA03F3DB431A407B6803F01F019F
:103A8800BB6803F01F0301FA03F31A43FB691A60CA
:103A980000BF2437BD465DF8047B704780B483B00F
:103AA80000AF786039607B689B6823F480623B686C
:103AB8001A437B689A6000BF0C37BD465DF8047BEB
:103AC800704780B48FB000AFF860B9607A60FB6867
:103AD8000C331946BB6803F000734FF000727A612B
:103AE8007A6992FAA2F23A613A69BA61BA69002A25
:103AF80001D1202203E0BA69B2FA82F2D2B2D340ED
:103B08009B000B447B637B6B1A68BB6803F0F873FC
:103B18004FF0F8713962396A91FAA1F1F961F969DE
:103B28007962796A002901D1202103E0796AB1FA22
:103B380081F1C9B2CB40072101FA03F3DB431A40F4
:103B4800BB6803F0F8734FF0F871F962F96A91FAFB
:103B5800A1F1B962B96A3963396B002901D1202111
:103B680003E0396BB1FA81F1C9B2CB40796801FA47
:103B780003F31A437B6B1A6000BF3C37BD465DF800
:103B8800047B704780B485B000AFF860B9607A6094
:103B98000D4ABB6813441B781A46FB6813441B681C
:103BA80023F0C0020849BB680B441B781946FB6820
:103BB8000B4419467B6813430B6000BF1437BD469E
:103BC8005DF8047B704700BF707F000880B485B043
:103BD80000AFF860B9607A600D4ABB6813441B787F
:103BE8001A46FB6813441B6823F490720849BB68A3
:103BF8000B441B781946FB680B4419467B68134332
:103C08000B6000BF1437BD465DF8047B704700BFEA
:103C1800707F000880B485B000AFF860B9607A6042
:103C28000D4ABB6813441B781A46FB6813441B688B
:103C380023F400720849BB680B441B781946FB68DB
:103C48000B4419467B6813430B6000BF1437BD460D
:103C58005DF8047B704700BF707F000880B485B0B2
:103C680000AFF860B9607A600D4ABB6813441B78EE
:103C78001A46FB6813441B6823F480620849BB6832
:103C88000B441B781946FB680B4419467B681343A1
:103C98000B6000BF1437BD465DF8047B704700BF5A
:103CA800707F000880B485B000AFF860B9607A60B2
:103CB8000D4ABB6813441B781A46FB6813441B68FB
:103CC80023F4C0520849BB680B441B781946FB68AB
:103CD8000B4419467B6813430B6000BF1437BD467D
:103CE8005DF8047B704700BF707F000880B485B022
:103CF80000AFF860B9607A600D4ABB6813441B785E
:103D08001A46FB6813441B6823F4C0420849BB6881
:103D18000B441B781946FB680B4419467B68134310
:103D28000B6000BF1437BD465DF8047B704700BFC9
:103D3800707F000880B485B000AFF860B9607A6021
:103D48000D4ABB6813441B781A46FB6813441B686A
:103D580023F440320849BB680B441B781946FB68BA
:103D68000B4419467B6813430B6000BF1437BD46EC
:103D78005DF8047B704700BF707F000880B485B091
:103D880000AFF860B9607A600D4ABB6813441B78CD
:103D98001A46FB6813441B6823F060620849BB6835
:103DA8000B441B781946FB680B4419467B68134380
:103DB8000B6000BF1437BD465DF8047B704700BF39
:103DC800707F000880B483B000AF786039600C4A17
:103DD8003B6813441B781A467B6813445B6908499F
:103DE8003A680A44127811467A680A4423F00403B0
:103DF800536100BF0C37BD465DF8047B704700BFB8
:103E0800707F000880B483B000AF78607B681B685F
:103E180043F001027B681A6000BF0C37BD465DF8AD
:103E2800047B704780B483B000AF78607B681B6800
:103E380023F080027B681A6000BF0C37BD465DF82E
:103E4800047B704780B483B000AF78607B681B68E0
:103E580023F040027B681A6000BF0C37BD465DF84E
:103E6800047B704780B483B000AF786039607B68AA
:103E7800DB6823F0FE023B681A437B68DA6000BF08
:103E88000C37BD465DF8047B704780B483B000AF43
:103E980078607B68DB6823F001027B68DA6000BF2A
:103EA8000C37BD465DF8047B7047000080B400AF56
:103EB800054B1B68044A43F48033136000BFBD46BA
:103EC8005DF8047B704700BF0038024080B400AF43
:103ED800074B1B6803F40033B3F5003F0CBF012305
:103EE8000023DBB21846BD465DF8047B704700BF6F
:103EF8000038024080B483B000AF7860064B9B68FE
:103F080023F0030204497B6813438B6000BF0C371E
:103F1800BD465DF8047B70470038024080B400AFAE
:103F2800044B9B6803F00C031846BD465DF8047B00
:103F3800704700BF0038024080B483B000AF78609B
:103F4800064B9B6823F0F00204497B6813438B609F
:103F580000BF0C37BD465DF8047B7047003802404F
:103F680080B483B000AF7860064B9B6823F4E052BE
:103F780004497B6813438B6000BF0C37BD465DF86E
:103F8800047B70470038024080B483B000AF78608B
:103F9800064B9B6823F4604204497B6813438B609B
:103FA80000BF0C37BD465DF8047B704700380240FF
:103FB80080B485B000AF7860084B1A6B07497B68FE
:103FC80013430B63054B1A6B7B681340FB60FB685C
:103FD80000BF1437BD465DF8047B704700380240C7
:103FE80080B485B000AF7860084B1A6C07497B68CD
:103FF80013430B64054B1A6C7B681340FB60FB682A
:1040080000BF1437BD465DF8047B70470038024096
:1040180080B485B000AF7860084B5A6C07497B685C
:1040280013434B64054B5A6C7B681340FB60FB6879
:1040380000BF1437BD465DF8047B70470038024066
:1040480080B483B000AF7860064B1B6823F007028A
:1040580004497B6813430B6000BF0C37BD465DF80D
:10406800047B7047003C024080B400AF044B1B68DF
:1040780003F007031846BD465DF8047B704700BF90
:10408800003C024080B483B000AF7860064B1B68E8
:1040980023F4804204497B6813430B6000BF0C374C
:1040A800BD465DF8047B70470070004080B483B063
:1040B80000AF78607B681B6843F040027B681A6039
:1040C80000BF0C37BD465DF8047B704780B483B0F1
:1040D80000AF786039607B685B6823F010023B684A
:1040E8001A437B685A6000BF0C37BD465DF8047BF5
:1040F800704780B483B000AF78607B681B6823F09A
:1041080080027B681A6000BF0C37BD465DF8047BEF
:104118007047000080B485B000AF786039603B68B4
:10412800012B1CD03B68042B17D03B68102B12D0F6
:104138003B68402B0DD03B68B3F5807F07D03B68C8
:10414800B3F5806F01D105230AE0062308E00423B4
:1041580006E0032304E0022302E0012300E0002339
:10416800FB737B6818331946FB7B0B4AD35C0B4403
:10417800BB60BB681A68FB7B0849CB5C1946042303
:104188008B40DB431A40BB681A6000BF1437BD463A
:104198005DF8047B704700BF787F0008807F0008C7
:1041A80080B485B000AF786039603B68012B1CD0C3
:1041B8003B68042B17D03B68102B12D03B68402B70
:1041C8000DD03B68B3F5807F07D03B68B3F5806FAF
:1041D80001D105230AE0062308E0042306E00323AF
:1041E80004E0022302E0012300E00023FB737B6864
:1041F80018331946FB7B0A4AD35C0B44BB60BB6887
:104208001A68FB7B0749CB5C194608238B401A4385
:10421800BB681A6000BF1437BD465DF8047B704761
:10422800787F0008807F000880B483B000AF786092
:1042380039607B689B6823F4804323F007033A685E
:104248001A437B689A6000BF0C37BD465DF8047B53
:10425800704780B483B000AF786039607B685B6872
:1042680023F070023B681A437B685A6000BF0C3722
:10427800BD465DF8047B704780B483B000AF7860BA
:104288007B689B6823F080027B689A6000BF0C37CC
:10429800BD465DF8047B704780B483B000AF78609A
:1042A8007B68DB6843F400527B68DA6000BF0C3738
:1042B800BD465DF8047B704780B483B000AF78607A
:1042C8007B681B6923F490427B681A617B685B6991
:1042D80023F02A027B685A6100BF0C37BD465DF89F
:1042E800047B704780B483B000AF786039607B6826
:1042F8003A689A6100BF0C37BD465DF8047B704789
:1043080080B483B000AF786039603B681A047B687A
:104318009A6100BF0C37BD465DF8047B704780B5D5
:1043280000AF4FF48040FFF773FE4FF08050FFF767
:1043380057FE0320FFF7C8FAFFF7EAFA0346002200
:104348000F211846FFF73AFB034619464FF0FF3096
:10435800FFF70AFB00F02EF800F094FB00F07AFB60
:1043680000F016FB00F096F900F038F900F056F866
:1043780000F0E6F900F0ACFA01F0A6F8FFF780F9D2
:10438800FCF7DEFEFFF744F900F074FEFDF758FE77
:1043980002F0DCFC01F0A4F8FFF78AFAFDF766FDED
:1043A80000F06EFEFDF76AFE02F0FAFD02F0FEFD77
:1043B800FCE7000080B500AF0020FFF741FE00BF1A
:1043C800FFF752FE0346002BFAD14FF48040FFF767
:1043D80059FEFFF76BFD00BFFFF778FD0346012B81
:1043E800FAD10020FFF7A8FD0020FFF7B9FD002053
:1043F800FFF7CAFD0120FFF77DFD00BFFFF78EFD27
:104408000346042BFAD1044802F05CFC024802F08F
:104418008DFC00BF80BD00BF00127A0080B592B04D
:1044280000AF07F13C0300221A605A609A6007F156
:10443800280300221A605A609A60DA601A6107F14C
:10444800180300221A605A609A60DA603B4600221C
:104458001A605A609A60DA601A615A614FF4807083
:10446800FFF7D6FD0420FFF7A3FD0220FFF7A0FD0C
:1044780030233B6003237B6000233B613B461946A6
:104488004D4801F090FA03233B6003237B6000232F
:104498003B613B461946494801F085FA0022002154
:1044A8004748FFF76BFC002200214548FFF76AFBED
:1044B8004FF4803200214248FFF73CFC4FF48072F1
:1044C80000213F48FFF782FB002200213C48FFF70C
:1044D800A1FB4FF4806200213948FFF7BFFB4FF47E
:1044E800006200213648FFF7DDFB4FF4005200213F
:1044F8003348FFF7FBFB00213148FFF763FC00233B
:10450800FB6300233B644FF480737B6407F13C0337
:1045180019462C4801F08EF80023BB624FF4401373
:10452800FB6200233B6302237B634FF44073BB634E
:1045380007F128031946234801F0A8F8002121486B
:10454800FFF7ACFA0023BB610023FB6107F11803F6
:1045580019461D4801F026F81C4A4FF40071194805
:10456800FFF75FFA072219491648FFF7AAFA184A0F
:1045780040F205211348FFF754FA0722144911485D
:10458800FFF79FFA134A40F20A210E48FFF749FA4B
:10459800072210490B48FFF794FA0F4A40F20F21FF
:1045A8000848FFF73EFA07220B490648FFF789FA41
:1045B80000BF4837BD4680BD0008024000040240E5
:1045C8000064024000200140002301400E00C000AA
:1045D8000F00F000080080030900B00380B58CB01C
:1045E80000AF07F1180300221A605A609A60DA6077
:1045F8001A615A613B4600221A605A609A60DA6072
:104608001A615A610220FFF7D3FC4FF440633B6004
:1046180002237B600323BB600123FB6000233B6113
:1046280004237B613B461946174801F0BCF94FF457
:104638008000FFF7D5FC1548FFF727FC1348FFF764
:1046480001FC1248FFF7EEFB0023BB61104BFB6136
:1046580000233B6200237B624FF48063BB624FF40C
:104668008043FB6207F118031946084801F012FB62
:1046780000210648FFF7F6FB0448FFF7C3FB00BF1D
:104688003037BD4680BD00BF0004024000580040DE
:10469800A086010080B590B000AF07F1180328226A
:1046A8000021184603F00CF83B4600221A605A60B5
:1046B8009A60DA601A615A614FF48050FFF7A8FCDB
:1046C8000220FFF775FC38233B6002237B6003233D
:1046D800BB600023FB6000233B6105237B613B46F5
:1046E8001946154801F05FF90023BB614FF4827346
:1046F800FB6100233B6200237B620023BB624FF413
:104708000073FB6218233B6300237B630023BB63B6
:104718000A23FB6307F118031946084801F049FC0E
:1047280000210648FFF7D2FC0448FFF7BFFC00BF92
:104738004037BD4680BD00BF000402400030014044
:1047480080B59AB000AF07F1540300221A605A608E
:104758009A60DA601A6107F13403202200211846B2
:1047680002F0AEFF07F11C0300221A605A609A603B
:10477800DA601A615A613B1D00221A605A609A6019
:10478800DA601A615A610120FFF742FC5323A7F847
:1047980054300023BB6542F20F73FB6500233B6670
:1047A80000237B6607F154031946474801F0C6FC0D
:1047B8004548FFF79EFC00214348FFF735FD0121DE
:1047C8004148FFF7EDFC60237B630023BB630023B4
:1047D800FB6300233B6400237B640023BB6400234A
:1047E800FB6400233B6507F134031A460121364870
:1047F80001F03EFD01213448FFF78CFC10213248BE
:10480800FFF7CEFC07F134031A4610212E4801F0B9
:104818002FFD10212C48FFF77DFC4FF480712A48AA
:10482800FFF7BEFC07F134031A464FF4807126489F
:1048380001F01EFD4FF480712348FFF76BFC002345
:104848007B6307F134031A464FF480511E4801F088
:104858000FFD4FF480511C48FFF75CFC00211A48FB
:10486800FFF7F7FC1848FFF707FD0023FB6100235B
:104878003B6200237B62002387F8283000237B8576
:104888004FF40053FB6200233B6307F11C031946F6
:104898000D4801F02EFD1020FFF78AFB4FF4D4439A
:1048A8007B600223BB600023FB6000233B61002385
:1048B8007B610123BB613B1D1946044801F073F875
:1048C80000BF6837BD4680BD0000014000100240AF
:1048D80080B58EB000AF07F11C0300221A605A6041
:1048E8009A60DA601A615A619A613B1D00221A6067
:1048F8005A609A60DA601A615A614FF40030FFF723
:104908006FFB0120FFF754FB0C237B600223BB6085
:104918000323FB6000233B6100237B610723BB610A
:104928003B1D1946184801F03EF8FEF7F1FF034613
:10493800002200211846FFF741F8034619462620B1
:10494800FFF712F82620FEF7F1FF4FF4E133FB6181
:1049580000233B6200237B620023BB620C23FB62C3
:1049680000233B6300237B6307F11C0319460748B8
:1049780002F00EF90548FFF79FFC0448FFF78CFC8E
:1049880000BF3837BD4680BD0000024000440040EB
:1049980080B58EB000AF07F11C0300221A605A6080
:1049A8009A60DA601A615A619A613B1D00221A60A6
:1049B8005A609A60DA601A615A614FF48020FFF7F2
:1049C8000FFB0820FFF7F4FA4FF440737B600223D3
:1049D800BB600323FB6000233B6100237B6107234B
:1049E800BB613B1D1946194800F0DDFFFEF790FF3B
:1049F8000346002200211846FEF7E0FF0346194649
:104A08002720FEF7B1FF2720FEF790FF4FF4E13390
:104A1800FB6100233B6200237B620023BB620C2303
:104A2800FB6200233B6300237B6307F11C031946E9
:104A3800074802F0ADF80648FFF73EFC0448FFF7C8
:104A48002BFC00BF3837BD4680BD00BF000C0240BC
:104A58000048004080B500AF4FF48000FFF7A8FA87
:104A6800FEF756FF0346002200211846FEF7A6FF70
:104A7800034619463820FEF777FF3820FEF756FF21
:104A880000BF80BD80B586B000AF3B4600221A60EB
:104A98005A609A60DA601A615A611020FFF788FA42
:104AA8000420FFF785FA8020FFF782FA0120FFF73C
:104AB8007FFA0220FFF77CFA0820FFF779FA4FF413
:104AC80092714C48FFF71CFC4FF400514A48FFF71D
:104AD80017FC02214948FFF713FC4FF400414848EE
:104AE800FFF70EFC4FF440414648FFF709FC4FF42E
:104AF80040714348FFF7F6FB03213E48FFF7F2FBFE
:104B080024233B6001237B600023BB600023FB6000
:104B180002233B613B461946364800F044FFC02358
:104B28003B6000237B6000233B613B4619463148CC
:104B380000F039FF4FF400533B6001237B600023F2
:104B4800BB600023FB6000233B613B4619462A48B3
:104B580000F029FF02233B6001237B600023BB6038
:104B68000023FB6000233B613B461946234800F0C5
:104B78001AFF40F203133B6001237B600023BB60F4
:104B88000023FB6000233B613B461946194800F0AF
:104B98000AFF4FF480433B6000237B6000233B61A6
:104BA8003B461946164800F0FEFE4FF403433B60AF
:104BB80001237B600023BB600023FB6000233B6173
:104BC8003B4619460E4800F0EEFE4FF440433B606A
:104BD80001237B600023BB600023FB6000233B6153
:104BE8003B461946074800F0DEFE00BF1837BD46B1
:104BF80080BD00BF001002400008024000000240D3
:104C080000040240000C024080B400AF00BFFDE782
:104C180080B400AF00BFFDE780B400AF00BFFDE780
:104C280080B400AF00BFFDE780B400AF00BFFDE770
:104C380080B400AF00BFBD465DF8047B704780B408
:104C480000AF00BFBD465DF8047B704780B400AF7D
:104C580000BFBD465DF8047B7047000080B500AF1B
:104C6800044B1B680133034A136002F005F900BFC7
:104C780080BD00BF7C05002080B500AFFDF71CFF9C
:104C880000BF80BD80B500AFFDF7FCF800BF80BD58
:104C980080B400AF00BFBD465DF8047B70470000DC
:104CA80080B400AF064BD3F88830054A43F470034C
:104CB800C2F8883000BFBD465DF8047B704700BF6E
:104CC80000ED00E0DFF834D0FFF7EAFF0C480D49AB
:104CD8000D4A002302E0D458C4500433C4188C424F
:104CE800F9D30A4A0A4C002301E013600432A242B5
:104CF800FBD302F0F3FCFFF712FB70470000022021
:104D080000000020E4020020B4800008E402002033
:104D1800D4080020FEE7000080B500AFFDF71AFFB9
:104D280003461A463E4BA3F840203E4BB3F90020F9
:104D38003B4B1A873B4BB3F90220394B5A87394B07
:104D4800B3F90420364B9A87364BB3F90620344B17
:104D5800DA87334B93F8423003F00203002B07D075
:104D68002F4BB3F938300021184600F05DF809E000
:104D78002B4B93F8423003F00103002B02D00020A4
:104D880000F01AF9264B93F8423003F00803002B81
:104D980007D0234BB3F93A300121184600F044F804
:104DA80009E01F4B93F8423003F00403002B02D0B4
:104DB800012000F001F91A4B93F8423003F0200368
:104DC800002B07D0164BB3F93C300221184600F0EF
:104DD8002BF809E0124B93F8423003F01003002B34
:104DE80002D0022000F0E8F80D4B93F842305BB295
:104DF800002B07DA0A4BB3F93E300321184600F0BE
:104E080013F80AE0064B93F8423003F04003002BF6
:104E180003D0032000F0D0F800BF00BF80BD00BF62
:104E2800380200207005002080B582B000AF03462C
:104E38000A46FB8013467B71B7F906207B795D49EA
:104E480031F9133019465B4BB3F908300B449A42D9
:104E580037DD7B7900211846FDF7C2FE7B79554A7C
:104E68000233DB001344D3E9002379790846FEF7BF
:104E7800B1FA7B794F4A1344002283F844204D4B02
:104E880093F843305AB27B79012101FA03F35BB2FC
:104E980013435BB2DAB2474B83F84320454B93F890
:104EA80043305AB27B790433012101FA03F35BB230
:104EB800DB435BB213405BB2DAB23E4B83F843206C
:104EC80074E0B7F906207B793A4931F9133019466D
:104ED800384BB3F90A30CB1A9A423ADA79794FF05B
:104EE80000024FF000030846FEF774FA7B79314A56
:104EF800183332F913309AB27B7911461846FDF708
:104F08006FFE7B792B4A1344012283F84420294BF6
:104F180093F843305AB27B790433012101FA03F341
:104F28005BB213435BB2DAB2224B83F84320214BC6
:104F380093F843305AB27B79012101FA03F35BB24B
:104F4800DB435BB213405BB2DAB21A4B83F84320FF
:104F58002CE079794FF000024FF000030846FEF785
:104F680039FA7B7900211846FDF73AFE7B79114A18
:104F78001344022283F844200E4B93F843305AB26C
:104F88007B790433012101FA03F359B27B790120BB
:104F980000FA03F35BB20B435BB2DB435BB2134033
:104FA8005BB2DAB2034B83F8432000BF0837BD4633
:104FB80080BD00BF3802002080B582B000AF034634
:104FC800FB712B4B93F843301946FB79012202FA07
:104FD80003F301EA0302FB79012101FA03F39A4280
:104FE80016D1FB7900211846FDF7FAFDFB79204A16
:104FF8000233DB001344D3E90023F9790846FEF7AE
:10500800E9F9FB791A4A1344002283F844202BE07B
:10501800174B93F843301946FB790433012202FAFF
:1050280003F301EA0302FB790433012101FA03F3D4
:105038009A4219D1F9794FF000024FF0000308465F
:10504800FEF7C8F9FB790A4A183332F913309AB2D5
:10505800FB7911461846FDF7C3FDFB79044A134452
:10506800012283F8442000BF00BF0837BD4680BD39
:105078003802002080B500AFFEF7B8F800BF80BD49
:1050880080B500AF0249034801F0B6FE00BF80BDFD
:10509800200200201C02002080B483B000AF034629
:1050A8000A46FB711346BB80FB790549BA8821F88B
:1050B800132000BF0C37BD465DF8047B704700BF66
:1050C8003802002080B483B000AF0346FB71FB793F
:1050D800044A32F9133018460C37BD465DF8047B94
:1050E800704700BF3802002080B483B000AF034689
:1050F800FB71FB79044A1C3332F9133018460C371C
:10510800BD465DF8047B70473802002090B482B039
:1051180000AF044608462146F9710146B980B988AE
:10512800084800FB01F1F879CC170A462346064CDB
:10513800811CC9002144C1E9002300BF0837BD46CE
:1051480090BC704740420F003802002080B582B002
:1051580000AF0346FB71FB79084A0233DB001344B6
:10516800D3E90001064A4FF00003FBF73BF802467B
:105178000B4693B218460837BD4680BD380200205A
:1051880040420F0080B483B000AF03460A46FB716B
:105198001346BB71BB7942F20F7202FB03F3094A53
:1051A80082FB03125211DB17D21AFB7911B2064A9D
:1051B800183322F8131000BF0C37BD465DF8047B86
:1051C800704700BF1F85EB513802002080B483B0C0
:1051D80000AF0346FB71FB790A4A183332F91330E2
:1051E8001A46642302FB03F3074A82FB03121212D6
:1051F800DB17D31ADBB218460C37BD465DF8047BC3
:10520800704700BF38020020AFE38D0690B482B02B
:1052180000AF0446084611461A462346FB7103466A
:10522800BB710B467B7113463B71104B93F84230B0
:105238005AB2FB795B0059B2BB79DB005BB20B4316
:1052480059B27B795B015BB20B4359B23B79DB0105
:105258005BB20B435BB213435BB2DAB2034B83F826
:10526800422000BF0837BD4690BC70473802002076
:1052780090B482B000AF0446084611461A46234649
:10528800FB710346BB710B467B7113463B71FB797F
:10529800022B12D17C4B93F8433023F00103DAB28E
:1052A800794B83F84320784B93F8433043F010034D
:1052B800DAB2754B83F8432027E0FB79012B12D132
:1052C800714B93F8433023F01003DAB26E4B83F836
:1052D80043206D4B93F8433043F00103DAB26A4B35
:1052E80083F8432011E0684B93F8433023F001031F
:1052F800DAB2654B83F84320634B93F8433023F0CD
:105308001003DAB2604B83F84320BB79022B12D129
:105318005D4B93F8433023F00203DAB25A4B83F81B
:105328004320594B93F8433043F02003DAB2564BED
:1053380083F8432027E0BB79012B12D1524B93F815
:10534800433023F02003DAB24F4B83F843204E4B0F
:1053580093F8433043F00203DAB24B4B83F843200F
:1053680011E0494B93F8433023F00203DAB2464B7D
:1053780083F84320444B93F8433023F02003DAB2F8
:10538800414B83F843207B79022B12D13E4B93F893
:10539800433023F00403DAB23B4B83F843203A4B03
:1053A80093F8433043F04003DAB2374B83F8432095
:1053B80027E07B79012B12D1334B93F8433023F04C
:1053C8004003DAB2304B83F843202F4B93F8433035
:1053D80043F00403DAB22C4B83F8432011E02A4B44
:1053E80093F8433023F00403DAB2274B83F84320C1
:1053F800254B93F8433023F04003DAB2224B83F86D
:1054080043203B79022B12D11F4B93F8433023F0F2
:105418000803DAB21C4B83F843201B4B93F8433044
:1054280063F07F03DAB2184B83F8432028E03B7916
:10543800012B12D1144B93F8433003F07F03DAB2F7
:10544800114B83F84320104B93F8433043F0080383
:10545800DAB20D4B83F8432012E00B4B93F843303C
:1054680023F00803DAB2084B83F84320064B93F87D
:10547800433003F07F03DAB2034B83F8432000BFC5
:105488000837BD4690BC70473802002080B483B00E
:1054980000AF786039607B683A689A6100BF0C3762
:1054A800BD465DF8047B704780B483B000AF786078
:1054B80039603B681A047B689A6100BF0C37BD46A7
:1054C8005DF8047B7047000080B400AF034B0022F6
:1054D8001A7000BFBD465DF8047B70478005002048
:1054E80080B500AF0249034801F086FC00BF80BDCB
:1054F800840200208002002080B500AF144B1B7886
:10550800002B12D0012001F061FC0346002B1DD0B6
:105518000F4B00221A7002210E48FFF7C5FF4FF407
:105528001671012001F03CFC10E0012001F04EFC56
:105538000346002B0AD0064B01221A7002210548A7
:10554800FFF7A4FFC821012001F02AFC00BF80BD9D
:10555800800500200000024080B483B000AF78606E
:1055680039607B68DB6A23F470023B681A437B6806
:10557800DA6200BF0C37BD465DF8047B704780B423
:1055880083B000AF78607B689B6803F00103012B50
:105598000CBF01230023DBB218460C37BD465DF86B
:1055A800047B704790B585B000AF78603960002300
:1055B800FB731C48FFF7E3FF04461B48FFF7DFFFB8
:1055C80003461C431948FFF7DAFF03462343002B21
:1055D80020D13B685B68002B12D07B685A68144B5B
:1055E80013403A6811683A68526811433A689268F9
:1055F80011433A68D2680A431A437B685A600BE041
:105608007B685A680A4B13403A6812681A437B68E9
:105618005A6001E00123FB73FB7B18461437BD4633
:1056280090BD00BF00200140002101400022014040
:10563800E010FCFF80B584B000AF786039600023CB
:10564800FB737868FFF79BFF0346002B17D17B6835
:105658005B6823F0407323F480733A6811683A68F2
:1056680092680A431A437B685A607B689B6823F4F4
:1056780000623B685B681A437B689A6001E001231B
:10568800FB73FB7B18461037BD4680BD80B584B0E0
:1056980000AF786039600023FB737868FFF76FFF0D
:1056A8000346002B2BD13B685B68002B09D07B6835
:1056B8005B6823F468423B689B681A437B685A60BE
:1056C80005E07B685B6823F468427B685A607B6806
:1056D8009A680E4B13403A68126802F070613A6893
:1056E800D26811433A6812690A431A437B689A6080
:1056F8003B685B6819467868FFF72EFF01E00123D5
:10570800FB73FB7B18461037BD4680BDFDFCFFC010
:1057180080B48BB000AFF860B9607A60FB681A6833
:10572800BB687B617B6993FAA3F33B613B69BB610F
:10573800BB69002B01D1202303E0BB69B3FA83F3D3
:10574800DBB25B00032101FA03F3DB431A40BB68B9
:105758003B623B6A93FAA3F3FB61FB697B627B6A5A
:10576800002B01D1202303E07B6AB3FA83F3DBB279
:105778005B00796801FA03F31A43FB681A6000BFFB
:105788002C37BD465DF8047B704780B485B000AF08
:10579800F860B9607A60FB685A68BB68DB431A40F6
:1057A800BB68796801FB03F31A43FB685A6000BFC2
:1057B8001437BD465DF8047B704780B48BB000AFEA
:1057C800F860B9607A60FB689A68BB687B617B693E
:1057D80093FAA3F33B613B69BB61BB69002B01D121
:1057E800202303E0BB69B3FA83F3DBB25B00032138
:1057F80001FA03F3DB431A40BB683B623B6A93FA46
:10580800A3F3FB61FB697B627B6A002B01D1202338
:1058180003E07B6AB3FA83F3DBB25B00796801FAD1
:1058280003F31A43FB689A6000BF2C37BD465DF846
:10583800047B704780B48BB000AFF860B9607A60C1
:10584800FB68DA68BB687B617B6993FAA3F33B6109
:105858003B69BB61BB69002B01D1202303E0BB6915
:10586800B3FA83F3DBB25B00032101FA03F3DB43F2
:105878001A40BB683B623B6A93FAA3F3FB61FB697E
:105888007B627B6A002B01D1202303E07B6AB3FA99
:1058980083F3DBB25B00796801FA03F31A43FB6810
:1058A800DA6000BF2C37BD465DF8047B704780B4D2
:1058B8008BB000AFF860B9607A60FB681A6ABB68A1
:1058C8007B617B6993FAA3F33B613B69BB61BB696D
:1058D800002B01D1202303E0BB69B3FA83F3DBB2C9
:1058E8009B000F2101FA03F3DB431A40BB683B62BC
:1058F8003B6A93FAA3F3FB61FB697B627B6A002B2B
:1059080001D1202303E07B6AB3FA83F3DBB29B0067
:10591800796801FA03F31A43FB681A6200BF2C374F
:10592800BD465DF8047B704780B48BB000AFF8606B
:10593800B9607A60FB685A6ABB681B0A7B617B693D
:1059480093FAA3F33B613B69BB61BB69002B01D1AF
:10595800202303E0BB69B3FA83F3DBB29B000F217A
:1059680001FA03F3DB431A40BB681B0A3B623B6A3C
:1059780093FAA3F3FB61FB697B627B6A002B01D17D
:10598800202303E07B6AB3FA83F3DBB29B007968D8
:1059980001FA03F31A43FB685A6200BF2C37BD466D
:1059A8005DF8047B704780B58AB000AF78603960D5
:1059B80000237B6200233B623B681B68BB61BB69B9
:1059C80093FAA3F37B617B69FB61FB69002B01D12F
:1059D800202303E0FB69B3FA83F3DBB27B6257E071
:1059E8003B681A6801217B6A01FA03F313403B62A2
:1059F8003B6A002B49D03B685B68012B03D03B68AE
:105A08005B68022B0DD13B689B681A46396A786837
:105A1800FFF7D3FE3B68DB681A46396A7868FFF7F8
:105A2800B4FE3B681B691A46396A7868FFF702FFBB
:105A38003B685B68022B21D13B6AFB60FB6893FAE9
:105A4800A3F3BB60BB683B613B69002B01D12023FA
:105A580003E03B69B3FA83F3DBB2072B07D83B6853
:105A68005B691A46396A7868FFF721FF06E03B68E8
:105A78005B691A46396A7868FFF756FF3B685B68C6
:105A88001A46396A7868FFF743FE7B6A01337B62FE
:105A98003B681A687B6A22FA03F3002BA0D1002323
:105AA80018462837BD4680BD80B483B000AF786003
:105AB8007B681B6843F001027B681A6000BF0C37E3
:105AC800BD465DF8047B704780B483B000AF786052
